:020000040800F2
:10000000F84A0020450100082B04000823040008DA
:1000100027040008BD010008130C000800000000C0
:100020000000000000000000000000002906000899
:100030000B03000800000000B104000815070008C9
:100040005F0100085F0100085F0100085F01000810
:100050005F0100085F0100085F0100085F01000800
:100060005F0100085F0100085F0100085F010008F0
:10007000C10100085F010008F10100085F010008EC
:100080005F010008250200085F0100085F01000809
:100090005F0100085F0100085F0100085F010008C0
:1000A0005F0100085F0100085F0100085F010008B0
:1000B0005F0100085F0100085F0100085F010008A0
:1000C0005F0100085F0100085F0100085F01000890
:1000D0005F0100088D070008BD070008F107000850
:1000E0005F0100085F0100085F0100085F01000870
:1000F0005F0100085F0100085F0100085F01000860
:100100005F0100085F0100085F0100085F0100084F
:100110005F0100085F0100085F0100085F0100083F
:100120005F0100085F0100085F0100085F0100082F
:10013000DFF80CD000F018F800480047390C000830
:10014000F84A00200648804706480047FEE7FEE7D9
:10015000FEE7FEE7FEE7FEE7FEE7FEE7FEE7FEE777
:100160001907000831010008064C074D06E0E06859
:1001700040F0010394E8070098471034AC42F6D3EE
:10018000FFF7DAFFD4130008F413000810B500F0ED
:1001900003FC00F061FB00F0F3FC00F093FB002493
:1001A00007E0054951F82400012100F048FB601CDC
:1001B000C4B2032CF5DB10BD3000002000BFFEE709
:1001C00010B5202000F064F801280ED1032000F0C3
:1001D000D3FA0648806800684FF6FE71084003496C
:1001E00089680860202000F045F810BD3C00002020
:1001F00010B54FF4005000F04BF801280ED100F07C
:10020000BBFA0748006800684FF6FE7108400449D1
:10021000096808604FF4005000F02CF810BD000091
:100220003C00002010B54FF0007000F031F80128BC
:100230000FD1022000F0A0FA0648406800684FF68F
:10024000FE7108400349496808604FF0007000F0F3
:1002500011F810BD3C00002000F0805111B103499D
:10026000086001E002494860704700000404024051
:100270000000024000F0805111B10349086001E024
:100280000249486070470000040402400000024038
:1002900001460020002201F0805313B1054B1A687B
:1002A00001E0054B1A6802EA01030BB1012000E0EE
:1002B0000020704700040240000002401AB10368A9
:1002C0000B43036002E003688B430360704710B583
:1002D0000022026847F6F0739A430C6A8B68234346
:1002E0000C6923434C6923438C692343CC69234322
:1002F0004C6A23438C6A23431A430260CB684360F1
:100300000B6883604B68C36010BD70472DE9F041F6
:10031000024600250026002000230024002791F833
:1003200003C00CF00F0591F803C00CF0100CBCF1E9
:10033000000F03D091F802C04CEA050591F800C007
:10034000BCF1000F31D0146800202BE04FF0010CFD
:100350000CFA00F3B1F800C00CEA03069E4220D16B
:1003600083004FF00F0C0CFA03F7BC4305FA03FCB3
:100370004CEA040491F803C0BCF1280F06D14FF0F9
:10038000010C0CFA00FCC2F814C00AE091F803C09A
:10039000BCF1480F05D14FF0010C0CFA00FCC2F87B
:1003A00010C0401C0828D1D31460B1F800C0BCF1C3
:1003B000FF0F34DD546800202EE000F1080C4FF0F0
:1003C000010808FA0CF3B1F800C00CEA03069E42DB
:1003D00021D183004FF00F0C0CFA03F7BC4305FA50
:1003E00003FC4CEA040491F803C0BCF1280F05D1CA
:1003F00000F1080C08FA0CF8C2F8148091F803C058
:10040000BCF1480F07D100F1080C4FF0010808FAC1
:100410000CF8C2F81080401C0828CED35460BDE808
:10042000F08100BFFEE700BFFEE7704770B5002116
:1004300000230F22C47804B3154C246804F4E0644C
:10044000C4F5E064210AC1F10403CA40447804FA07
:1004500003F184781440214309010E4C0678A1551C
:10046000047804F01F050124AC4005786D11AD003F
:1004700005F1E025C5F8004109E0047804F01F0506
:100480000124AC40044D0678761145F8264070BD35
:100490000CED00E000E400E080E100E002490143EF
:1004A000024A1160704700000000FA050CED00E000
:1004B0007047000029B1064A52690243044B5A6151
:1004C00004E0034A52698243014B5A6170470000BD
:1004D0000010024029B1064AD2690243044BDA6196
:1004E00004E0034AD2698243014BDA61704700009D
:1004F0000010024029B1064A92690243044B9A61F6
:1005000004E0034A92698243014B9A6170470000FC
:100510000010024030B500210022002400232D4DA0
:100520006D6805F00C0121B1042905D0082923D1FB
:1005300005E0294D056022E0274D05601FE0254DAF
:100540006D6805F47012234D6D6805F48034022542
:1005500005EB92421CB9214D554305600BE01D4D42
:100560006D6805F400351DB11C4D5543056002E072
:10057000194D5543056002E0174D056000BF00BFEF
:10058000144D6D6805F0F0010909154D6B5C0568A7
:10059000DD4045600F4D6D6805F4E061090A104DBE
:1005A0006B5C4568DD4085600A4D6D6805F46051FF
:1005B000C90A0B4D6B5C4568DD40C560054D6D6833
:1005C00005F44041890B074D6B5CC568B5FBF3F53D
:1005D000056130BD0010024000127A0000093D00A4
:1005E000000000201000002010B5421E0D4B03EB50
:1005F000821212783F2A14DA421E03EB8213094C4E
:10060000421C04EB82121278521C9954421E23465B
:1006100003EB82121278521CD3B2421E04EB8212F8
:10062000137010BDAC000020704710B500F002F848
:1006300010BD00000CB50020019000903348006808
:1006400040F480303149086000BF3048006800F451
:10065000003000900198401C0190009818B9019852
:10066000B0F5A06FF1D12948006800F4003010B156
:100670000120009001E0002000900098012843D163
:100680002348006840F010002149086008460068CF
:1006900020F0030008600846006840F0020008608F
:1006A0001A4840681949486008464068486008464A
:1006B000406840F4806048600846406820F47C1040
:1006C00048600846406840F4E81048600846006802
:1006D00040F08070086000BF0C48006800F00070B7
:1006E0000028F9D00948406820F003000749486015
:1006F0000846406840F00200486000BF0348406878
:1007000000F00C000828F9D10CBD000000100240D8
:10071000002002407047000010B51348006840F008
:1007200001001149086008464068104908400E4918
:100730004860084600680E4908400B4908600846B2
:10074000006820F4802008600846406820F4FE001D
:1007500048604FF41F008860FFF767FF4FF00060AC
:100760000449086010BD0000001002400000FFF8BE
:10077000FFFFF6FE08ED00E00022411E024B03EBF6
:1007800081110A70704700006C01002010B540F222
:100790002551094800F038F901280CD1064800F02D
:1007A00033FAC4B221460120FFF71EFF40F2255163
:1007B000014800F035F810BD0038014010B540F296
:1007C0002551094800F020F901280CD1074800F014
:1007D0001BFAC4B221460220FFF706FF40F2255162
:1007E000024800F01DF810BD0038014000440040F0
:1007F00010B540F22551094800F006F901280CD146
:10080000064800F001FAC4B221460320FFF7ECFECF
:1008100040F22551014800F003F810BD00480040A7
:1008200010B50022002340F66A14A14200D100BF97
:100830000A1201249440A3B2DC43048010BD21B10C
:10084000828942F40052828104E082894DF6FF736E
:100850001A408281704700001FB501218803FFF70D
:1008600049FE01214804FFF735FE01218804FFF706
:1008700031FE4FF4E13000900020ADF80C000C2068
:10088000ADF80A000020ADF80800ADF80600ADF89C
:100890000400002407E0054951F82400694600F0EF
:1008A00003F9601CC4B2032CF5DB1FBD300000202F
:1008B0001AB1838A0B43838202E0838A8B4383824B
:1008C0007047000010B58CB001210846FFF7F2FD1B
:1008D00001210220FFF7EEFD00200490102003907C
:1008E00000200B900890802006900020099007902F
:1008F00005904FF480500A9000241BE0234850F8E4
:100900002400001D0190224800EB8410401C02903E
:10091000204951F8240001A9FFF7D9FC1B4951F8DF
:10092000240001228021FFF7C3FF0220FFF794FC7F
:10093000601CC4B2032CE1DB01208DF80300082009
:100940008DF8010000208DF802000E208DF80000C7
:100950006846FFF76BFD11208DF800006846FFF731
:1009600065FD0C208DF800006846FFF75FFD002450
:1009700008E0084951F8240001220221FFF79EFCFB
:10098000601CC4B2032CF4DB0CB010BD300000209E
:100990006C0100203C00002008B501210420FFF775
:1009A000A9FD01210820FFF7A5FD18208DF80300FF
:1009B00003208DF802004FF40170ADF80000694685
:1009C0000F48FFF7A3FC4FF48060ADF800006946C4
:1009D0000C48FFF79BFC04208DF803004FF4816066
:1009E000ADF8000069460648FFF790FC4FF4006040
:1009F000ADF8000069460348FFF788FC08BD000019
:100A000000080140000C014070B50246002400239C
:100A10000025002040F66A16B14200D100BFC1F3A4
:100A2000421501F01F03012606FA03F3012D02D13E
:100A30009689334006E0022D02D1168A334001E048
:100A4000968A33400C12012606FA04F416883440C4
:100A500013B10CB1012000E0002070BDF0B50346D9
:100A6000002400260025002040F66A17B94200D174
:100A700000BF1846C1F3421401F01F06012707FA10
:100A800006F5012C01D10C3004E0022C01D110300C
:100A900000E014301AB107682F43076002E00768CE
:100AA000AF430760F0BD00002DE9F04786B0054672
:100AB0000E460024A24600BFA1460027B08900B11F
:100AC00000BF2F462C8A4CF6FF700440F088044388
:100AD0002C82AC894EF6F3100440B088318908436B
:100AE000718908430443AC81AC8A4FF6FF4004404F
:100AF000B0890443AC8201A8FFF70CFD1F48874270
:100B000002D1DDF810A001E0DDF80CA0A88900F406
:100B1000004040B10AEBCA0000EB0A1031684900FE
:100B2000B0FBF1F807E00AEBCA0000EB0A103168ED
:100B30008900B0FBF1F86420B8FBF0F00401200953
:100B4000642101FB1089A88900F4004040B13220E3
:100B500000EBC900B0FBF1F000F00700044308E02F
:100B6000322000EB09106421B0FBF1F000F00F001F
:100B700004432C8106B0BDE8F08700000038014036
:100B800008B501208DF803008DF8010000208DF8D4
:100B9000020025208DF800006846FFF747FC26205C
:100BA0008DF800006846FFF741FC27208DF8000013
:100BB0006846FFF73BFC012240F225510F48FFF742
:100BC0004DFF012240F225510D48FFF747FF01225A
:100BD00040F225510B48FFF741FF40F225510748ED
:100BE000FFF71EFE40F225510548FFF719FE40F2BF
:100BF00025510448FFF714FE08BD000000380140ED
:100C0000004400400048004001468888C0F30800C6
:100C1000704700BFFEE7704702E008C8121F08C116
:100C2000002AFAD170477047002001E001C1121F6D
:100C3000002AFBD1704700001CB54FF44070FFF74D
:100C40002DFCFFF7A3FA0648006805210023402287
:100C5000CDE9001003A1054800F08AFA00BFFEE7C5
:100C60002C0000205465737400000000170C00086D
:100C700010B5044600F026FA23480068401C2249BB
:100C800008602248006840B92048046008460068AF
:100C900001280DD100F0CAF80AE01D48006838B9F3
:100CA0001A480068C06AE16A884201D8174804609F
:100CB00018480068401C1749086094F82C1001205F
:100CC000884015490968084313490860E16A01EB47
:100CD0008101124A02EB8100211D00F0E7F900F0CA
:100CE00003FA0B48006868B108480068C06AE16A06
:100CF000884207D24FF0805009490860BFF34F8FF8
:100D0000BFF36F8F10BD00007C0000206C0000203E
:100D10008800002098000020840000202C4600203D
:100D200004ED00E030B54FF48843174800F00704A5
:100D30002CB1C01D20F00700134C041B1B1B0246E6
:100D4000124C22600024114D6C60D018083820F03D
:100D500007000F4C206000240D4D2D686C600C4D79
:100D60002D682C601146441A4C60094C24680C60B4
:100D7000084D4C682C60084D4C682C604FF00044C6
:100D8000064D2C6030BD00002C0200204C000020DD
:100D9000540000205C000020580000206800002063
:100DA0002DE9FF5F80460E469146DDE90E7A109CE4
:100DB000A9F10100216B01EB800B2BF0070B86B131
:100DC000002507E0715D04F134004155705D00B904
:100DD00002E06D1C102DF5D300BF0021432001550A
:100DE00002E0002084F83400052F00D30427E762D6
:100DF000201D00F058F904F1180000F054F92461A6
:100E0000C7F10500A06164620020606484F84800B6
:100E100041465846039A00F013F92060BAF1000FDA
:100E200001D0CAF80040BDE8FF9F000010B50024C3
:100E300007E004EB84010F4A02EB810000F026F981
:100E4000641C052CF5D30C4800F020F90B4800F089
:100E50001DF90B4800F01AF90A4800F017F90A4882
:100E600000F014F90448094908600448084908607A
:100E700010BD00002C46002090460020A446002013
:100E8000B8460020CC460020E0460020700000203C
:100E90007400002010B50146164800E000680368A1
:100EA0008B42FBD30246436813448B4204D1436810
:100EB0004C682344436001460A464B681344046867
:100EC000A34211D10C4C03682468A34208D04B689C
:100ED0000468646823444B6003681B680B6005E08A
:100EE000054B1B680B6001E003680B60884200D073
:100EF000016010BD4C00002054000020094800682B
:100F0000006808B9012000E0002020B14FF0FF3058
:100F10000549086005E003480068C06800680249A8
:100F200008607047700000209C00002000BFBF20B8
:100F300080F31188BFF34F8FBFF36F8F00BF00BFE7
:100F4000FEE700002DE9F04104464FF0000800F0F4
:100F500007F93548006808B9FFF7E4FE3348006830
:100F6000204000285BD1B4B104F10800A04212D99E
:100F7000083404F0070078B104F00700C0F108005D
:100F80002044A04205D904F00700C0F10800044441
:100F900002E0002400E00024002C40D02448006837
:100FA00084423CD8234E3046056801E02E462D6829
:100FB0006868A04202D228680028F7D11A48006861
:100FC00085422CD0306800F10808286830606868D5
:100FD000001B102807D92F196868001B78606C6007
:100FE0003846FFF757FF124968680968081A104920
:100FF00008600846006810490968884203D20C4816
:1010000000680D4908600949686809680843686014
:101010000020286009480068401C0849086000F06A
:1010200065F94046BDE8F0815400002068000020CA
:10103000580000204C0000205C00002060000020D0
:10104000001F4FF080730360001F21F00103036055
:10105000001F034B03601438026020387047000003
:101060002D0F000801460A69D1E901309860D1E9E5
:10107000010358605068884201D1886850600020A0
:1010800008611068401E10601068704700F1080188
:1010900041604FF0FF31816000F10801C1600161E2
:1010A00000210160704700210161704742684A6079
:1010B00093688B60936859609160086103685B1C5A
:1010C0000360704700BFBF2080F31188BFF34F8FCC
:1010D000BFF36F8F00BF03480068401C01490860E0
:1010E000704700004800002006480068401E05497F
:1010F00008600846006820B9002080F3118800BF0E
:1011000000BF70474800002070B506463546FEB166
:10111000083D2C460F49606809680840C0B1206846
:10112000B0B90C49606809688843606000F018F83D
:101130000949606809680844074908602046FFF7C4
:10114000A9FE06480068401C0449086000F0CEF87B
:1011500070BD0000680000205800002064000020DE
:1011600002480068401C014908607047A800002040
:101170002DE9FF4F85B0804689461746DDE912AB61
:10118000B800FFF7DFFE064656B14C20FFF7DAFE47
:1011900004460CB1266304E03046FFF7B5FF00E0DB
:1011A00000247CB10020CDE900ABCDE902403A46F5
:1011B00049464046089BFFF7F3FD2046FFF758FDE0
:1011C000012501E04FF0FF35284609B0BDE8F08F5A
:1011D0002DE9F04100273A480068002867D13948D6
:1011E0000068451C374805608DB93748D0F8008045
:1011F00036480068344908603448C0F800803448F4
:101200000068401C32490860FFF778FE00BF314893
:10121000006885423BD300BF2B480068006808B9CE
:10122000012000E0002020B14FF0FF302949086084
:101230002CE025480068C068C4686668B54202D2E0
:101240002448066022E0201DFFF70CFFA06A18B1B9
:1012500004F11800FFF706FF94F82C1001208840D5
:101260001D49096808431C490860E16A01EB8101D6
:101270001A4A02EB8100211DFFF718FF1849E06AA6
:101280000968C96A8842C7D30127C5E700BF144867
:101290000068C06A00EB8000104951F82000012866
:1012A00000D901270F48006800B1012704E00E486B
:1012B0000068401C0C4908603846BDE8F081000019
:1012C000A800002080000020700000207400002092
:1012D000940000209C000020840000202C46002068
:1012E0006C000020900000208C00002070B50024CD
:1012F0000026FFF7E7FE2E480068401E2C490860D4
:101300000846006800284FD12A48006800284BD0C2
:1013100024E02948C068C46804F11800FFF7A2FE61
:10132000201DFFF79FFE94F82C10012088402349D0
:101330000968084321490860E16A01EB8101204AFC
:1013400002EB8100211DFFF7B1FE1E49E06A09682A
:10135000C96A884202D301201B4908601648006808
:1013600008B9012000E000200028D2D00CB1FFF71E
:10137000C5FD1648056865B100BFFFF729FF10B12C
:101380000120114908606D1E002DF6D100200F4983
:1013900008600D48006838B1012630070C49086024
:1013A000BFF34F8FBFF36F8FFFF79EFE304670BDC8
:1013B000A80000207C000020B84600208400002007
:1013C0002C4600206C000020900000208C000020A3
:1013D00004ED00E0F413000800000020AC00000061
:1013E000180C0008A0140008AC0000204C4A0000B3
:1013F000280C00080000000001020304010203049D
:1014000006070809020406080038014000440040AD
:101410000048004044000240800002401C0002409E
:101420000000000000380140004400400048004037
:1014300044000240800002401C000240AAAAAAAA5E
:10144000000000000000000000000000000000009C
:10145000000000000000000000000000000000008C
:10146000000000000000000000000000000000007C
:10147000000000000000000000000000000000006C
:10148000000000000000000000000000000000005C
:101490000000000000000000040000000000000048
:0400000508000131BD
:00000001FF
