:020000040800F2
:10000000900B0020DD010008D104000885040008E1
:10001000CD040008810200083D0B0008000000002C
:100020000000000000000000000000004501000882
:10003000650300080000000089010008A90C000801
:10004000F7010008F7010008F7010008F7010008B0
:10005000F7010008F7010008F7010008F7010008A0
:10006000F7010008F7010008F7010008F701000890
:1000700085020008F7010008B5020008F701000832
:10008000F7010008E9020008F7010008F70100087D
:10009000F7010008F7010008F7010008F701000860
:1000A000F7010008F7010008F7010008F701000850
:1000B000F7010008F7010008F7010008F701000840
:1000C000F7010008F7010008F7010008F701000830
:1000D000F7010008F90900085D0A0008910A000804
:1000E000F7010008F7010008F7010008F701000810
:1000F000F7010008F7010008F7010008F701000800
:10010000F7010008F7010008F7010008F7010008EF
:10011000F7010008F7010008F7010008F7010008DF
:10012000F7010008F7010008F7010008F7010008CF
:10013000DFF80CD000F064F800480047710B0008AD
:10014000900B0020224B19680868B0E8F00F80F38C
:100150000988BFF36F8F4FF0000080F311884EF0D5
:100160000D0E70470000000006480068006880F32C
:10017000088862B661B6BFF34F8FBFF36F8F00DFA1
:1001800000BF00BF08ED00E0EFF30980BFF36F8F01
:100190000F4B1A6820E9F00F106008B54FF0BF0050
:1001A00080F31188BFF34F8FBFF36F8F00F04CFDCA
:1001B0004FF0000080F31188BDE808401968086816
:1001C000B0E8F00F80F30988BFF36F8F704700BF6E
:1001D00028000020EFF305807047000006488047A4
:1001E00006480047FEE7FEE7FEE7FEE7FEE7FEE71C
:1001F000FEE7FEE7FEE7FEE785090008310100089B
:10020000064C074D06E0E06840F0010394E8070063
:1002100098471034AC42F6D3FFF78EFF541600080F
:100220007416000838B50121082000F001FB0121F7
:10023000402000F0FDFA10208DF8030003208DF817
:100240000200002411E00A4830F83400ADF8000044
:10025000074901EBC4014868694600F084F80121B0
:10026000204600F011F9601CC4B2022CEBDB38BD53
:100270001800002010B500F047F900F071F910BD2A
:1002800000BFFEE710B5202000F056F801280ED17F
:10029000032000F0A7FB0648806800684FF6FE7157
:1002A0000840034989680860202000F037F810BD35
:1002B0000C00002010B54FF4005000F03DF801286C
:1002C0000ED100F08FFB0748006800684FF6FE7102
:1002D00008400449096808604FF4005000F01EF817
:1002E00010BD00000C00002010B54FF0007000F0B1
:1002F00023F801280FD1022000F074FB0648406863
:1003000000684FF6FE7108400349496808604FF0E5
:10031000007000F003F810BD0C00002000F08051C8
:1003200011B10349086001E00249486070470000CC
:10033000040402400000024001460020002201F0B7
:10034000805313B1054B1A6801E0054B1A6802EAA5
:1003500001030BB1012000E00020704700040240BF
:100360000000024070472DE9F041024600250026BA
:10037000002000230024002791F803C00CF00F0593
:1003800091F803C00CF0100CBCF1000F03D091F8F1
:1003900002C04CEA050591F800C0BCF1000F31D055
:1003A000146800202BE04FF0010C0CFA00F3B1F8B8
:1003B00000C00CEA03069E4220D183004FF00F0CD0
:1003C0000CFA03F7BC4305FA03FC4CEA040491F869
:1003D00003C0BCF1280F06D14FF0010C0CFA00FC51
:1003E000C2F814C00AE091F803C0BCF1480F05D16F
:1003F0004FF0010C0CFA00FCC2F810C0401C082899
:10040000D1D31460B1F800C0BCF1FF0F34DD5468E3
:1004100000202EE000F1080C4FF0010808FA0CF360
:10042000B1F800C00CEA03069E4221D183004FF0D0
:100430000F0C0CFA03F7BC4305FA03FC4CEA040466
:1004400091F803C0BCF1280F05D100F1080C08FA9F
:100450000CF8C2F8148091F803C0BCF1480F07D122
:1004600000F1080C4FF0010808FA0CF8C2F81080EF
:10047000401C0828CED35460BDE8F081416170472C
:100480000161704700BFFEE771B10F4A02EBC00285
:10049000526812690C4B33F830301A430A4B03EBA5
:1004A000C0035B681A610DE0074A02EBC0025268A4
:1004B0005269054B33F830301A43034B03EBC0034A
:1004C0005B685A61704700001800002000BFFEE71B
:1004D000704710B500F004F800F058F810BD0000A7
:1004E00000200CE0002106E00022064B03EBC013C5
:1004F0005A544A1CD1B28029F6DB421CD0B20828DB
:10050000F0DB7047E801002038B50121202000F021
:100510008FF90121080200F08BF910208DF80300FB
:1005200003208DF80200002415E00C4830F8340058
:10053000ADF80000094901EBC40148686946FFF7BE
:1005400012FF064A32F8341002EBC4025068FFF77B
:1005500097FF601CC4B2052CE7DB38BDF80D00081E
:1005600010B5022000F028F84FF4FA7000F036FBC6
:10057000022000F06FF800221C21034800F057F819
:10058000FFF7A7FF10BD0000200E000810B50024E3
:100590000CE00021204600F06BF8064901EBC41086
:1005A0000122802100F043F8601CC4B2082CF0DB6B
:1005B00010BD0000E801002010B50446044A32F8DE
:1005C000341002EBC4025068FFF758FF10BD000062
:1005D000F80D000870B504460D461DB1032000F06B
:1005E00039F802E00320FFF7E7FF0420FFF7E4FFFC
:1005F000002613E00020FFF7DFFF04F0800018B1B1
:10060000012000F027F802E00120FFF7D5FF600687
:10061000040E002000F01EF8701CC6B2082EE9DBA4
:10062000032000F017F8042000F014F870BD2DE945
:10063000F04104460D461646002706E02078314674
:10064000FFF7C8FF641C781CC7B2AF42F6DBBDE8F9
:10065000F081000010B50446044A32F8341002EB71
:10066000C4025068FFF70CFF10BD0000F80D000831
:1006700070B505460C4605F1B001C8B20021FFF780
:10068000A9FF04F0F001102242EA21100021FFF737
:10069000A1FF04F00F000021FFF79CFF70BD0000D8
:1006A000F0B504460D46012B02D0022B32D113E0E7
:1006B00000200EE0A2F1200101EB4101174E06EBF4
:1006C0004101095C164E06EBC4162F18F155411C6A
:1006D000C8B20628EEDB1EE0002018E0002112E080
:1006E000A2F120060F4F07EB061601EBC007F65DDF
:1006F0000719DFF82CC00CEBC71705EB010C07F846
:100700000C604E1CF1B20829EADB411CC8B2022879
:10071000E4DB00E000BF00BFF0BD00003C0E0008BD
:10072000E8010020641000082DE9FE4380460E46D3
:1007300014461F464FF00009002C16DA3B462D22C6
:1007400031464046FFF7ACFF012F02D0022F07D100
:1007500002E0B01DC6B204E006F10800C6B200E037
:1007600000BF00BF4FF0010964424CB300200FE00E
:100770000A2294FBF2F302FB134291B201F1300220
:10078000D2B20DF800200A2294FBF2F4401C00BF04
:10079000002CEDD100230146401E0DF80130C5B2FA
:1007A000002109E01DF801201DF800300DF801308E
:1007B0000DF80020401E491C421A002AF2DC06E017
:1007C000012530208DF8000000208DF801003B4607
:1007D0006A463146404600F008F8B9F1000F01D0F2
:1007E000681CC5B22846BDE8FE832DE9F04180466D
:1007F0000E4614461F46002515E022787019C1B236
:100800003B464046FFF74CFF012F02D0022F07D195
:1008100002E0A81DC5B204E005F10800C5B200E081
:1008200000BF00BF641C20780028E6D1BDE8F0813D
:1008300029B1064A92690243044B9A6104E0034AD3
:1008400092698243014B9A61704700000010024098
:1008500010B5421E104B03EB821212783F2A14DAB5
:10086000421E03EB82130C4C04EB82121278521CD2
:100870009954421E234603EB82121278521CD3B2C3
:10088000421E04EB8212137005E04023421E024C0C
:1008900004EB8212137010BD6800002010B500F048
:1008A00001F810BD0CB5002001900090334800689D
:1008B00040F480303149086000BF3048006800F4DF
:1008C000003000900198401C0190009818B90198E0
:1008D000B0F5A06FF1D12948006800F4003010B1E4
:1008E0000120009001E0002000900098012843D1F1
:1008F0002348006840F0100021490860084600685D
:1009000020F0030008600846006840F0020008601C
:100910001A484068194948600846406848600846D7
:10092000406840F4806048600846406820F47C10CD
:1009300048600846406840F4E8104860084600688F
:1009400040F08070086000BF0C48006800F0007044
:100950000028F9D00948406820F0030007494860A2
:100960000846406840F00200486000BF0348406805
:1009700000F00C000828F9D10CBD00000010024066
:100980000020024010B51348006840F001001149F2
:10099000086008464068104908400E49486008460B
:1009A00000680E4908400B4908600846006820F4BA
:1009B000802008600846406820F4FE0048604FF43C
:1009C0001F008860FFF76AFF4FF00060044908606D
:1009D00010BD0000001002400000FFF8FFFFF6FE0F
:1009E00008ED00E00022411E024B03EB81110A706A
:1009F000704700002801002038B50020009040F228
:100A00002551144800F06BF8012821D1114800F05D
:100A100090F8C4B221460120FFF71AFF012000F030
:100A20008FF80446012000F08BF80078205C0A283B
:100A300009D1684638B14FF0805007490860BFF3CC
:100A40004F8FBFF36F8F40F22551024800F038F806
:100A500038BD00000038014004ED00E010B540F260
:100A60002551094800F03BF801280CD1074800F057
:100A700060F8C4B221460220FFF7EAFE40F2255199
:100A8000024800F01DF810BD00380140004400404D
:100A900010B540F22551094800F021F801280CD189
:100AA000064800F046F8C4B221460320FFF7D0FE06
:100AB00040F22551014800F003F810BD0048004005
:100AC00010B50022002340F66A14A14200D100BFF5
:100AD0000A1201249440A3B2DC43048010BD70B517
:100AE0000246002400230025002040F66A16B14289
:100AF00000D100BFC1F3421501F01F03012606FA21
:100B000003F3012D02D19689334006E0022D02D174
:100B1000168A334001E0968A33400C12012606FA09
:100B200004F41688344013B10CB1012000E0002019
:100B300070BD01468888C0F30800704700BFFEE71B
:100B40000146481E014A02EB8010704768000020F1
:100B500002E008C8121F08C1002AFAD17047704786
:100B6000002001E001C1121F002AFBD170470000E4
:100B7000FFF780FBFFF756FB0223412200210846C6
:100B8000FFF78EFD02230C2208210020FFF7CCFD89
:100B9000022304A200211846FFF727FEFFF7F6FC08
:100BA00000BFFEE754657374000000000948006848
:100BB000006808B9012000E0002020B14FF0FF30AC
:100BC0000549086005E003480068C06800680249FC
:100BD000086070472C0000205800002000B5034634
:100BE00004E04FF47A7000F004F85B1E002BF8D19B
:100BF00000BD06E0482101E04A1E91B20029FBD168
:100C0000401E0028F6D1704701460A69D1E901303B
:100C10009860D1E9010358605068884201D1886822
:100C20005060002008611068401E10601068704716
:100C300042684A6093688B6093685960916008616C
:100C400003685B1C036070471248006818B10120FC
:100C5000114908601DE000200F4908600F48006836
:100C6000B0FA80F0C0F11F0101EB81020C4B03EBE5
:100C7000820042685268426000F108024368934271
:100C800002D14268526842604268D268054B1A60DD
:100C900000BF7047640000204C000020400000208E
:100CA000E80500202800002010B500BFBF2080F319
:100CB0001188BFF34F8FBFF36F8F00BF00F00EF8A6
:100CC00018B14FF080500449086000BF002080F345
:100CD000118800BF10BD000004ED00E02DE9F041D7
:100CE00000273A480068002867D139480068451C49
:100CF000374805608DB93748D0F80080364800681D
:100D0000344908603448C0F8008034480068401C0A
:100D100032490860FFF74AFF00BF3148006885424A
:100D20003BD300BF2B480068006808B9012000E0F1
:100D3000002020B14FF0FF30294908602CE0254801
:100D40000068C068C4686668B54202D2244806607C
:100D500022E0201DFFF758FFA06A18B104F1180027
:100D6000FFF752FF94F82C10012088401D490968B4
:100D700008431C490860E16A01EB81011A4A02EB51
:100D80008100211DFFF754FF1849E06A0968C96A0C
:100D90008842C7D30127C5E700BF14480068C06A6E
:100DA00000EB8000104951F82000012800D90127EC
:100DB0000F48006800B1012704E00E480068401C9D
:100DC0000C4908603846BDE8F0810000640000204E
:100DD0003C0000202C0000203000002050000020AB
:100DE0005800002040000020E805002028000020D6
:100DF0004C000020480000200002000000140140C8
:100E00000008000000140140002000000014014010
:100E10000080000000140140080000000020014094
:100E2000AE00104081CFA1C8A6A83FD300D580D97D
:100E3000F1DA12DB4020028D14A4A6AF00000000FE
:100E400000000000002F0000000007000700001451
:100E50007F147F1400242A7F2A120062640813235F
:100E600000364955225000000503000000001C22F6
:100E70004100000041221C000014083E0814000834
:100E8000083E0808000000A06000000808080808E4
:100E9000000060600000002010080402003E51497C
:100EA000453E0000427F400000426151494600211A
:100EB00041454B31001814127F1000274545453934
:100EC000003C4A494930000171090503003649498F
:100ED000493600064949291E000036360000000048
:100EE0005636000000081422410000141414141493
:100EF000000041221408000201510906003249593C
:100F0000513E007C1211127C007F49494936003E57
:100F100041414122007F4141221C007F4949494112
:100F2000007F09090901003E4149497A007F08080C
:100F3000087F0000417F4100002040413F01007FC9
:100F400008142241007F40404040007F020C027F95
:100F5000007F0408107F003E4141413E007F0909A7
:100F60000906003E4151215E007F091929460046CD
:100F7000494949310001017F0101003F4040403FA4
:100F8000001F2040201F003F4038403F00631408EE
:100F900014630007087008070061514945430000C9
:100FA0007F41410000552A552A55000041417F00EC
:100FB00000040201020400404040404000000102E1
:100FC0000400002054545478007F484444380038CA
:100FD0004444442000384444487F00385454541852
:100FE00000087E0901020018A4A4A47C007F080464
:100FF00004780000447D4000004080847D00007F34
:10100000102844000000417F4000007C0418047850
:10101000007C0804047800384444443800FC24244C
:1010200024180018242418FC007C08040408004834
:101030005454542000043F444020003C4040207C55
:10104000001C2040201C003C4030403C0044281044
:101050002844001CA0A0A07C004464544C441414F8
:101060001414141400000000000000000000000030
:1010700000000000000000F8000000000000003345
:101080000000000000100C02100C02000000000024
:10109000000000000040C07840C0780000043F0419
:1010A000043F040000708888FC08300000182020ED
:1010B000FF211E00F008F0806018000000310C03D2
:1010C0001E211E0000F00888700000001E21232C45
:1010D0001927211000120E0000000000000000007F
:1010E00000000000000000E01804020000000007FB
:1010F0001820400000020418E00000000040201802
:1011000007000000404080F0804040000202010FD4
:101110000102020000000000E000000000010101E7
:101120000F010101000000000000000000907000AD
:1011300000000000000000000000000000010101AC
:10114000010101000000000000000000003030003C
:101150000000000000000000C03804000060180714
:101160000000000000E010080810E000000F102050
:1011700020100F0000001010F800000000002020D8
:101180003F202000007008080808F00000302824E4
:101190002221300000300808088870000018202143
:1011A00021221C000000804030F8000000060524C9
:1011B000243F242400F8888888080800001920208B
:1011C00020110E0000E0108888900000000F112010
:1011D00020201F0000180808886818000000003E42
:1011E000010000000070880808887000001C22219F
:1011F00021221C0000F008080810E0000001122263
:1012000022110F00000000C0C000000000000030EC
:10121000300000000000008000000000000000E03E
:1012200000000000000080402010080000010204BF
:1012300008102000004040404040400000020202F0
:101240000202020000081020408000000020100868
:101250000402010000704808088870000000003097
:1012600037000000C030C828E810E0000718272821
:101270002F2817000000C038E0000000203C2302A7
:101280000227382008F8888888700000203F202036
:1012900020110E00C0300808080838000718202068
:1012A0002010080008F808080810E000203F20205F
:1012B00020100F0008F88888E8081000203F202040
:1012C0002320180008F88888E8081000203F200034
:1012D00003000000C030080808380000071820206C
:1012E000221E020008F808000008F808203F21012B
:1012F00001213F20000808F8080800000020203FD6
:101300002020000000000808F8080800C080808045
:101310007F00000008F888C028180800203F20013E
:101320002638200008F8080000000000203F202098
:101330002020300008F8F800F8F80800203F013EAF
:10134000013F200008F830C00008F808203F2000C6
:1013500007183F00E01008080810E0000F102020D8
:1013600020100F0008F808080808F000203F2101AD
:1013700001010000E01008080810E0000F10282804
:1013800030504F0008F8888888887000203F20007F
:10139000030C30200070880808083800003820212D
:1013A00021221C00180808F8080818000000203F37
:1013B0002000000008F808000008F808001F20209E
:1013C00020201F000878880000C83808000007386F
:1013D0000E01000008F800F800F8080000033E01C4
:1013E0003E030000081868808068180820302C032D
:1013F000032C30200838C800C83808000000203FFF
:101400002000000010080808C838080020382621ED
:1014100020201800000000FE020202000000007FF1
:1014200040404000000438C00000000000000001FF
:101430000638C00000020202FE00000000404040EA
:101440007F00000000000402020400000000000011
:10145000000000000000000000000000808080808C
:101460008080808000020204000000000000000074
:10147000000000000000808080000000001924248B
:10148000123F200010F0008080000000003F11207B
:1014900020110E000000008080800000000E11204E
:1014A00020201100000080808090F000001F20208C
:1014B00020103F200000808080800000001F242436
:1014C00024241700008080E0909020000020203F1E
:1014D000202000000000808080808000006B9494B9
:1014E0009493600010F0008080800000203F210075
:1014F00000203F2000809898000000000020203F3E
:1015000020200000000000809898000000C080802B
:10151000807F000010F0000080808000203F2406C3
:1015200029302000001010F8000000000020203FAB
:10153000202000008080808080808000203F20006C
:101540003F20003F8080008080800000203F2100FD
:1015500000203F200000808080800000001F2020AD
:1015600020201F00808000808000000080FF9120EC
:1015700020110E000000008080008000000E11206D
:101580002091FF80808080008080800020203F218B
:10159000200001000000808080808000003324242F
:1015A00024241900008080E0808000000000001FDB
:1015B000202010008080000000808000001F20207C
:1015C00020103F20808080008080800000030C304D
:1015D0000C0300008080008080008080010E300CB1
:1015E0000738060100808080008080000020310ED6
:1015F0002E312000808080000080808000818678ED
:101600001806010000808080808080000021302C3E
:10161000222130000000000000FC02020000000057
:10162000013E404000000000FF00000000000000FC
:10163000FF0000000202FC000000000040403E01EC
:10164000000000000002010202040200000000008D
:101650000000000074160008000000206800000070
:10166000500B0008DC16000868000020280B000062
:10167000600B000800380140004400400048004072
:1016800044000240800002401C0002402000000094
:10169000000C014020000000001801400000000084
:1016A000000000000000000000000000000000003A
:1016B000000000000000000000000000000000002A
:1016C000000000000000000000000000000000001A
:0C16D000000000000F00000000000000FF
:0400000508000131BD
:00000001FF
