:020000040800F2
:1000000078720020DD01000811070008BB05000818
:100010000D0700084D0300080B1600080000000043
:100020000000000000000000000000004501000882
:100030009B04000800000000890100088D1F0008D3
:10004000F7010008F7010008F7010008F7010008B0
:10005000F7010008F7010008F7010008F7010008A0
:10006000F7010008F7010008F7010008F701000890
:1000700051030008F701000881030008F701000898
:10008000F7010008B5030008F7010008F7010008B0
:10009000F7010008F7010008F7010008F701000860
:1000A000F7010008F7010008F7010008F701000850
:1000B000F7010008F7010008F7010008F701000840
:1000C000F7010008F7010008F7010008F701000830
:1000D000F70100083111000895110008C911000846
:1000E000F7010008F7010008F7010008F701000810
:1000F000F7010008F7010008F7010008F701000800
:10010000F7010008F7010008F7010008F7010008EF
:10011000F7010008F7010008F7010008F7010008DF
:10012000F7010008F7010008F7010008F7010008CF
:10013000DFF80CD000F064F800480047BD16000856
:1001400078720020224B19680868B0E8F00F80F33D
:100150000988BFF36F8F4FF0000080F311884EF0D5
:100160000D0E70470000000006480068006880F32C
:10017000088862B661B6BFF34F8FBFF36F8F00DFA1
:1001800000BF00BF08ED00E0EFF30980BFF36F8F01
:100190000F4B1A6820E9F00F106008B54FF0BF0050
:1001A00080F31188BFF34F8FBFF36F8F01F0A4FE70
:1001B0004FF0000080F31188BDE808401968086816
:1001C000B0E8F00F80F30988BFF36F8F704700BF6E
:1001D00010070020EFF305807047000006488047B5
:1001E00006480047FEE7FEE7FEE7FEE7FEE7FEE71C
:1001F000FEE7FEE7FEE7FEE7090F00083101000811
:10020000064C074D06E0E06840F0010394E8070063
:1002100098471034AC42F6D3FFF78EFF2026000833
:100220004026000870B58D1810F8014B14F0030239
:1002300001D110F8012B231106D110F8013B03E086
:1002400010F8016B01F8016B521EF9D1ABB110F837
:10025000012B04F00C048A1A0C2C03D0A2EB84129C
:100260009B1C08E010F8014BA2EB0422F8E712F8FF
:10027000014B01F8014B5B1EF9D5A942D4D30020F4
:1002800070BD000038B50121402000F017FD482066
:100290008DF8030000240DE0084830F83400ADF874
:1002A0000000064901EBC4014868694600F0F6F811
:1002B000601CC4B2022CEFDB38BD0000CC0600206D
:1002C00038B50121082000F0F9FC0121402000F0A0
:1002D000F5FC10208DF8030003208DF802000024A7
:1002E00011E00A4830F83400ADF80000074901EB8E
:1002F000C4014868694600F0D1F80121204600F0A9
:1003000095F9601CC4B2022CEBDB38BDDC06002082
:1003100010B500F017FB00F041FB10BD10B501F067
:1003200027F800F085FF01F023F900F0B7FF002463
:1003300007E0054951F82400012100F06CFF601C22
:10034000C4B2032CF5DB10BD7006002000BFFEE731
:1003500010B5202000F064F801280ED1032000F031
:10036000DDFE0648806800684FF6FE7108400349CC
:1003700089680860202000F045F810BD6406002060
:1003800010B54FF4005000F04BF801280ED100F0EA
:10039000C5FE0748006800684FF6FE710840044932
:1003A000096808604FF4005000F02CF810BD000000
:1003B0006406002010B54FF0007000F031F80128FD
:1003C0000FD1022000F0AAFE0648406800684FF6F0
:1003D000FE7108400349496808604FF0007000F062
:1003E00011F810BD6406002000F0805111B10349DE
:1003F000086001E0024948607047000004040240C0
:100400000000024000F0805111B10349086001E092
:1004100002494860704700000404024000000240A6
:1004200001460020002201F0805313B1054B1A68E9
:1004300001E0054B1A6802EA01030BB1012000E05C
:100440000020704700040240000002401AB1036817
:100450000B43036002E003688B430360704710B5F1
:100460000022026847F6F0739A430C6A8B682343B4
:100470000C6923434C6923438C692343CC69234390
:100480004C6A23438C6A23431A430260CB6843605F
:100490000B6883604B68C36010BD70472DE9F04165
:1004A000024600250026002000230024002791F8A2
:1004B00003C00CF00F0591F803C00CF0100CBCF158
:1004C000000F03D091F802C04CEA050591F800C076
:1004D000BCF1000F31D0146800202BE04FF0010C6C
:1004E0000CFA00F3B1F800C00CEA03069E4220D1DA
:1004F00083004FF00F0C0CFA03F7BC4305FA03FC22
:100500004CEA040491F803C0BCF1280F06D14FF067
:10051000010C0CFA00FCC2F814C00AE091F803C008
:10052000BCF1480F05D14FF0010C0CFA00FCC2F8E9
:1005300010C0401C0828D1D31460B1F800C0BCF131
:10054000FF0F34DD546800202EE000F1080C4FF05E
:10055000010808FA0CF3B1F800C00CEA03069E4249
:1005600021D183004FF00F0C0CFA03F7BC4305FABE
:1005700003FC4CEA040491F803C0BCF1280F05D138
:1005800000F1080C08FA0CF8C2F8148091F803C0C6
:10059000BCF1480F07D100F1080C4FF0010808FA30
:1005A0000CF8C2F81080401C0828CED35460BDE877
:1005B000F081416170470161704700BFFEE70000B4
:1005C0002FE001F0C1FD174908603E2200210846D6
:1005D00000F0E8F8002000F0EBFB0446012322467F
:1005E0000021084600F0B8FA012000F0E1FB0446C3
:1005F000012322460621002000F0AEFA0A480078C6
:10060000401C09490870084600780A2805D10020D6
:1006100000F02EF80020044908700A21014801F07A
:1006200059FDCEE7500600205406002071B10F4A54
:1006300002EBC002526812690C4B33F830301A4397
:100640000A4B03EBC0035B681A610DE0074A02EB3B
:10065000C00252685269054B33F830301A43034BDD
:1006600003EBC0035B685A6170470000DC060020A2
:10067000134901EBC0014968C968114A32F83020BA
:10068000114071B10E4901EBC001496849690C4A3A
:1006900032F8302011430A4A02EBC002526851611D
:1006A0000DE0074901EBC00149680969044A32F8C5
:1006B00030201143024A02EBC002526811617047B8
:1006C000DC06002001F040FD0C49086015E0012324
:1006D0000BA20021072000F09FFA01230A4802889C
:1006E0001E21072000F038FA07480088401C064900
:1006F00008801421014801F0EDFCE8E748060020DD
:1007000054696D653A0000004C06002000BFFEE70A
:100710007047000070B5002100230F22C47804B395
:10072000154C246804F4E064C4F5E064210AC1F1C6
:100730000403CA40447804FA03F184781440214346
:1007400009010E4C0678A155047804F01F05012418
:10075000AC4005786D11AD0005F1E025C5F800410C
:1007600009E0047804F01F050124AC40044D06782C
:10077000761145F8264070BD0CED00E000E400E085
:1007800080E100E002490143024A11607047000025
:100790000000FA050CED00E010B500F01BF800F0C9
:1007A00013F910BDF0B58B18DCB27F2C01DC0728E3
:1007B00000DDF0BD002307E00025054E06EBC01666
:1007C0005F18F5555D1CEBB29342F5DB00BFF0E717
:1007D000D408002000200CE0002106E00022064B97
:1007E00003EBC0135A544A1CD1B28029F6DB421CD9
:1007F000D0B20828F0DB7047D408002070B5154649
:100800003F2901DC7F2800DD70BD0C46CE1701EBCF
:100810005676C6F3C702CE1701EB5676F610A1EB5B
:10082000C606F3B25DB10C4C04EBC214245C012685
:100830009E403443084E06EBC21634540AE0064C80
:1008400004EBC214245C01269E40B443024E06EB26
:10085000C216345400BFD7E7D40800202DE9F04178
:1008600004460D461746984600260FE0A119C8B267
:1008700001222946FFF7C2FF05EB0802D1B2A219F7
:10088000D0B20122FFF7BAFF701CC6B2BE42EDDB48
:1008900000260EE0A819C1B201222046FFF7AEFFE4
:1008A000AA19D1B2E219D0B20122FFF7A7FF701C3A
:1008B000C6B24645EEDBBDE8F0812DE9FC4F0746A8
:1008C00088461546E978A87801EB002000F0FF097A
:1008D0006979287901EB0020C0B2019000242BE057
:1008E0002046E11704EB5171C1F3C70BE11704EB8C
:1008F0005171C910A4EBC101C9B20091002617E0E3
:100900000BFB0960801D1FFA80FA15F80A304FF0C2
:10091000800EDDF800C04EFA0CFE03EA0E0204EB76
:100920000803D9B2F319D8B2FFF768FF701CC6B23A
:100930004E45E5DB601CC4B201988442D0DBBDE8C3
:10094000FC8F000038B50121202000F0B7F901210B
:10095000080200F0B3F910208DF8030003208DF891
:100960000200002415E00C4830F83400ADF8000017
:10097000094901EBC40148686946FFF78FFD064A43
:1009800032F8341002EBC4025068FFF714FE601C0A
:10099000C4B2052CE7DB38BD8806002010B5022064
:1009A00000F028F84FF4FA7001F040F9022000F04E
:1009B0006FF800221C21034800F057F8FFF7ECFE07
:1009C00010BD0000B006002010B500240CE000218E
:1009D000204600F06BF8064901EBC410012280218B
:1009E00000F043F8601CC4B2082CF0DB10BD00001E
:1009F000D408002010B50446044A32F8341002EB43
:100A0000C4025068FFF7D5FD10BD00008806002025
:100A100070B504460D461DB1032000F039F802E020
:100A20000320FFF7E7FF0420FFF7E4FF002613E0B1
:100A30000020FFF7DFFF04F0800018B1012000F074
:100A400027F802E00120FFF7D5FF6006040E002022
:100A500000F01EF8701CC6B2082EE9DB032000F07F
:100A600017F8042000F014F870BD2DE9F041044699
:100A70000D461646002706E020783146FFF7C8FFEE
:100A8000641C781CC7B2AF42F6DBBDE8F081000001
:100A900010B50446044A32F8341002EBC402506820
:100AA000FFF789FD10BD00008806002070B50546DF
:100AB0000C4605F1B001C8B20021FFF7A9FF04F010
:100AC000F001102242EA21100021FFF7A1FF04F0FB
:100AD0000F000021FFF79CFF70BD0000F0B5044639
:100AE0000D46012B02D0022B2DD113E000200EE089
:100AF000A2F1200101EB4101144E06EB4101095C1A
:100B0000134E06EBC4162F18F155411CC8B2062827
:100B1000EEDB19E0002013E000210DE0A2F1200639
:100B20000C4F07EB061601EBC007F65D084F07EB0D
:100B3000C0177E544E1CF1B20829EFDB411CC8B22D
:100B40000228E9DB00E000BF00BFF0BDD8230008A9
:100B5000D4080020002600082DE9F04782460F4601
:100B600015469846B8F1010F03D0B8F1020F04D131
:100B700001E0062602E0082600E000BF00BF25B124
:100B8000012D09D0022D1CD10DE0434630223946FB
:100B90005046FFF7A3FF3CE043463122394650461A
:100BA000FFF79CFF35E04346312239465046FFF7B8
:100BB00095FFB819C1B2434630225046FFF78EFF69
:100BC00027E0012405E004EB84004FF6FF7101EA01
:100BD0004004AC42F7DB0A2094FBF0F084B215E04D
:100BE00095FBF4F0303000F0FF0995FBF4F004FBC6
:100BF000105085B243464A4639465046FFF76EFFCD
:100C0000B819C7B20A2094FBF0F084B2002CE7D1E7
:100C100000BF00BFBDE8F0872DE9F04180460E46D9
:100C200014461F46002515E022787019C1B23B46D4
:100C30004046FFF753FF012F02D0022F07D102E0F9
:100C4000A81DC5B204E005F10800C5B200E000BF70
:100C500000BF641C20780028E6D1BDE8F0810000C8
:100C600001F072FA0449086005E0FFF7ADFE0421C7
:100C7000014801F02FFAF8E74406002029B1064A9E
:100C800052690243044B5A6104E0034A52698243A9
:100C9000014B5A61704700000010024029B1064A1A
:100CA000D2690243044BDA6104E0034AD269824309
:100CB000014BDA61704700000010024029B1064A7A
:100CC00092690243044B9A6104E0034A92698243A9
:100CD000014B9A61704700000010024030B50021BE
:100CE0000022002400232D4D6D6805F00C0121B178
:100CF000042905D0082923D105E0294D056022E00B
:100D0000274D05601FE0254D6D6805F47012234DD9
:100D10006D6805F48034022505EB92421CB9214D23
:100D2000554305600BE01D4D6D6805F400351DB1A0
:100D30001C4D5543056002E0194D5543056002E026
:100D4000174D056000BF00BF144D6D6805F0F00140
:100D50000909154D6B5C0568DD4045600F4D6D68F8
:100D600005F4E061090A104D6B5C4568DD40856063
:100D70000A4D6D6805F46051C90A0B4D6B5C4568FE
:100D8000DD40C560054D6D6805F44041890B074D98
:100D90006B5CC568B5FBF3F5056130BD0010024022
:100DA00000127A0000093D001400002024000020F9
:100DB0000146074A02EBC10252689268044B33F8BD
:100DC00031301A400AB1002000E0012070470000D5
:100DD000CC06002010B5421E104B03EB8212127895
:100DE0003F2A14DA421E03EB82130C4C04EB8212EE
:100DF0001278521C9954421E234603EB8212127839
:100E0000521CD3B2421E04EB8212137005E0402341
:100E1000421E024C04EB8212137010BD54070020D6
:100E200010B500F001F810BD0CB500200190009045
:100E30003348006840F480303149086000BF3048D2
:100E4000006800F4003000900198401C0190009868
:100E500018B90198B0F5A06FF1D12948006800F4E5
:100E6000003010B10120009001E0002000900098B7
:100E7000012843D12348006840F010002149086050
:100E80000846006820F0030008600846006840F04B
:100E9000020008601A4840681949486008464068DE
:100EA00048600846406840F48060486008464068F2
:100EB00020F47C1048600846406840F4E810486020
:100EC0000846006840F08070086000BF0C48006869
:100ED00000F000700028F9D00948406820F00300B5
:100EE000074948600846406840F00200486000BF7B
:100EF0000348406800F00C000828F9D10CBD000040
:100F0000001002400020024010B51348006840F075
:100F100001001149086008464068104908400E4920
:100F20004860084600680E4908400B4908600846BA
:100F3000006820F4802008600846406820F4FE0025
:100F400048604FF41F008860FFF76AFF4FF00060B1
:100F50000449086010BD0000001002400000FFF8C6
:100F6000FFFFF6FE08ED00E01CB504464FF44070AC
:100F7000FFF708FCFFF7D2F9FFF7CAF9FFF782F98C
:100F8000FFF79EF9012341A200210846FFF744FE26
:100F9000FFF71AFD012341A200211846FFF73CFE8E
:100FA000012341A200210220FFF736FEFFF70CFDCE
:100FB000642000F03BFE002208210A2001F000F826
:100FC0003E4908603E48022100234022CDE900103E
:100FD0003CA13E4801F04EF83D480A210023402242
:100FE000CDE900103BA13D4801F044F83C480C21FC
:100FF00000238022CDE900103AA13B4801F03AF8E5
:101000002F48006840B13248006828B13448006871
:1010100010B12A48006870B934A000F00FFBFFF748
:10102000BBFB012333A200210846FFF7F5FDFFF7C4
:10103000CBFC00BFFEE7324A00210846FFF73DFC2B
:10104000012330A200210720FFF7E6FDFFF7BCFCDB
:101050004FF4967000F0EAFDFFF79EFB2D4A002149
:101060003F20FFF72AFC3F23402200213E20FFF7CC
:10107000F5FB002000F09CFE4FF0805026490860F0
:10108000BFF34F8FBFF36F8F1CBD00004253502042
:101090004C6F6164205041535300000066726565D7
:1010A00052544F530000000053797374656D204C07
:1010B0006F6164696E672E2E2E00000040060020CE
:1010C000340600204F4C454400000000610C00082D
:1010D000380600204D6F766500000000C506000848
:1010E0003C0600204B657900C10500084572726F0F
:1010F0000D0A0000496E69742046616C736500003A
:10110000A400002053797374656D496E69742D5085
:10111000415353002A04002004ED00E00022411E48
:10112000024B03EB81110A70704700001408002085
:1011300038B50020009040F22551144800F05DF9C8
:10114000012821D1114800F057FAC4B221460120EC
:10115000FFF740FE012000F069FA0446012000F08C
:1011600065FA0078205C0A2809D1684638B14FF04A
:10117000805007490860BFF34F8FBFF36F8F40F275
:101180002551024800F038F838BD00000038014011
:1011900004ED00E010B540F22551094800F02DF9AA
:1011A00001280CD1074800F027FAC4B221460220DA
:1011B000FFF710FE40F22551024800F01DF810BD67
:1011C000003801400044004010B540F22551094864
:1011D00000F013F901280CD1064800F00DFAC4B252
:1011E00021460320FFF7F6FD40F22551014800F0AB
:1011F00003F810BD0048004010B50022002340F65F
:101200006A14A14200D100BF0A1201249440A3B283
:10121000DC43048010BD21B1828942F400528281F6
:1012200004E082894DF6FF731A4082817047000006
:101230001FB501218803FFF741FD01214804FFF795
:101240002DFD01218804FFF729FD4FF4E1300090C6
:101250000020ADF80C000C20ADF80A000020ADF81D
:101260000800ADF80600ADF80400002407E00549C9
:1012700051F82400694600F00FF9601CC4B2032C39
:10128000F5DB1FBD700600201AB1838A0B438382F1
:1012900002E0838A8B4383827047000010B58CB0D4
:1012A00001210846FFF7EAFC01210220FFF7E6FCD6
:1012B000002004901020039000200B9008908020C4
:1012C000069000200990079005904FF480500A90F6
:1012D00000241BE0234850F82400001D0190224800
:1012E00000EB8410401C0290204951F8240001A911
:1012F000FFF7B5F81B4951F8240001228021FFF7C0
:10130000C3FF0220FFF770F8601CC4B2032CE1DBBE
:1013100001208DF8030008208DF8010000208DF8D1
:1013200002000E208DF800006846FFF7F3F9112047
:101330008DF800006846FFF7EDF90C208DF80000ED
:101340006846FFF7E7F9002408E0084951F824004F
:1013500001220221FFF77AF8601CC4B2032CF4DBEF
:101360000CB010BD70060020140800207C06002080
:1013700008B501210420FFF7A1FC01210820FFF797
:101380009DFC18208DF8030003208DF802004FF417
:101390000170ADF8000069460F48FFF77FF84FF481
:1013A0008060ADF8000069460C48FFF777F804202C
:1013B0008DF803004FF48160ADF8000069460648DF
:1013C000FFF76CF84FF40060ADF800006946034881
:1013D000FFF764F808BD000000080140000C014060
:1013E00002460020B1F5007F00D100BF13880B40FA
:1013F0000BB1012000E00020704770B502460024C8
:1014000000230025002040F66A16B14200D100BF3B
:10141000C1F3421501F01F03012606FA03F3012D63
:1014200002D19689334006E0022D02D1168A33405C
:1014300001E0968A33400C12012606FA04F416885D
:10144000344013B10CB1012000E0002070BDF0B5B4
:101450000346002400260025002040F66A17B94202
:1014600000D100BF1846C1F3421401F01F06012746
:1014700007FA06F5012C01D10C3004E0022C01D151
:10148000103000E014301AB107682F43076002E003
:101490000768AF430760F0BD2DE9F04786B0054609
:1014A0000E460024A24600BFA1460027B08900B125
:1014B00000BF2F462C8A4CF6FF700440F08804438E
:1014C0002C82AC894EF6F3100440B0883189084371
:1014D000718908430443AC81AC8A4FF6FF40044055
:1014E000B0890443AC8201A8FFF7F8FB1F4887428C
:1014F00002D1DDF810A001E0DDF80CA0A88900F40D
:10150000004040B10AEBCA0000EB0A103168490004
:10151000B0FBF1F807E00AEBCA0000EB0A103168F3
:101520008900B0FBF1F86420B8FBF0F00401200959
:10153000642101FB1089A88900F4004040B13220E9
:1015400000EBC900B0FBF1F000F00700044308E035
:10155000322000EB09106421B0FBF1F000F00F0025
:1015600004432C8106B0BDE8F0870000003801403C
:1015700008B501208DF803008DF8010000208DF8DA
:10158000020025208DF800006846FFF7C3F82620EA
:101590008DF800006846FFF7BDF827208DF80000A1
:1015A0006846FFF7B7F8012240F225510F48FFF7D0
:1015B0004EFF012240F225510D48FFF748FF01225E
:1015C00040F225510B48FFF742FF40F225510748F2
:1015D000FFF712FE40F225510548FFF70DFE40F2DD
:1015E00025510448FFF708FE08BD000000380140FF
:1015F000004400400048004001468888C0F30800CD
:101600007047C1F308028280704700BFFEE7000008
:101610000146481E044A02EB8010007808B1012000
:1016200070470020FCE70000140800200146481E17
:10163000014A02EB8010704754070020014A02491A
:1016400000F013B88D1600085007002002E008C80B
:10165000121F08C1002AFAD170477047002001E02C
:1016600001C1121F002AFBD170472DE9F041164637
:101670000F460446002503E03946B047641C6D1C44
:1016800020780028F8D12846BDE8F08170B50446DE
:101690000D4600BF0120FFF7BBFF0028FAD1A1B221
:1016A0000548FFF7AEFF00BF80210348FFF798FE13
:1016B0000028F9D0204670BD003801401CB507480D
:1016C0000F2100234022CDE9001005A1074800F0BA
:1016D000D1FC00F0D3FB00BFFEE700003006002085
:1016E00053797374656D496E69740000690F000861
:1016F0002DE9F04105460E461C4807681C48006865
:10170000001D00F0A9FA50B91948006890F82C1093
:101710000120884017490968814316480160681C08
:1017200038B936B112480168091D134800F0D2FAE1
:101730001AE07C190E4800684460BC4207D20C488D
:101740000168091D0D48006800F0AAFA0CE008487D
:101750000168091D0A48006800F0A2FA09480068FB
:10176000844201D207480460BDE8F08124070020CC
:101770001007002028070020646E002018070020B2
:10178000140700204007002010B5044600F0AEFA10
:1017900023480068401C224908602248006840B97C
:1017A000204804600846006801280DD100F022F9A5
:1017B0000AE01D48006838B91A480068C06AE16A42
:1017C000884201D81748046018480068401C17492F
:1017D000086094F82C1001208840154909680843D6
:1017E00013490860E16A01EB8101124A02EB8100B2
:1017F000211D00F06FFA00F08BFA0B48006868B109
:1018000008480068C06AE16A884207D24FF08050F9
:1018100009490860BFF34F8FBFF36F8F10BD000001
:1018200020070020100700202C0700203C07002084
:1018300028070020D46C002004ED00E010B516E06D
:1018400000F054FA0C48C068C468201D00F004FA87
:101850000A480068401E0949086009480068401E9F
:101860000749086000F054FA204600F00BF80448DD
:1018700000680028E4D110BD506E00202007002031
:101880001C07002010B50446206B00F051FA2046DA
:1018900000F04EFA10BD000030B54FF4C0431748B9
:1018A00000F007042CB1C01D20F00700134C041BEE
:1018B0001B1B0246124C22600024114D6C60D01894
:1018C000083820F007000F4C206000240D4D2D68D3
:1018D0006C600C4D2D682C601146441A4C60094C0C
:1018E00024680C60084D4C682C60084D4C682C60D6
:1018F0004FF00044064D2C6030BD0000D40C002099
:10190000F0060020F806002000070020FC0600205A
:101910000C07002000BFFFF791FF06480068012870
:10192000F9D94FF0805004490860BFF34F8FBFF3DF
:101930006F8FF0E7D46C002004ED00E02DE9F0415A
:1019400006460D4617469846069C0DB9246000E0F1
:101950002760E66325640121204600F04BFBBDE8CB
:10196000F0812DE9FF5F80460E469146DDE90E7A53
:10197000109CA9F10100216B01EB800B2BF0070BF0
:1019800086B1002507E0715D04F134004155705DBA
:1019900000B902E06D1C102DF5D300BF00214320DB
:1019A000015502E0002084F83400102F00D30F27E7
:1019B000E76267640020A064201D00F06EF904F166
:1019C000180000F06AF92461C7F11000A061646298
:1019D0000020E06484F8500041465846039A00F025
:1019E00013F92060BAF1000F01D0CAF80040BDE839
:1019F000FF9F000010B5002407E004EB84010F4AAC
:101A000002EB810000F03CF9641C102CF5D30C486B
:101A100000F036F90B4800F033F90B4800F030F9CC
:101A20000A4800F02DF90A4800F02AF9044809494B
:101A3000086004480849086010BD0000D46C00200C
:101A4000146E0020286E00203C6E0020506E002096
:101A5000646E0020140700201807002010B501460E
:101A6000164800E0006803688B42FBD302464368D7
:101A700013448B4204D143684C68234443600146BD
:101A80000A464B6813440468A34211D10C4C036806
:101A90002468A34208D04B680468646823444B6000
:101AA00003681B680B6005E0054B1B680B6001E0D9
:101AB00003680B60884200D0016010BDF006002072
:101AC000F806002009480068006808B9012000E015
:101AD000002020B14FF0FF300549086005E00348C1
:101AE0000068C06800680249086070471407002059
:101AF0004007002000BFBF2080F31188BFF34F8F45
:101B0000BFF36F8F00BF00BFFEE700002DE9F0417B
:101B100004464FF0000800F0E7F93548006808B9BE
:101B2000FFF7BAFE33480068204000285BD1B4B10B
:101B300004F10800A04212D9083404F0070078B17B
:101B400004F00700C0F108002044A04205D904F0C9
:101B50000700C0F10800044402E0002400E0002473
:101B6000002C40D02448006884423CD8234E3046A4
:101B7000056801E02E462D686868A04202D22868F8
:101B80000028F7D11A48006885422CD0306800F14F
:101B90000808286830606868001B102807D92F19CA
:101BA0006868001B78606C603846FFF757FF124981
:101BB00068680968081A10490860084600681049F2
:101BC0000968884203D20C4800680D490860094939
:101BD0006868096808436860002028600948006850
:101BE000401C0849086000F083FB4046BDE8F081D6
:101BF000F80600200C070020FC060020F00600205C
:101C00000007002004070020001F4FF080730360CE
:101C1000001F21F001030360001F034B0360143811
:101C20000260203870470000F51A000800B503462E
:101C300004E04FF47A7000F004F85B1E002BF8D13A
:101C400000BD06E0482101E04A1E91B20029FBD107
:101C5000401E0028F6D1704701460A69D1E90130DB
:101C60009860D1E9010358605068884201D18868C2
:101C70005060002008611068401E106010687047B6
:101C800000F1080141604FF0FF31816000F108016F
:101C9000C16001610021016070470021016170474E
:101CA00010B502460B685C1C0CB9106907E002F124
:101CB000080000E04068446824689C42FAD94468FF
:101CC0004C604C68A160886041600A611468641CC3
:101CD000146010BD42684A6093688B6093685960D5
:101CE0009160086103685B1C0360704700BFBF2000
:101CF00080F31188BFF34F8FBFF36F8F00BF03488E
:101D00000068401C0149086070470000EC06002094
:101D100006480068401E054908600846006820B96A
:101D2000002080F3118800BF00BF7047EC06002040
:101D300070B506463546FEB1083D2C460F49606831
:101D400009680840C0B12068B0B90C4960680968EA
:101D50008843606000F0C8F8094960680968084471
:101D6000074908602046FFF779FE06480068401CD6
:101D70000449086000F0BCFA70BD00000C070020A8
:101D8000FC0600200807002000204FF0E021086139
:101D9000886106480068C821B0FBF1F0401E4FF092
:101DA000E021486107200861704700000000002022
:101DB00070B50546FFF79AFF15B92748006800E09F
:101DC00028460446201DFFF747FF78B9E06A00EB7C
:101DD0008000224951F8200040B994F82C100120CD
:101DE00088401F49096881431D480160A06A18B1F5
:101DF00004F11800FFF730FF1A480068401C194929
:101E0000086015480068844209D1211D1648FFF773
:101E100061FF16480068401C1449086009E0144836
:101E20000068401E124908602046FFF72BFDFFF7AF
:101E300049FEFFF76DFF0F48006858B1064800687B
:101E4000844207D14FF080500B490860BFF34F8F99
:101E5000BFF36F8F70BD000010070020D46C00200E
:101E6000280700203C070020506E00201C0700209F
:101E7000200700202C07002004ED00E01CB51248CC
:101E800000210B468022CDE9001010A1114800F07E
:101E9000F1F80446012C14D100BFBF2080F3118853
:101EA000BFF34F8FBFF36F8F00BF4FF0FF300A4972
:101EB000086001200949086000200949086000F015
:101EC0004BF8084800681CBD4407002049444C45B5
:101ED0000000000015190008400700202C07002012
:101EE000240700204807002002480068401C0149E0
:101EF000086070474C0700201248006818B10120A4
:101F0000114908601DE000200F4908600F48006873
:101F1000B0FA80F0C0F11F0101EB81020C4B03EB22
:101F2000820042685268426000F1080243689342AE
:101F300002D14268526842604268D268054B1A601A
:101F400000BF70474C0700203407002028070020FE
:101F5000D46C00201007002010B50A48006840F437
:101F60007F00084908600846006840F07F4008602C
:101F7000FFF70AFF002004490860FEF7F5F800208B
:101F800010BD000020ED00E0EC06002010B500BF01
:101F9000BF2080F31188BFF34F8FBFF36F8F00BF57
:101FA00000F0D8F818B14FF080500449086000BF25
:101FB000002080F3118800BF10BD000004ED00E098
:101FC0002DE9F84305460E46174605FB06F909F1CB
:101FD0004800FFF79BFD04464CB1A04608F14808B5
:101FE0003B464246314628460094FFF7A7FC204670
:101FF000BDE8F88370B505460E462C46FFF776FE21
:10200000D4E90F12206801FB0200A0600020A06349
:1020100020686060E06B401E226C216800FB0211AA
:10202000E160FF2084F8440084F845009EB92069EF
:1020300008B9012000E00020A8B904F1100000F068
:1020400017F980B14FF0805009490860BFF34F8FF6
:10205000BFF36F8F07E004F11000FFF711FE04F1EA
:102060002400FFF70DFEFFF753FE012070BD0000B6
:1020700004ED00E02DE9FF4F85B080468946174604
:10208000DDE912ABB800FFF741FD064656B154201A
:10209000FFF73CFD04460CB1266304E03046FFF731
:1020A00047FE00E000247CB10020CDE900ABCDE983
:1020B00002403A4649464046089BFFF752FC2046FC
:1020C000FFF762FB012501E04FF0FF35284609B01C
:1020D000BDE8F08F2DE9F047044688464FF000092F
:1020E000FFF702FF16480668206800EB0805206825
:1020F000B04207D92068A8420BD9B54209D94FF0A0
:10210000010906E02068A84201D8B54201D94FF084
:1021100001092560B9F1000F03D0A81B0021FFF7CA
:10212000E7FA00F0E5F807463FB94FF0805005495F
:102130000860BFF34F8FBFF36F8F4846BDE8F0874D
:102140002407002004ED00E0014908687047000002
:10215000240700202DE9F04100273A4800680028B4
:1021600067D139480068451C374805608DB9374844
:10217000D0F8008036480068344908603448C0F818
:10218000008034480068401C32490860FFF79AFC20
:1021900000BF3148006885423BD300BF2B48006830
:1021A000006808B9012000E0002020B14FF0FF30A6
:1021B000294908602CE025480068C068C468666842
:1021C000B54202D22448066022E0201DFFF744FDFC
:1021D000A06A18B104F11800FFF73EFD94F82C1026
:1021E000012088401D49096808431C490860E16ACC
:1021F00001EB81011A4A02EB8100211DFFF76AFD04
:102200001849E06A0968C96A8842C7D30127C5E747
:1022100000BF14480068C06A00EB8000104951F804
:102220002000012800D901270F48006800B10127CC
:1022300004E00E480068401C0C4908603846BDE8C0
:10224000F08100004C070020240700201407002024
:10225000180700203807002040070020280700202A
:10226000D46C002010070020340700203007002025
:1022700070B50646F068C46804F11800FFF7ECFC7E
:1022800015480068A8B9201DFFF7E6FC94F82C104B
:102290000120884011490968084310490860E16A33
:1022A00001EB81010E4A02EB8100211DFFF712FDB7
:1022B00004E004F118010B48FFF70CFD0A49E06A3D
:1022C0000968C96A884204D90125012007490860C4
:1022D00000E00025284670BD4C070020280700209C
:1022E000D46C00203C6E0020100700203407002032
:1022F00070B500240026FFF7F9FC2E480068401E48
:102300002C4908600846006800284FD12A48006818
:1023100000284BD024E02948C068C46804F11800A4
:10232000FFF79AFC201DFFF797FC94F82C10012072
:10233000884023490968084321490860E16A01EBA4
:102340008101204A02EB8100211DFFF7C3FC1E49D9
:10235000E06A0968C96A884202D301201B49086003
:102360001648006808B9012000E000200028D2D0FB
:102370000CB1FFF7A7FB1648056865B100BFFFF772
:10238000E9FE10B10120114908606D1E002DF6D143
:1023900000200F4908600D48006838B10126300759
:1023A0000C490860BFF34F8FBFF36F8FFFF7B0FC8E
:1023B000304670BD4C070020200700203C6E0020F6
:1023C00028070020D46C00201007002034070020CC
:1023D0003007002004ED00E00000000000000000D5
:1023E000002F000000000700070000147F147F1476
:1023F00000242A7F2A1200626408132300364955FC
:10240000225000000503000000001C2241000000D3
:1024100041221C000014083E08140008083E080869
:10242000000000A0600000080808080800006060C4
:102430000000002010080402003E5149453E000003
:10244000427F4000004261514946002141454B31E5
:10245000001814127F10002745454539003C4A49B1
:102460004930000171090503003649494936000623
:102470004949291E0000363600000000563600008B
:102480000008142241000014141414140000412206
:10249000140800020151090600324959513E007CDE
:1024A0001211127C007F49494936003E41414122C8
:1024B000007F4141221C007F49494941007F0909B1
:1024C0000901003E4149497A007F0808087F000061
:1024D000417F4100002040413F01007F081422411C
:1024E000007F40404040007F020C027F007F0408D4
:1024F000107F003E4141413E007F09090906003E30
:102500004151215E007F0919294600464949493158
:102510000001017F0101003F4040403F001F20407B
:10252000201F003F4038403F006314081463000739
:102530000870080700615149454300007F41410090
:1025400000552A552A55000041417F000004020130
:10255000020400404040404000000102040000200E
:1025600054545478007F484444380038444444204C
:1025700000384444487F00385454541800087E09F9
:1025800001020018A4A4A47C007F080404780000C1
:10259000447D4000004080847D00007F102844007E
:1025A0000000417F4000007C04180478007C08048F
:1025B000047800384444443800FC242424180018CB
:1025C000242418FC007C08040408004854545420B7
:1025D00000043F444020003C4040207C001C204040
:1025E000201C003C4030403C004428102844001C83
:1025F000A0A0A07C004464544C441414141414147B
:10260000001C2040201C003C4030403C004428106E
:102610002844001CA0A0A07C0000000000000000D6
:102620004026000800000020540700002402000893
:102630004029000854070020246B00005C160008A5
:10264000500600A24A0400016009010203040607C3
:1026500008090C6110101602040608003801400039
:1026600044004000480040440002408004121C0422
:102670001300023912141C52080852200842800824
:102680002117302100200140AE00104081CFA1C8A9
:10269000A6A83FD300D580D9F1DA12DB4020028D05
:1026A00014A4A6AF2450051801401008214353007C
:1026B0000C0811101312014E0312310001300801F1
:1026C0000103030200010AA101611EB10F013901DA
:1026D0000213027D200D03F3F332F8B331E0C0079B
:1026E0001FFF012007E1C1C1C1C3E70B23FE7CF836
:1026F00012E001310F2005FFFFF8F001400AE0036E
:10270000070F1F3F7F7FFC0F140CF0F0F8FFFF7FD7
:102710007F3F1F0F0346111A111B70047F7D780144
:102720008180F303FE7D300C0FE7F13171F13060F1
:10273000C0030F624006F0C0C0C0E06D72033823D2
:10274000073F8E53FCE00F418C66FF1040040103ED
:102750000712312123C0E0911006F8F8FCFC7E87B7
:10276000123F96818096FF0C2008083C7C0F1F3E8C
:102770008E012007C4C0000606C60123C70701302A
:102780000403C3E301520301210D8404E1E1C19C70
:10279000400481C1E16521E5116C15132BE0C02BCC
:1027A000500700F8FC7C7C3C0114047CFCFC227388
:1027B000E0C07F230FFCCD530402010512ECD5B11C
:1027C000F28001D2C00162E001426001A27001000A
:1027D00006143030303838FF011E6BA24001B220A1
:1027E00001B21001C20801A2040161EA000A8002DC
:1027F00006060C0818F0C000011D8603124002DD19
:102800007E0330120404090D161925253E2151744A
:1028100064486C447CFF040D1260202123161F16AF
:102820000908040302A0180501020E1CBA100A8050
:1028300003020E100810100004C260E48012800031
:10284000D8F414B20638201C0D854024140807471C
:10285000041118031F61BD654282C14E7A2CC86500
:102860000904089A1C071C292100C040AC041AC0A6
:102870004B3C04C0300E1704573FC0B5380440FE2F
:10288000807A1E80B504C80D1804040504000405F0
:1028900000040103483808C00040C040201B071F47
:1028A000E01F27037A8F169C05D0000C0219040C38
:1028B0000A1007081020206020A04029041306F009
:1028C000B71004041827078C060080601806A103BF
:1028D00023C0A0DA1B0D1A290515E52004E020907D
:1028E00058800640030C70803730076030180C06A3
:1028F00003D1040717E01008C43C140708091401A9
:1029000003020418306080BC29A3398B200A041C00
:10291000144424141010140110072420180818104F
:10292000CF08053440C080802F0D1630060D794841
:102930000612AA010D561E039D2C05020000000080
:0400000508000131BD
:00000001FF
