:020000040800F2
:10000000B805002045010008AD030008A50300085D
:10001000A9030008C5010008070B00080000000044
:10002000000000000000000000000000AD05000816
:100030008D02000800000000350400089906000841
:100040005F0100085F0100085F0100085F01000810
:100050005F0100085F0100085F0100085F01000800
:100060005F0100085F0100085F0100085F010008F0
:10007000C90100085F010008DD0100085F010008F8
:100080005F010008F30100085F0100085F0100083C
:100090005F0100085F0100085F0100085F010008C0
:1000A0005F0100085F0100085F0100085F010008B0
:1000B0005F0100085F0100085F0100085F010008A0
:1000C0005F0100085F0100085F0100085F01000890
:1000D0005F010008FD0600082D0700086107000801
:1000E0005F0100085F0100085F0100085F01000870
:1000F0005F0100085F0100085F0100085F01000860
:100100005F0100085F0100085F0100085F0100084F
:100110005F0100085F0100085F0100085F0100083F
:100120005F0100085F0100085F0100085F0100082F
:10013000DFF80CD000F018F800480047910B0008D9
:10014000B80500200648804706480047FEE7FEE75E
:10015000FEE7FEE7FEE7FEE7FEE7FEE7FEE7FEE777
:100160009D06000831010008064C074D06E0E068D6
:1001700040F0010394E8070098471034AC42F6D3EE
:10018000FFF7DAFFB00B0008D00B000810B500F045
:100190007DFB00F019FB00F06DFC00F045FB012138
:1001A000054800F004FB0121044800F000FB012198
:1001B000034800F0FCFA10BD003801400044004044
:1001C0000048004000BFFEE710B5202000F02AF8EC
:1001D000012802D1202000F017F810BD10B54FF40F
:1001E000005000F01FF8012802D1400300F00CF885
:1001F00010BD10B54FF0007000F014F8012802D1C6
:10020000400600F001F810BD00F0805111B1034923
:10021000086001E0024948607047000004040240A1
:100220000000024001460020002201F0805313B17B
:10023000054B1A6801E0054B1A6802EA01030BB18D
:10024000012000E00020704700040240000002404E
:1002500010B50022026847F6F0739A430C6A8B6867
:1002600023430C6923434C6923438C692343CC69A2
:1002700023434C6A23438C6A23431A430260CB68AE
:1002800043600B6883604B68C36010BD70472DE905
:10029000F04102460025002600200023002400270C
:1002A00091F803C00CF00F0591F803C00CF0100C8E
:1002B000BCF1000F03D091F802C04CEA050591F89B
:1002C00000C0BCF1000F31D0146800202BE04FF0CB
:1002D000010C0CFA00F3B1F800C00CEA03069E42D0
:1002E00020D183004FF00F0C0CFA03F7BC4305FA42
:1002F00003FC4CEA040491F803C0BCF1280F06D1BA
:100300004FF0010C0CFA00FCC2F814C00AE091F89E
:1003100003C0BCF1480F05D14FF0010C0CFA00FCF2
:10032000C2F810C0401C0828D1D31460B1F800C036
:10033000BCF1FF0F34DD546800202EE000F1080C02
:100340004FF0010808FA0CF3B1F800C00CEA0306FC
:100350009E4221D183004FF00F0C0CFA03F7BC43EF
:1003600005FA03FC4CEA040491F803C0BCF1280F21
:1003700005D100F1080C08FA0CF8C2F8148091F8C5
:1003800003C0BCF1480F07D100F1080C4FF0010881
:1003900008FA0CF8C2F81080401C0828CED354602C
:1003A000BDE8F08100BFFEE700BFFEE77047000038
:1003B00070B5002100230F22C47804B3154C2468C3
:1003C00004F4E064C4F5E064210AC1F10403CA4006
:1003D000447804FA03F184781440214309010E4C57
:1003E0000678A155047804F01F050124AC40057877
:1003F0006D11AD0005F1E025C5F8004109E0047874
:1004000004F01F050124AC40044D0678761145F830
:10041000264070BD0CED00E000E400E080E100E06B
:1004200002490143024A1160704700000000FA05CA
:100430000CED00E07047000029B1064A5269024302
:10044000044B5A6104E0034A52698243014B5A61EA
:10045000704700000010024029B1064AD2690243E9
:10046000044BDA6104E0034AD2698243014BDA614A
:10047000704700000010024029B1064A9269024309
:10048000044B9A6104E0034A92698243014B9A61EA
:10049000704700000010024030B500210022002407
:1004A00000232D4D6D6805F00C0121B1042905D004
:1004B000082923D105E0294D056022E0274D05607C
:1004C0001FE0254D6D6805F47012234D6D6805F42D
:1004D0008034022505EB92421CB9214D554305603D
:1004E0000BE01D4D6D6805F400351DB11C4D5543E5
:1004F000056002E0194D5543056002E0174D0560A7
:1005000000BF00BF144D6D6805F0F0010909154DDD
:100510006B5C0568DD4045600F4D6D6805F4E0617A
:10052000090A104D6B5C4568DD4085600A4D6D68B9
:1005300005F46051C90A0B4D6B5C4568DD40C56030
:10054000054D6D6805F44041890B074D6B5CC5682E
:10055000B5FBF3F5056130BD0010024000127A00D2
:1005600000093D00000000201000002010B5421ED0
:100570000D4B03EB821212783F2A14DA421E03EB72
:100580008213094C421C04EB82121278521C9954BB
:10059000421E234603EB82121278521CD3B2421E33
:1005A00004EB8212137010BD38000020704710B5A4
:1005B00000F002F810BD00000CB500200190009082
:1005C0003348006840F480303149086000BF30484B
:1005D000006800F4003000900198401C01900098E1
:1005E00018B90198B0F5A06FF1D12948006800F45E
:1005F000003010B10120009001E000200090009830
:10060000012843D12348006840F0100021490860C8
:100610000846006820F0030008600846006840F0C3
:10062000020008601A484068194948600846406856
:1006300048600846406840F480604860084640686A
:1006400020F47C1048600846406840F4E810486098
:100650000846006840F08070086000BF0C480068E1
:1006600000F000700028F9D00948406820F003002D
:10067000074948600846406840F00200486000BFF3
:100680000348406800F00C000828F9D10CBD0000B8
:1006900000100240002002407047000010B51348CF
:1006A000006840F0010011490860084640681049A0
:1006B00008400E494860084600680E4908400B494A
:1006C00008600846006820F48020086008464068FA
:1006D00020F4FE0048604FF41F008860FFF767FFBA
:1006E0004FF000600449086010BD00000010024097
:1006F0000000FFF8FFFFF6FE08ED00E010B540F245
:100700002551094800F0FAF801280CD1064800F0FC
:10071000F5F9C4B221460120FFF728FF40F2255128
:10072000014800F035F810BD0038014010B540F226
:100730002551094800F0E2F801280CD1074800F0E3
:10074000DDF9C4B221460220FFF710FF40F2255127
:10075000024800F01DF810BD003801400044004080
:1007600010B540F22551094800F0C8F801280CD115
:10077000064800F0C3F9C4B221460320FFF7F6FE95
:1007800040F22551014800F003F810BD0048004038
:1007900010B50022002340F66A14A14200D100BF28
:1007A0000A1201249440A3B2DC43048010BD21B19D
:1007B000828942F40052828104E082894DF6FF73FF
:1007C0001A408281704700001FB501218803FFF79E
:1007D00053FE01214804FFF73FFE01218804FFF783
:1007E0003BFE4FF4E13000900020ADF80C000C20EF
:1007F000ADF80A000020ADF80800ADF80600ADF82D
:1008000004006946054800F0C9F86946044800F04C
:10081000C5F86946034800F0C1F81FBD0038014023
:10082000004400400048004000B58BB0012108465C
:10083000FFF702FE002003901020029000200A9093
:1008400007908020059000200890069004904FF4B7
:1008500000500990094801900948009069460948EC
:10086000FFF7F6FC054801900748009069460548E7
:100870003C30FFF7EDFC0BB000BD0000F90000209C
:1008800004380140440002400444004008B50121FE
:100890000420FFF7F1FD01210820FFF7EDFD1820EE
:1008A0008DF8030003208DF802004FF40170ADF8BD
:1008B000000069460F48FFF7EAFC4FF48060ADF88E
:1008C000000069460C48FFF7E2FC04208DF80300A5
:1008D0004FF48160ADF8000069460648FFF7D7FC89
:1008E0004FF40060ADF8000069460348FFF7CFFC05
:1008F00008BD000000080140000C014070B5024630
:10090000002400230025002040F66A16B14200D1E1
:1009100000BFC1F3421501F01F03012606FA03F3DD
:10092000012D02D19689334006E0022D02D1168AAC
:10093000334001E0968A33400C12012606FA04F493
:100940001688344013B10CB1012000E0002070BDC6
:10095000F0B50346002400260025002040F66A1763
:10096000B94200D100BF1846C1F3421401F01F067E
:10097000012707FA06F5012C01D10C3004E0022C06
:1009800001D1103000E014301AB107682F4307601E
:1009900002E00768AF430760F0BD00002DE9F047B3
:1009A00086B005460E460024A24600BFA146002799
:1009B000B08900B100BF2F462C8A4CF6FF7004406E
:1009C000F08804432C82AC894EF6F3100440B088C2
:1009D00031890843718908430443AC81AC8A4FF6DE
:1009E000FF400440B0890443AC8201A8FFF754FDE6
:1009F0001F48874202D1DDF810A001E0DDF80CA00D
:100A0000A88900F4004040B10AEBCA0000EB0A10CC
:100A100031684900B0FBF1F807E00AEBCA0000EBCF
:100A20000A1031688900B0FBF1F86420B8FBF0F0DF
:100A300004012009642101FB1089A88900F4004009
:100A400040B1322000EBC900B0FBF1F000F007002C
:100A5000044308E0322000EB09106421B0FBF1F000
:100A600000F00F0004432C8106B0BDE8F0870000C1
:100A70000038014008B501208DF803008DF8010011
:100A800000208DF8020025208DF800006846FFF751
:100A90008FFC26208DF800006846FFF789FC272090
:100AA0008DF800006846FFF783FC012240F22551D3
:100AB0000F48FFF74DFF012240F225510D48FFF787
:100AC00047FF012240F225510B48FFF741FF40F25A
:100AD00025510748FFF75CFE40F225510548FFF716
:100AE00057FE40F225510448FFF752FE08BD0000B2
:100AF000003801400044004000480040014688881A
:100B0000C0F30800704700BFFEE7000070B5034661
:100B10000C46581E144901EB8010007810BB581E7B
:100B20000D4605EB80100270002107E0655C581E41
:100B30000D4E06EB8016481C3554C1B29142F5DBD0
:100B4000581E0A4D55F820004260581E55F82000E6
:100B5000006840F00105581E044E56F8200005605C
:100B6000002070BD0120FCE7F80000202C000020D0
:100B700002E008C8121F08C1002AFAD17047704766
:100B8000002001E001C1121F002AFBD170470000C4
:100B90004FF44070FFF744FCFFF7F8FA04E0082236
:100BA00002490120FFF7B2FFF9E700002000002012
:100BB000D00B00080000002038000000700B000877
:100BC000080C00083800002080050000800B000899
:100BD00000000000010203040102030406070809E3
:100BE0000204060844000240800002401C0002404B
:100BF00048656C6C6F576F726421000044000240BE
:080C0000800002401C000240CC
:0400000508000131BD
:00000001FF
