:020000040800F2
:10000000F8470020DD010008130500080B05000873
:100010000F050008A50200089B0D00080000000065
:100020000000000000000000000000004501000882
:10003000F30300080000000089010008FD1A000811
:10004000F7010008F7010008F7010008F7010008B0
:10005000F7010008F7010008F7010008F7010008A0
:10006000F7010008F7010008F7010008F701000890
:10007000A9020008F7010008D9020008F7010008EA
:10008000F70100080D030008F7010008F701000858
:10009000F7010008F7010008F7010008F701000860
:1000A000F7010008F7010008F7010008F701000850
:1000B000F7010008F7010008F7010008F701000840
:1000C000F7010008F7010008F7010008F701000830
:1000D000F701000875080008A5080008D9080008FD
:1000E000F7010008F7010008F7010008F701000810
:1000F000F7010008F7010008F7010008F701000800
:10010000F7010008F7010008F7010008F7010008EF
:10011000F7010008F7010008F7010008F7010008DF
:10012000F7010008F7010008F7010008F7010008CF
:10013000DFF80CD000F08CF800480047F110000800
:10014000F8470020224B19680868B0E8F00F80F3E8
:100150000988BFF36F8F4FF0000080F311884EF0D5
:100160000D0E70470000000006480068006880F32C
:10017000088862B661B6BFF34F8FBFF36F8F00DFA1
:1001800000BF00BF08ED00E0EFF30980BFF36F8F01
:100190000F4B1A6820E9F00F106008B54FF0BF0050
:1001A00080F31188BFF34F8FBFF36F8F01F05CFCBA
:1001B0004FF0000080F31188BDE808401968086816
:1001C000B0E8F00F80F30988BFF36F8F704700BF6E
:1001D00090000020EFF3058070470000064880473C
:1001E00006480047FEE7FEE7FEE7FEE7FEE7FEE71C
:1001F000FEE7FEE7FEE7FEE7010800083101000820
:1002000040EA01039B0703D009E008C9121F08C098
:10021000042AFAD203E011F8013B00F8013B521E18
:10022000F9D2704730B50B46014600202022012448
:1002300009E021FA02F59D4205D303FA02F5491BB4
:1002400004FA02F52844151EA2F10102F1DC30BDCA
:10025000064C074D06E0E06840F0010394E8070013
:1002600098471034AC42F6D3FFF766FFB821000878
:10027000D821000810B500F00DFC00F06BFB00F079
:1002800009FD00F09DFB002407E0054951F824001A
:10029000012100F052FB601CC4B2032CF5DB10BD41
:1002A0005400002000BFFEE710B5202000F064F8E5
:1002B00001280ED1032000F0D3FA064880680068B8
:1002C0004FF6FE710840034989680860202000F05D
:1002D00045F810BD6000002010B54FF4005000F04C
:1002E0004BF801280ED100F0BBFA074800680068FF
:1002F0004FF6FE7108400449096808604FF4005049
:1003000000F02CF810BD00006000002010B54FF088
:10031000007000F031F801280FD1022000F0A0FA9F
:100320000648406800684FF6FE7108400349496876
:1003300008604FF0007000F011F810BD6000002060
:1003400000F0805111B10349086001E002494860A2
:1003500070470000040402400000024000F0805199
:1003600011B10349086001E002494860704700008C
:10037000040402400000024001460020002201F077
:10038000805313B1054B1A6801E0054B1A6802EA65
:1003900001030BB1012000E000207047000402407F
:1003A000000002401AB103680B43036002E00368D7
:1003B0008B430360704710B50022026847F6F07364
:1003C0009A430C6A8B6823430C6923434C6923438B
:1003D0008C692343CC6923434C6A23438C6A2343AF
:1003E0001A430260CB6843600B6883604B68C3604C
:1003F00010BD70472DE9F04102460025002600207F
:1004000000230024002791F803C00CF00F0591F899
:1004100003C00CF0100CBCF1000F03D091F802C027
:100420004CEA050591F800C0BCF1000F31D014680A
:1004300000202BE04FF0010C0CFA00F3B1F800C0E3
:100440000CEA03069E4220D183004FF00F0C0CFAF9
:1004500003F7BC4305FA03FC4CEA040491F803C01B
:10046000BCF1280F06D14FF0010C0CFA00FCC2F8C9
:1004700014C00AE091F803C0BCF1480F05D14FF059
:10048000010C0CFA00FCC2F810C0401C0828D1D3A3
:100490001460B1F800C0BCF1FF0F34DD54680020D7
:1004A0002EE000F1080C4FF0010808FA0CF3B1F847
:1004B00000C00CEA03069E4221D183004FF00F0CCE
:1004C0000CFA03F7BC4305FA03FC4CEA040491F868
:1004D00003C0BCF1280F05D100F1080C08FA0CF894
:1004E000C2F8148091F803C0BCF1480F07D100F1A5
:1004F000080C4FF0010808FA0CF8C2F81080401CF4
:100500000828CED35460BDE8F08100BFFEE700BFED
:10051000FEE7704770B5002100230F22C47804B3B2
:10052000154C246804F4E064C4F5E064210AC1F1C8
:100530000403CA40447804FA03F184781440214348
:1005400009010E4C0678A155047804F01F0501241A
:10055000AC4005786D11AD0005F1E025C5F800410E
:1005600009E0047804F01F050124AC40044D06782E
:10057000761145F8264070BD0CED00E000E400E087
:1005800080E100E002490143024A11607047000027
:100590000000FA050CED00E029B1064A5269024359
:1005A000044B5A6104E0034A52698243014B5A6189
:1005B000704700000010024029B1064AD269024388
:1005C000044BDA6104E0034AD2698243014BDA61E9
:1005D000704700000010024029B1064A92690243A8
:1005E000044B9A6104E0034A92698243014B9A6189
:1005F000704700000010024030B5002100220024A6
:1006000000232D4D6D6805F00C0121B1042905D0A2
:10061000082923D105E0294D056022E0274D05601A
:100620001FE0254D6D6805F47012234D6D6805F4CB
:100630008034022505EB92421CB9214D55430560DB
:100640000BE01D4D6D6805F400351DB11C4D554383
:10065000056002E0194D5543056002E0174D056045
:1006600000BF00BF144D6D6805F0F0010909154D7C
:100670006B5C0568DD4045600F4D6D6805F4E06119
:10068000090A104D6B5C4568DD4085600A4D6D6858
:1006900005F46051C90A0B4D6B5C4568DD40C560CF
:1006A000054D6D6805F44041890B074D6B5CC568CD
:1006B000B5FBF3F5056130BD0010024000127A0071
:1006C00000093D00140000202400002010B5421E47
:1006D000104B03EB821212783F2A14DA421E03EB0E
:1006E00082130C4C04EB82121278521C9954421E55
:1006F000234603EB82121278521CD3B2421E04EB43
:100700008212137005E04023421E024C04EB821259
:10071000137010BDD400002010B500F001F810BD1A
:100720000CB50020019000903348006840F4803000
:100730003149086000BF3048006800F40030009084
:100740000198401C0190009818B90198B0F5A06F6D
:10075000F1D12948006800F4003010B10120009068
:1007600001E0002000900098012843D12348006850
:1007700040F01000214908600846006820F003009E
:1007800008600846006840F0020008601A484068A7
:10079000194948600846406848600846406840F487
:1007A000806048600846406820F47C104860084635
:1007B000406840F4E81048600846006840F08070E7
:1007C000086000BF0C48006800F000700028F9D0F5
:1007D0000948406820F0030007494860084640681F
:1007E00040F00200486000BF0348406800F00C0081
:1007F0000828F9D10CBD0000001002400020024082
:1008000010B51348006840F001001149086008461F
:100810004068104908400E494860084600680E4983
:1008200008400B4908600846006820F480200860F2
:100830000846406820F4FE0048604FF41F008860BE
:10084000FFF76AFF4FF000600449086010BD000028
:10085000001002400000FFF8FFFFF6FE08ED00E088
:100860000022411E024B03EB81110A707047000009
:100870009401002010B540F22551094800F04FF9CD
:1008800001280CD1064800F07FFAC4B221460120AD
:10089000FFF71CFF40F22551014800F03FF810BD62
:1008A0000038014010B540F22551094800F037F9F1
:1008B00001280CD1074800F067FAC4B22146022093
:1008C000FFF704FF40F22551024800F027F810BD61
:1008D000003801400044004010B540F2255109485D
:1008E00000F01DF901280CD1064800F04DFAC4B201
:1008F00021460320FFF7EAFE40F22551014800F0AF
:100900000DF810BD004800400022411E024B03EBD1
:1009100081110A7070470000D400002010B5002239
:10092000002340F66A14A14200D100BF0A1201243C
:100930009440A3B2DC43048010BD21B1828942F40B
:100940000052828104E082894DF6FF731A40828151
:10095000704700001FB501218803FFF73DFE01210C
:100960004804FFF729FE01218804FFF725FE4FF414
:10097000E13000900020ADF80C000C20ADF80A002A
:100980000020ADF80800ADF80600ADF80400002422
:1009900007E0054951F82400694600F00FF9601C92
:1009A000C4B2032CF5DB1FBD540000201AB1838AAA
:1009B0000B43838202E0838A8B438382704700006B
:1009C00010B58CB001210846FFF7E6FD0121022099
:1009D000FFF7E2FD002004901020039000200B9010
:1009E00008908020069000200990079005904FF411
:1009F00080500A9000241BE0234850F82400001D7A
:100A00000190224800EB8410401C0290204951F8CC
:100A1000240001A9FFF7CFFC1B4951F82400012253
:100A20008021FFF7C3FF0220FFF78AFC601CC4B2DD
:100A3000032CE1DB01208DF8030008208DF8010074
:100A400000208DF802000E208DF800006846FFF7A8
:100A500061FD11208DF800006846FFF75BFD0C205A
:100A60008DF800006846FFF755FD002408E00849AE
:100A700051F8240001220221FFF794FC601CC4B24B
:100A8000032CF4DB0CB010BD5400002094010020B6
:100A90006000002008B501210420FFF79DFD012121
:100AA0000820FFF799FD18208DF8030003208DF82A
:100AB00002004FF40170ADF8000069460F48FFF7DF
:100AC00099FC4FF48060ADF8000069460C48FFF7D0
:100AD00091FC04208DF803004FF48160ADF8000014
:100AE00069460648FFF786FC4FF40060ADF8000049
:100AF00069460348FFF77EFC08BD0000000801407E
:100B0000000C014002460020B1F5007F00D100BF7B
:100B100013880B400BB1012000E00020704770B536
:100B20000246002400230025002040F66A16B14248
:100B300000D100BFC1F3421501F01F03012606FAE0
:100B400003F3012D02D19689334006E0022D02D134
:100B5000168A334001E0968A33400C12012606FAC9
:100B600004F41688344013B10CB1012000E00020D9
:100B700070BDF0B50346002400260025002040F695
:100B80006A17B94200D100BF1846C1F3421401F000
:100B90001F06012707FA06F5012C01D10C3004E0ED
:100BA000022C01D1103000E014301AB107682F4335
:100BB000076002E00768AF430760F0BD2DE9F0472A
:100BC00086B005460E460024A24600BFA146002777
:100BD000B08900B100BF2F462C8A4CF6FF7004404C
:100BE000F08804432C82AC894EF6F3100440B088A0
:100BF00031890843718908430443AC81AC8A4FF6BC
:100C0000FF400440B0890443AC8201A8FFF7F4FC24
:100C10001F48874202D1DDF810A001E0DDF80CA0EA
:100C2000A88900F4004040B10AEBCA0000EB0A10AA
:100C300031684900B0FBF1F807E00AEBCA0000EBAD
:100C40000A1031688900B0FBF1F86420B8FBF0F0BD
:100C500004012009642101FB1089A88900F40040E7
:100C600040B1322000EBC900B0FBF1F000F007000A
:100C7000044308E0322000EB09106421B0FBF1F0DE
:100C800000F00F0004432C8106B0BDE8F08700009F
:100C90000038014008B501208DF803008DF80100EF
:100CA00000208DF8020025208DF800006846FFF72F
:100CB00031FC26208DF800006846FFF72BFC27202A
:100CC0008DF800006846FFF725FC012240F225510F
:100CD0000F48FFF74EFF012240F225510D48FFF764
:100CE00048FF012240F225510B48FFF742FF40F236
:100CF00025510748FFF712FE40F225510548FFF73E
:100D00000DFE40F225510448FFF708FE08BD000023
:100D100000380140004400400048004030B504461F
:100D20000D46601E174901EB80100078A84223DDB4
:100D3000611E144A02EB81110978491BCAB2611E77
:100D4000104B03EB81110A7000200DE0611E0D4A6B
:100D500002EB8112411C2944525C611E094B03EBDA
:100D60008113411C5A54C8B2611E064A02EB81111C
:100D700009788142EADC30BD2046FFF7C5FD00BF9F
:100D8000F9E70000D400002001468888C0F308007D
:100D90007047C1F308028280704700BFFEE7000081
:100DA0000146481E044A02EB8010007808B1012079
:100DB00070470020FCE70000940100200146481E17
:100DC000014A02EB80107047D400002008B544E0CF
:100DD0000120FFF7F3FF05462878002839D00024CA
:100DE00033E0281940780A282DD10020009000BF58
:100DF00010E09DF8001001EB81014906090E0091F9
:100E00002918497830399DF800201144C9B2009161
:100E1000411CC8B2A042ECDBA01CC1B20120FFF70C
:100E20007DFF9DF800100DA000F04EF800231A463B
:100E300069460D48006800F0D5FE012802D10BA0DC
:100E400000F042F804E0601CC4B22878A042C8DC7C
:100E500000BF0A2000F08EFD00BFB9E7496E707533
:100E6000743A25640D0A0000480000204461742093
:100E7000496E2051756575650D0A0000044613E042
:100E800000220A490A48006800F038FF0748027843
:100E9000214608A000F018F8044800780521B0FBAE
:100EA000F1F5284600F066FDEAE700005200002058
:100EB0004800002025732044656C61795F54696D9A
:100EC000653A25640D0A00000FB4054B10B503A95F
:100ED000044A029800F018F810BC5DF814FB0000FA
:100EE000C1100008D000002002E008C8121F08C18D
:100EF000002AFAD170477047002001E001C1121F9B
:100F0000002AFBD1704700002DE9FF4F8BB09A46B5
:100F10000F460546002606E025280BD052460D99BF
:100F200090476D1C761C28780028F5D10FB030460C
:100F3000BDE8F08F0024A0460122604900E0044390
:100F400015F8013F203B02FA03F00842F7D1287858
:100F50002E2817D115F8010F44F004042A280ED0CA
:100F60006FF02F022878A0F1300109290AD808EB88
:100F7000880102EB410100EB01086D1CF2E757F814
:100F8000048B6D1C287869283ED006DC0028CDD063
:100F900063280BD0642804D136E0732810D075285C
:100FA0004BD052460D999047761C85E017F8040BFC
:100FB0008DF8000000208DF80100E946012003E0D3
:100FC00057F8049B4FF0FF3061074FF0000401D445
:100FD0000AE0641C44450DDA8442FADB19F8041077
:100FE0000029F6D106E0641C8442FCDB19F80410E9
:100FF0000029F8D1264404E019F8010B52460D9956
:101000009047641EF8D257E001CF4FF00A0B00283A
:1010100002DA40422D2102E0210504D52B218DF872
:101020002410012103E0E10705D02021F7E70DF1AD
:10103000200908910CE00021F9E701CF4FF00A0BDD
:10104000F9E75946FFF7EEF801F1300209F8012DF2
:101050000028F6D1ADEB090000F1200B600701D4A8
:101060004FF00108D84502DDA8EB0B0000E000209E
:101070008046002406E009A85246005D0D9990477D
:10108000641C761C08988442F5DB04E0302052464C
:101090000D999047761CB8F10001A8F10108F5DC24
:1010A00005E019F8010B52460D999047761CBBF1EB
:1010B0000001ABF1010BF4DC6D1C34E709280100E1
:1010C00070B504460D4600BF0120FFF769FE0028F9
:1010D000FAD1A1B20548FFF75CFE00BF80210348AA
:1010E000FFF710FD0028F9D0204670BD0038014000
:1010F0001CB54FF44070FFF745FAFFF7BBF800222C
:101100000121042000F014FD104908601048062158
:10111000104B2022CDE900100FA1114800F0A0FED5
:101120001048062100232022CDE900100EA110480E
:1011300000F096FE0548006818B90EA0FFF7C4FE3F
:1011400001E000F053FC00BFFEE700004800002073
:10115000400000204C0000205461736B31000000FF
:101160007D0E0008440000205461736B32000000C3
:10117000CD0D00085175657565466C6173650D0A86
:10118000000000002DE9F04105460E461C480768A6
:101190001C480068001D00F041FB50B91948006868
:1011A00090F82C100120884017490968814316489F
:1011B0000160681C38B936B112480168091D13482E
:1011C00000F06AFB1AE07C190E4800684460BC42DB
:1011D00007D20C480168091D0D48006800F042FB69
:1011E0000CE008480168091D0A48006800F03AFB55
:1011F00009480068844201D207480460BDE8F081D4
:10120000A400002090000020A8000020E44300205B
:101210009800002094000020C000002010B5044673
:1012200000F046FB23480068401C22490860224821
:10123000006840B9204804600846006801280DD1C4
:1012400000F076F90AE01D48006838B91A480068CD
:10125000C06AE16A884201D81748046018480068EB
:10126000401C1749086094F82C100120884015494B
:101270000968084313490860E16A01EB8101124AD9
:1012800002EB8100211D00F007FB00F023FB0B485F
:10129000006868B108480068C06AE16A884207D2FD
:1012A0004FF0805009490860BFF34F8FBFF36F8F35
:1012B00010BD0000A000002090000020AC00002025
:1012C000BC000020A80000205442002004ED00E0F3
:1012D00010B516E000F0ECFA0C48C068C468201D98
:1012E00000F09CFA0A480068401E09490860094855
:1012F0000068401E0749086000F0ECFA204600F044
:101300005FF8044800680028E4D110BDD0430020F5
:10131000A00000209C00002070B504460D46206C03
:1013200070B1216CE0680144E160D4E902108842A8
:1013300001D32168E1602846226CE168FEF760FF76
:1013400070BD2DE9F04104460F4615464FF00008E8
:10135000A66B206C48B9206800282CD1A06800F04A
:101360003DFE80460020A06025E07DB93946226C14
:101370006068FEF745FF216C606808446060D4E94E
:101380000101884217D32068606014E03946226C5E
:10139000E068FEF735FF216CE068411AE1602168E2
:1013A000E068884203D2216CA068411AE160022DF6
:1013B00001D106B1761E701CA0634046BDE8F081E5
:1013C00010B50446206B00F095FA204600F092FA22
:1013D00010BD000030B54FF48043174800F00704FB
:1013E0002CB1C01D20F00700134C041B1B1B024630
:1013F000124C22600024114D6C60D018083820F087
:1014000007000F4C206000240D4D2D686C600C4DC2
:101410002D682C601146441A4C60094C24680C60FD
:10142000084D4C682C60084D4C682C604FF000440F
:10143000064D2C6030BD00005402002070000020DA
:1014400078000020800000207C0000208C0000201C
:1014500000BFFFF73DFF064800680128F9D94FF0AB
:10146000805004490860BFF34F8FBFF36F8FF0E7E0
:101470005442002004ED00E02DE9F04106460D46FF
:1014800017469846069C0DB9246000E02760E66385
:1014900025640121204600F065FBBDE8F0812DE9BF
:1014A000FF5F80460E469146DDE90E7A109CA9F159
:1014B0000100216B01EB800B2BF0070B86B100259F
:1014C00007E0715D04F134004155705D00B902E040
:1014D0006D1C102DF5D300BF00214320015502E003
:1014E000002084F83400102F00D30F27E7626764D0
:1014F0000020A064201D00F0B2F904F1180000F0F3
:10150000AEF92461C7F11000A06164620020E064BC
:1015100084F8500041465846039A00F06DF9206067
:10152000BAF1000F01D0CAF80040BDE8FF9F0000EB
:1015300010B5002407E004EB84010F4A02EB8100A0
:1015400000F080F9641C102CF5D30C4800F07AF9F7
:101550000B4800F077F90B4800F074F90A4800F0E6
:1015600071F90A4800F06EF9044809490860044816
:101570000849086010BD0000544200209443002038
:10158000A8430020BC430020D0430020E4430020B7
:10159000940000209800002010B50146164800E095
:1015A000006803688B42FBD30246436813448B42B6
:1015B00004D143684C682344436001460A464B68A3
:1015C00013440468A34211D10C4C03682468A3425D
:1015D00008D04B680468646823444B6003681B6848
:1015E0000B6005E0054B1B680B6001E003680B60B6
:1015F000884200D0016010BD7000002078000020FB
:1016000070B5054600F054F9A86B08B9012400E054
:10161000002400F05FF9204670BD70B5054600F06B
:1016200047F9A86BE96B884201D1012400E000244E
:1016300000F050F9204670BD09480068006808B9FC
:10164000012000E0002020B14FF0FF300549086084
:1016500005E003480068C0680068024908607047F8
:1016600094000020C000002000BFBF2080F311883C
:10167000BFF34F8FBFF36F8F00BF00BFFEE770B5A2
:10168000044600F015F994F9455010E0606A08B975
:10169000012000E0002038B904F1240000F0D8FC5B
:1016A00018B100F08DF900E003E0681E45B2002D8E
:1016B000ECDC00BFFF2084F8450000F00BF900F0DF
:1016C000F7F894F9445010E0206908B9012000E0CF
:1016D000002048B904F1100000F0BAFC08B100F095
:1016E0006FF9681E45B200E001E0002DECDC00BFA0
:1016F000FF2084F8440000F0EDF870BD2DE9F041C2
:1017000004464FF0000800F0A7F93548006808B912
:10171000FFF760FE33480068204000285BD1B4B179
:1017200004F10800A04212D9083404F0070078B18F
:1017300004F00700C0F108002044A04205D904F0DD
:101740000700C0F10800044402E0002400E0002487
:10175000002C40D02448006884423CD8234E3046B8
:10176000056801E02E462D686868A04202D228680C
:101770000028F7D11A48006885422CD0306800F163
:101780000808286830606868001B102807D92F19DE
:101790006868001B78606C603846FFF7FDFE1249F0
:1017A00068680968081A1049086008460068104906
:1017B0000968884203D20C4800680D49086009494D
:1017C0006868096808436860002028600948006864
:1017D000401C0849086000F07BFC4046BDE8F081F1
:1017E000780000208C0000207C0000207000002089
:1017F0008000002084000020001F4FF080730360F1
:10180000001F21F001030360001F034B0360143825
:1018100002602038704700006916000801460A6916
:10182000D1E901309860D1E90103586050688842DD
:1018300001D188685060002008611068401E106067
:101840001068704700F1080141604FF0FF3181607E
:1018500000F10801C16001610021016070470021B1
:101860000161704710B502460B685C1C0CB9106929
:1018700007E002F1080000E04068446824689C42E8
:10188000FAD944684C604C68A160886041600A6184
:101890001468641C146010BD42684A6093688B60D1
:1018A000936859609160086103685B1C036070472E
:1018B00000BFBF2080F31188BFF34F8FBFF36F8F3E
:1018C00000BF03480068401C0149086070470000E1
:1018D0006C00002006480068401E05490860084664
:1018E000006820B9002080F3118800BF00BF704756
:1018F0006C00002070B506463546FEB1083D2C460A
:101900000F49606809680840C0B12068B0B90C4947
:10191000606809688843606000F09EF80949606863
:1019200009680844074908602046FFF735FE064865
:101930000068401C0449086000F0CAFB70BD00004C
:101940008C0000207C0000208800002000204FF048
:10195000E0210861886106480068C821B0FBF1F009
:10196000401E4FF0E02148610720086170470000E9
:101970000000002070B50446002544B100F06CF86A
:1019800000212046FFF7FEFB00F0A2FB05463DB913
:101990004FF0805003490860BFF34F8FBFF36F8F44
:1019A00070BD000004ED00E00349096801600349CF
:1019B0000968416070470000B8000020A4000020C2
:1019C0000120014908607047B400002070B5054649
:1019D0000C460548016818312846FFF743FF0121EE
:1019E0002046FFF7CFFB70BD900000201CB51248C9
:1019F00000210B468022CDE9001010A1114800F013
:101A00002FFA0446012C14D100BFBF2080F31188A7
:101A1000BFF34F8FBFF36F8F00BF4FF0FF300A4906
:101A2000086001200949086000200949086000F0A9
:101A30004BF8084800681CBDC400002049444C45D0
:101A40000000000051140008C0000020AC0000207D
:101A5000A4000020C800002002480068401C014982
:101A600008607047CC0000201248006818B10120BF
:101A7000114908601DE000200F4908600F48006808
:101A8000B0FA80F0C0F11F0101EB81020C4B03EBB7
:101A9000820042685268426000F108024368934243
:101AA00002D14268526842604268D268054B1A60AF
:101AB00000BF7047CC000020B4000020A800002028
:101AC000544200209000002010B50A48006840F4FD
:101AD0007F00084908600846006840F07F400860C1
:101AE000FFF734FF002004490860FEF73DFB0020AB
:101AF00010BD000020ED00E06C00002010B500BF1C
:101B0000BF2080F31188BFF34F8FBFF36F8F00BFEB
:101B100000F0D6F918B14FF080500449086000BFBA
:101B2000002080F3118800BF10BD000004ED00E02C
:101B30002DE9F84305460E46174605FB06F909F15F
:101B40004800FFF7DBFD04464CB1A04608F1480809
:101B50003B464246314628460094FFF78DFC20461E
:101B6000BDE8F88370B505460E462C46FFF7A0FE8B
:101B7000D4E90F12206801FB0200A0600020A063DE
:101B800020686060E06B401E226C216800FB02113F
:101B9000E160FF2084F8440084F845009EB9206984
:101BA00008B9012000E00020A8B904F1100000F0FD
:101BB0004FFA80B14FF0805009490860BFF34F8F52
:101BC000BFF36F8F07E004F11000FFF73BFE04F155
:101BD0002400FFF737FEFFF77DFE012070BD0000F7
:101BE00004ED00E02DE9FF4383B0074688461D461B
:101BF0004FF000093C4600BFFFF75AFEA06BE16BB7
:101C0000884201D3022D28D12A4641462046FFF7BB
:101C100098FB0646606A08B9012000E0002068B918
:101C200004F1240000F014FA88B14FF080503249DA
:101C30000860BFF34F8FBFF36F8F08E03EB14FF0E6
:101C400080502D490860BFF34F8FBFF36F8FFFF7B0
:101C500041FE012007B0BDE8F083059818B9FFF7F1
:101C600039FE0020F6E7B9F1000F04D101A8FFF713
:101C70009BFE4FF00109FFF72DFEFFF7EDFEFFF78A
:101C800017FE94F94400401C10B9002084F8440069
:101C900094F94500401C10B9002084F84500FFF776
:101CA00019FE05A901A800F0ABF8F0B92046FFF72E
:101CB000B4FCA0B104F110000599FFF787FE20469F
:101CC000FFF7DDFC00F004FA002895D14FF08050BA
:101CD00009490860BFF34F8FBFF36F8F8CE7204631
:101CE000FFF7CDFC00F0F4F986E72046FFF7C7FCCC
:101CF00000F0EEF90020ADE704ED00E02DE9F7413A
:101D000083B005460F464FF000082C4600BFFFF792
:101D1000CFFDA66BF6B139462046FFF7FDFA701EDF
:101D2000A063206908B9012000E0002060B904F137
:101D3000100000F08DF938B14FF080502F49086045
:101D4000BFF34F8FBFF36F8FFFF7C4FD012006B0C5
:101D5000BDE8F081059818B9FFF7BCFD0020F6E753
:101D6000B8F1000F04D101A8FFF71EFE4FF00108E3
:101D7000FFF7B0FDFFF770FEFFF79AFD94F94400FE
:101D8000401C10B9002084F8440094F94500401C20
:101D900010B9002084F84500FFF79CFD05A901A8B3
:101DA00000F02EF8F0B92046FFF72AFCA0B104F1AC
:101DB00024000599FFF70AFE2046FFF760FC00F0BB
:101DC00087F90028A3D14FF080500C490860BFF379
:101DD0004F8FBFF36F8F9AE72046FFF750FC00F05C
:101DE00077F994E72046FFF74AFC00F071F92046A6
:101DF000FFF706FC00288AD00020A8E704ED00E0E9
:101E000070B506460C46FFF753FD1348026870682C
:101E1000131A2068401C08B9002519E00F493068E2
:101E20000968884206D07068904203D801250020D6
:101E300020600DE02068984207D92068C01A206011
:101E40003046FFF7B1FD002502E0002020600125AB
:101E5000FFF740FD284670BDA4000020B800002018
:101E60002DE9FF4F85B0804689461746DDE912AB64
:101E7000B800FFF743FC064656B15420FFF73EFC7E
:101E800004460CB1266304E03046FFF733FD00E062
:101E900000247CB10020CDE900ABCDE902403A46F8
:101EA00049464046089BFFF7FAFA2046FFF7B6F985
:101EB000012501E04FF0FF35284609B0BDE8F08F5D
:101EC0002DE9F04100273A480068002867D13948D9
:101ED0000068451C374805608DB93748D0F8008048
:101EE00036480068344908603448C0F800803448F7
:101EF0000068401C32490860FFF79EFB00BF314874
:101F0000006885423BD300BF2B480068006808B9D1
:101F1000012000E0002020B14FF0FF302949086087
:101F20002CE025480068C068C4686668B54202D2E3
:101F30002448066022E0201DFFF770FCA06A18B15B
:101F400004F11800FFF76AFC94F82C100120884077
:101F50001D49096808431C490860E16A01EB8101D9
:101F60001A4A02EB8100211DFFF796FC1849E06A2E
:101F70000968C96A8842C7D30127C5E700BF14486A
:101F80000068C06A00EB8000104951F82000012869
:101F900000D901270F48006800B1012704E00E486E
:101FA0000068401C0C4908603846BDE8F08100001C
:101FB000CC000020A4000020940000209800002005
:101FC000B8000020C0000020A800002054420020DB
:101FD00090000020B4000020B000002070B505463D
:101FE0002C46002675B3A06C401EA064616CE06AAC
:101FF000884227D0A06C28BB201DFFF70FFC40B9FA
:1020000094F82C10012088400F49096881430E483C
:102010000160606CE062E06AC0F11000A06194F8B9
:102020002C100120884008490968084306490860C7
:10203000E16A01EB8101054A02EB8100211DFFF7F6
:102040002BFC0126304670BDA80000205442002021
:1020500070B50646F068C46804F11800FFF7DEFBAF
:1020600015480068A8B9201DFFF7D8FB94F82C107C
:102070000120884011490968084310490860E16A55
:1020800001EB81010E4A02EB8100211DFFF704FCE8
:1020900004E004F118010B48FFF7FEFB0A49E06A6F
:1020A0000968C96A884204D90125012007490860E6
:1020B00000E00025284670BDCC000020A8000020CC
:1020C00054420020BC43002090000020B4000020B7
:1020D00070B500240026FFF7EBFB2E480068401E79
:1020E0002C4908600846006800284FD12A4800683B
:1020F00000284BD024E02948C068C46804F11800C7
:10210000FFF78CFB201DFFF789FB94F82C100120B2
:10211000884023490968084321490860E16A01EBC6
:102120008101204A02EB8100211DFFF7B5FB1E490A
:10213000E06A0968C96A884202D301201B49086025
:102140001648006808B9012000E000200028D2D01D
:102150000CB1FFF771FA1648056865B100BFFFF7CB
:10216000AFFE10B10120114908606D1E002DF6D19F
:1021700000200F4908600D48006838B1012630077B
:102180000C490860BFF34F8FBFF36F8FFFF7A2FBBF
:10219000304670BDCC000020A0000020BC430020D1
:1021A000A80000205442002090000020B40000202D
:1021B000B000002004ED00E0D8210008000000205D
:1021C000D4000000E80E0008AC220008D400002073
:1021D00024470000F80E000800A24A040000000096
:1021E00000000000010203040607080900000000C7
:1021F0000102030401020304060708090204060899
:1022000000380140004400400048004044000240C3
:10221000800002401C00024000000000000000009E
:10222000000000005461736B3100C80000380140A9
:10223000004400400048004044000240800002404A
:102240001C000240AAAAAAAA000000000000000088
:10225000000000000000000000000000000000007E
:10226000000000000000000000000000000000006E
:10227000000000000000000000000000000000005E
:10228000000000000000000000000000000000004E
:10229000000000000000000000000000000000003E
:0C22A0000F000000000000000000000023
:0400000508000131BD
:00000001FF
