:020000040800F2
:10000000A0480020DD0100087F05000877050008F2
:100010007B05000809030008031000080000000029
:100020000000000000000000000000004501000882
:100030005704000800000000890100080D20000896
:10004000F7010008F7010008F7010008F7010008B0
:10005000F7010008F7010008F7010008F7010008A0
:10006000F7010008F7010008F7010008F701000890
:100070000D030008F70100083D030008F701000820
:10008000F701000871030008F7010008F7010008F4
:10009000F7010008F7010008F7010008F701000860
:1000A000F7010008F7010008F7010008F701000850
:1000B000F7010008F7010008F7010008F701000840
:1000C000F7010008F7010008F7010008F701000830
:1000D000F7010008090B0008790B0008AD0B0008B8
:1000E000F7010008F7010008F7010008F701000810
:1000F000F7010008F7010008F7010008F701000800
:10010000F7010008F7010008F7010008F7010008EF
:10011000F7010008F7010008F7010008F7010008DF
:10012000F7010008F7010008F7010008F7010008CF
:10013000DFF80CD000F08CF8004800477D13000871
:10014000A0480020224B19680868B0E8F00F80F33F
:100150000988BFF36F8F4FF0000080F311884EF0D5
:100160000D0E70470000000006480068006880F32C
:10017000088862B661B6BFF34F8FBFF36F8F00DFA1
:1001800000BF00BF08ED00E0EFF30980BFF36F8F01
:100190000F4B1A6820E9F00F106008B54FF0BF0050
:1001A00080F31188BFF34F8FBFF36F8F01F0E4FE30
:1001B0004FF0000080F31188BDE808401968086816
:1001C000B0E8F00F80F30988BFF36F8F704700BF6E
:1001D00034010020EFF30580704700000648804797
:1001E00006480047FEE7FEE7FEE7FEE7FEE7FEE71C
:1001F000FEE7FEE7FEE7FEE7A90900083101000877
:1002000040EA01039B0703D009E008C9121F08C098
:10021000042AFAD203E011F8013B00F8013B521E18
:10022000F9D2704730B50B46014600202022012448
:1002300009E021FA02F59D4205D303FA02F5491BB4
:1002400004FA02F52844151EA2F10102F1DC30BDCA
:10025000064C074D06E0E06840F0010394E8070013
:1002600098471034AC42F6D3FFF766FF2829000800
:100270004829000870B58C1810F8015B15F00703C9
:1002800001D110F8013B2A1106D110F8012B03E02F
:1002900010F8016B01F8016B5B1EF9D12B0705D437
:1002A0000023521E0DD401F8013BFAE710F8013B80
:1002B000CB1A921C03E013F8015B01F8015B521E9C
:1002C000F9D5A142D8D3002070BD10B500F09AF93D
:1002D00000F0C4F910BD000010B500F045FD00F0BD
:1002E000A3FC00F041FE00F0D5FC002407E0054926
:1002F00051F82400012100F08AFC601CC4B2032CD8
:10030000F5DB10BDB400002000BFFEE710B52020D3
:1003100000F064F801280ED1032000F0EBFB064842
:10032000806800684FF6FE710840034989680860DC
:10033000202000F045F810BDA800002010B54FF4B3
:10034000005000F04BF801280ED100F0D3FB074815
:10035000006800684FF6FE710840044909680860AB
:100360004FF4005000F02CF810BD0000A800002051
:1003700010B54FF0007000F031F801280FD10220C5
:1003800000F0B8FB0648406800684FF6FE71084070
:100390000349496808604FF0007000F011F810BD83
:1003A000A800002000F0805111B10349086001E06D
:1003B0000249486070470000040402400000024007
:1003C00000F0805111B10349086001E00249486022
:1003D0007047000004040240000002400146002073
:1003E000002201F0805313B1054B1A6801E0054B60
:1003F0001A6802EA01030BB1012000E000207047F7
:1004000000040240000002401AB103680B4303607D
:1004100002E003688B430360704710B50022026856
:1004200047F6F0739A430C6A8B6823430C692343A5
:100430004C6923438C692343CC6923434C6A23438F
:100440008C6A23431A430260CB6843600B68836065
:100450004B68C36010BD70472DE9F041024600258E
:100460000026002000230024002791F803C00CF090
:100470000F0591F803C00CF0100CBCF1000F03D075
:1004800091F802C04CEA050591F800C0BCF1000FDC
:1004900031D0146800202BE04FF0010C0CFA00F36F
:1004A000B1F800C00CEA03069E4220D183004FF051
:1004B0000F0C0CFA03F7BC4305FA03FC4CEA0404E6
:1004C00091F803C0BCF1280F06D14FF0010C0CFAD3
:1004D00000FCC2F814C00AE091F803C0BCF1480F58
:1004E00005D14FF0010C0CFA00FCC2F810C0401C02
:1004F0000828D1D31460B1F800C0BCF1FF0F34DD7F
:10050000546800202EE000F1080C4FF0010808FAB2
:100510000CF3B1F800C00CEA03069E4221D183001F
:100520004FF00F0C0CFA03F7BC4305FA03FC4CEA3E
:10053000040491F803C0BCF1280F05D100F1080CA8
:1005400008FA0CF8C2F8148091F803C0BCF1480F07
:1005500007D100F1080C4FF0010808FA0CF8C2F8B6
:100560001080401C0828CED35460BDE8F081416162
:1005700070470161704700BFFEE700BFFEE77047AC
:1005800070B5002100230F22C47804B3154C2468F1
:1005900004F4E064C4F5E064210AC1F10403CA4034
:1005A000447804FA03F184781440214309010E4C85
:1005B0000678A155047804F01F050124AC400578A5
:1005C0006D11AD0005F1E025C5F8004109E00478A2
:1005D00004F01F050124AC40044D0678761145F85F
:1005E000264070BD0CED00E000E400E080E100E09A
:1005F00002490143024A1160704700000000FA05F9
:100600000CED00E038B50121202000F0B9F80121FF
:10061000080200F0B5F810208DF8030003208DF8D3
:100620000200002415E00C4830F83400ADF800005A
:10063000094901EBC40148686946FFF70DFF064A06
:1006400032F8341002EBC4025068FFF792FF601CCE
:10065000C4B2052CE7DB38BDCC00002010B5022069
:1006600000F010F84FF4FA7001F008FA022000F0E0
:1006700017F800221C21024800F050F810BD0000BD
:10068000F400002010B50446044A32F8341002EB9E
:10069000C4025068FFF76BFF10BD0000CC000020C3
:1006A00010B50446044A32F8341002EBC402506814
:1006B000FFF75FFF10BD0000CC00002070B50446BE
:1006C0000D461DB10320FFF7EBFF02E00320FFF70B
:1006D000E7FF80211048FFF74CFF002613E00020C1
:1006E000FFF7D0FF04F0800018B10120FFF7D8FF1A
:1006F00002E00120FFF7C6FF0020FFF7C3FF6006FE
:10070000040E701CC6B2082EE9DB0420FFF7C8FFF8
:100710000320FFF7C5FF70BD002001402DE9F04127
:1007200004460D461646002706E020783146FFF7BE
:10073000C5FF641C781CC7B2AF42F6DBBDE8F08190
:1007400029B1064A52690243044B5A6104E0034A44
:1007500052698243014B5A61704700000010024009
:1007600029B1064AD2690243044BDA6104E0034A24
:10077000D2698243014BDA617047000000100240E9
:1007800029B1064A92690243044B9A6104E0034A84
:1007900092698243014B9A61704700000010024049
:1007A00030B500210022002400232D4D6D6805F096
:1007B0000C0121B1042905D0082923D105E0294DD8
:1007C000056022E0274D05601FE0254D6D6805F4AA
:1007D0007012234D6D6805F48034022505EB9242BA
:1007E0001CB9214D554305600BE01D4D6D6805F4A6
:1007F00000351DB11C4D5543056002E0194D5543B0
:10080000056002E0174D056000BF00BF144D6D6824
:1008100005F0F0010909154D6B5C0568DD40456088
:100820000F4D6D6805F4E061090A104D6B5C456879
:10083000DD4085600A4D6D6805F46051C90A0B4DB5
:100840006B5C4568DD40C560054D6D6805F4404151
:10085000890B074D6B5CC568B5FBF3F5056130BDD1
:100860000010024000127A0000093D001400002030
:100870002400002010B5421E104B03EB82121278A8
:100880003F2A14DA421E03EB82130C4C04EB821253
:100890001278521C9954421E234603EB821212789E
:1008A000521CD3B2421E04EB8212137005E04023A7
:1008B000421E024C04EB8212137010BD780100201E
:1008C00010B500F001F810BD0CB5002001900090AB
:1008D0003348006840F480303149086000BF304838
:1008E000006800F4003000900198401C01900098CE
:1008F00018B90198B0F5A06FF1D12948006800F44B
:10090000003010B10120009001E00020009000981C
:10091000012843D12348006840F0100021490860B5
:100920000846006820F0030008600846006840F0B0
:10093000020008601A484068194948600846406843
:1009400048600846406840F4806048600846406857
:1009500020F47C1048600846406840F4E810486085
:100960000846006840F08070086000BF0C480068CE
:1009700000F000700028F9D00948406820F003001A
:10098000074948600846406840F00200486000BFE0
:100990000348406800F00C000828F9D10CBD0000A5
:1009A000001002400020024010B51348006840F0DB
:1009B00001001149086008464068104908400E4986
:1009C0004860084600680E4908400B490860084620
:1009D000006820F4802008600846406820F4FE008B
:1009E00048604FF41F008860FFF76AFF4FF0006017
:1009F0000449086010BD0000001002400000FFF82C
:100A0000FFFFF6FE08ED00E01CB504464FF4407011
:100A1000FFF7EEFDFFF760FCFFF757FC0022042113
:100A2000084601F00DFB1B4908600322002101204C
:100A300001F006FB184908601848042118A3402259
:100A4000CDE900101AA11D4801F066FD1C480A21DD
:100A500000234022CDE900101AA11C4801F05CFDE2
:100A60000D48006878B10B48006860B10B48006819
:100A700048B11348006830B115A000F06BFB0020AE
:100A800001F0EAF804E016A000F064FB00BFFEE706
:100A90001CBD000094000020900000208800002071
:100AA00055736172745F53656E645F5461736B005C
:100AB000557361727453656E64000000E5100008A0
:100AC0008C00002055736172745278003510000854
:100AD00053797374656D5F496E69740D0A00000087
:100AE00053797374656D496E69745F466C617365A3
:100AF0000D0A00000022411E024B03EB81110A7017
:100B0000704700003802002038B50020009040F205
:100B10002551164800F06DF9012826D1134800F040
:100B200067FAC4B221460120FFF7A4FE012000F0BD
:100B300079FA0446012000F075FA0078205C0A2852
:100B40000ED169460A48006801F060FB684638B17A
:100B50004FF0805007490860BFF34F8FBFF36F8F8E
:100B600040F22551014800F043F838BD00380140FB
:100B70009000002004ED00E010B540F22551094836
:100B800000F037F901280CD1074800F031FAC4B25F
:100B900021460220FFF76EFE40F22551024800F088
:100BA00027F810BD003801400044004010B540F265
:100BB0002551094800F01DF901280CD1064800F024
:100BC00017FAC4B221460320FFF754FE40F2255124
:100BD000014800F00DF810BD004800400022411E01
:100BE000024B03EB81110A7070470000780100206E
:100BF00010B50022002340F66A14A14200D100BFC4
:100C00000A1201249440A3B2DC43048010BD21B138
:100C1000828942F40052828104E082894DF6FF739A
:100C20001A408281704700001FB501218803FFF739
:100C3000A7FD01214804FFF793FD01218804FFF778
:100C40008FFD4FF4E13000900020ADF80C000C2037
:100C5000ADF80A000020ADF80800ADF80600ADF8C8
:100C60000400002407E0054951F82400694600F01B
:100C70000FF9601CC4B2032CF5DB1FBDB4000020CB
:100C80001AB1838A0B43838202E0838A8B43838277
:100C90007047000010B58CB001210846FFF750FDE9
:100CA00001210220FFF74CFD00200490102003904A
:100CB00000200B900890802006900020099007905B
:100CC00005904FF480500A9000241BE0234850F810
:100CD0002400001D0190224800EB8410401C02906B
:100CE000204951F8240001A9FFF797FB1B4951F84F
:100CF000240001228021FFF7C3FF0220FFF752FBEF
:100D0000601CC4B2032CE1DB01208DF80300082035
:100D10008DF8010000208DF802000E208DF80000F3
:100D20006846FFF72DFC11208DF800006846FFF79C
:100D300027FC0C208DF800006846FFF721FC0024FA
:100D400008E0084951F8240001220221FFF75CFB6A
:100D5000601CC4B2032CF4DB0CB010BDB400002046
:100D600038020020C000002008B501210420FFF750
:100D700007FD01210820FFF703FD18208DF803006F
:100D800003208DF802004FF40170ADF800006946B1
:100D90000F48FFF761FB4FF48060ADF80000694633
:100DA0000C48FFF759FB04208DF803004FF48160D5
:100DB000ADF8000069460648FFF74EFB4FF40060AF
:100DC000ADF8000069460348FFF746FB08BD000088
:100DD00000080140000C014002460020B1F5007FF0
:100DE00000D100BF13880B400BB1012000E00020B0
:100DF000704770B50246002400230025002040F60D
:100E00006A16B14200D100BFC1F3421501F01F03C1
:100E1000012606FA03F3012D02D19689334006E03C
:100E2000022D02D1168A334001E0968A33400C121B
:100E3000012606FA04F41688344013B10CB10120DF
:100E400000E0002070BDF0B5034600240026002518
:100E5000002040F66A17B94200D100BF1846C1F31E
:100E6000421401F01F06012707FA06F5012C01D1F3
:100E70000C3004E0022C01D1103000E014301AB123
:100E800007682F43076002E00768AF430760F0BDC3
:100E90002DE9F04786B005460E460024A24600BF65
:100EA000A1460027B08900B100BF2F462C8A4CF61E
:100EB000FF700440F08804432C82AC894EF6F31096
:100EC0000440B08831890843718908430443AC81E8
:100ED000AC8A4FF6FF400440B0890443AC8201A8BD
:100EE000FFF75EFC1F48874202D1DDF810A001E049
:100EF000DDF80CA0A88900F4004040B10AEBCA005C
:100F000000EB0A1031684900B0FBF1F807E00AEB8A
:100F1000CA0000EB0A1031688900B0FBF1F86420C8
:100F2000B8FBF0F004012009642101FB1089A889B5
:100F300000F4004040B1322000EBC900B0FBF1F0FA
:100F400000F00700044308E0322000EB09106421A0
:100F5000B0FBF1F000F00F0004432C8106B0BDE8B7
:100F6000F08700000038014008B501208DF803002B
:100F70008DF8010000208DF8020025208DF800007A
:100F80006846FFF7FDFA26208DF800006846FFF757
:100F9000F7FA27208DF800006846FFF7F1FA0122E2
:100FA00040F225510F48FFF74EFF012240F2255134
:100FB0000D48FFF748FF012240F225510B48FFF78B
:100FC00042FF40F225510748FFF712FE40F225513B
:100FD0000548FFF70DFE40F225510448FFF708FED3
:100FE00008BD0000003801400044004000480040B7
:100FF00001468888C0F308007047C1F30802828068
:10100000704700BFFEE700000146481E044A02EB9D
:101010008010007808B1012070470020FCE7000034
:10102000380200200146481E014A02EB801070473A
:101030007801002008B54FE04FF0FF3127480068E5
:1010400001F0A2F90120FFF7EDFF05460020ADF801
:1010500002008DF80000002414E0BDF8020000EB4F
:1010600080004FF6FF7101EA4000ADF80200BDF8C4
:101070000210281940783038084480B2ADF80200D8
:10108000601CC4B2281940782028E6D1002613E05D
:101090009DF8000000EB80004006000E8DF8000077
:1010A0009DF8001028193044807830380844C0B2C8
:1010B0008DF80000701CC6B22819304480780A28C8
:1010C000E6D10120FFF78AFD00231A46694604484D
:1010D000006801F00FF800BFAEE7000090000020AC
:1010E0009400002004461DE000220F490F480068CC
:1010F00001F0C8F80C480178002000F085FE0020BF
:1011000000F0E6FC0546084842882B46214608A028
:1011100000F020F8044840880521B0FBF1F528468E
:1011200000F080FDE0E7000098000020940000201F
:1011300025730D0A44656C61795F54696D653A25C4
:10114000640D0A5072696F726974793A25640D0AE8
:10115000000000000FB4054B10B503A9044A029823
:1011600000F018F810BC5DF814FB00004D130008E7
:101170007401002002E008C8121F08C1002AFAD139
:1011800070477047002001E001C1121F002AFBD107
:10119000704700002DE9FF4F8BB09A460F46054679
:1011A000002606E025280BD052460D9990476D1C6D
:1011B000761C28780028F5D10FB03046BDE8F08FB6
:1011C0000024A0460122604900E0044315F8013FD5
:1011D000203B02FA03F00842F7D128782E2817D1D5
:1011E00015F8010F44F004042A280ED06FF02F02E6
:1011F0002878A0F1300109290AD808EB880102EB10
:10120000410100EB01086D1CF2E757F8048B6D1CDF
:10121000287869283ED006DC0028CDD063280BD082
:10122000642804D136E0732810D075284BD052467C
:101230000D999047761C85E017F8040B8DF8000097
:1012400000208DF80100E946012003E057F8049BD7
:101250004FF0FF3061074FF0000401D40AE0641C36
:1012600044450DDA8442FADB19F804100029F6D15E
:1012700006E0641C8442FCDB19F804100029F8D154
:10128000264404E019F8010B52460D999047641E5C
:10129000F8D257E001CF4FF00A0B002802DA4042A3
:1012A0002D2102E0210504D52B218DF824100121E8
:1012B00003E0E10705D02021F7E70DF120090891AF
:1012C0000CE00021F9E701CF4FF00A0BF9E759468E
:1012D000FEF7A8FF01F1300209F8012D0028F6D130
:1012E000ADEB090000F1200B600701D44FF00108BD
:1012F000D84502DDA8EB0B0000E00020804600246A
:1013000006E009A85246005D0D999047641C761CC2
:1013100008988442F5DB04E0302052460D9990474E
:10132000761CB8F10001A8F10108F5DC05E019F818
:10133000010B52460D999047761CBBF10001ABF1B1
:10134000010BF4DC6D1C34E70928010070B504467C
:101350000D4600BF0120FFF757FE0028FAD1A1B2C9
:101360000548FFF74AFE00BF80210348FFF734FD20
:101370000028F9D0204670BD003801401CB5074850
:101380000F2100234022CDE9001005A1074801F0FC
:10139000C3F800F0B3FD00BFFEE7000084000020AA
:1013A00053797374656D496E69740000090A000809
:1013B0002DE9F04105460E461C4807681C480068A8
:1013C000001D00F071FB50B91948006890F82C100E
:1013D0000120884017490968814316480160681C4C
:1013E00038B936B112480168091D134800F0ACFB4A
:1013F0001AE07C190E4800684460BC4207D20C48D1
:101400000168091D0D48006800F084FB0CE00848E5
:101410000168091D0A48006800F07CFB0948006863
:10142000844201D207480460BDE8F08148010020F1
:10143000340100204C010020884400203C010020A1
:10144000380100206401002010B5044600F088FB3C
:1014500023480068401C224908602248006840B9BF
:10146000204804600846006801280DD100F080F98A
:101470000AE01D48006838B91A480068C06AE16A85
:10148000884201D81748046018480068401C174972
:10149000086094F82C100120884015490968084319
:1014A00013490860E16A01EB8101124A02EB8100F5
:1014B000211D00F049FB00F065FB0B48006868B196
:1014C00008480068C06AE16A884207D24FF080503D
:1014D00009490860BFF34F8FBFF36F8F10BD000045
:1014E0004401002034010020500100206001002050
:1014F0004C010020F842002004ED00E010B516E099
:1015000000F02EFB0C48C068C468201D00F0CCFA27
:101510000A480068401E0949086009480068401EE2
:101520000749086000F02EFB204600F05FF80448F1
:1015300000680028E4D110BD74440020440100205C
:101540004001002070B504460D46206C70B1216C3E
:10155000E0680144E160D4E90210884201D32168C7
:10156000E1602846226CE168FEF74AFE70BD2DE975
:10157000F04104460F4615464FF00008A66B206C5C
:1015800048B9206800282CD1A06801F083F8804673
:101590000020A06025E07DB93946226C6068FEF726
:1015A0002FFE216C606808446060D4E90101884224
:1015B00017D32068606014E03946226CE068FEF7BB
:1015C0001FFE216CE068411AE1602168E0688842F2
:1015D00003D2216CA068411AE160022D01D106B14D
:1015E000761E701CA0634046BDE8F08110B504462D
:1015F000206B00F0D7FA204600F0D4FA10BD014667
:101600004A6A22B10A6B1268C2F1100000E00020A1
:101610007047000030B54FF48043174800F00704CE
:101620002CB1C01D20F00700134C041B1B1B0246ED
:10163000124C22600024114D6C60D018083820F044
:1016400007000F4C206000240D4D2D686C600C4D80
:101650002D682C601146441A4C60094C24680C60BB
:10166000084D4C682C60084D4C682C604FF00044CD
:10167000064D2C6030BD0000F8020020140100204F
:101680001C01002024010020200100203001002046
:1016900000BFFFF733FF064800680128F9D94FF073
:1016A000805004490860BFF34F8FBFF36F8FF0E79E
:1016B000F842002004ED00E02DE9F04106460D4619
:1016C00017469846069C0DB9246000E02760E66343
:1016D00025640121204600F0CDFCBDE8F0812DE914
:1016E000FF5F80460E469146DDE90E7A109CA9F117
:1016F0000100216B01EB800B2BF0070B86B100255D
:1017000007E0715D04F134004155705D00B902E0FD
:101710006D1C102DF5D300BF00214320015502E0C0
:10172000002084F83400102F00D30F27E76267648D
:101730000020A064201D00F0EAF904F1180000F078
:10174000E6F92461C7F11000A06164620020E06442
:1017500084F8500041465846039A00F07DF9206015
:10176000BAF1000F01D0CAF80040BDE8FF9F0000A9
:1017700010B5002407E004EB84010F4A02EB81005E
:1017800000F0B8F9641C102CF5D30C4800F0B2F945
:101790000B4800F0AFF90B4800F0ACF90A4800F034
:1017A000A9F90A4800F0A6F9044809490860044864
:1017B0000849086010BD0000F842002038440020AD
:1017C0004C440020604400207444002088440020E1
:1017D000380100203C01002010B50146164800E009
:1017E000006803688B42FBD30246436813448B4274
:1017F00004D143684C682344436001460A464B6861
:1018000013440468A34211D10C4C03682468A3421A
:1018100008D04B680468646823444B6003681B6805
:101820000B6005E0054B1B680B6001E003680B6073
:10183000884200D0016010BD140100201C0100206E
:1018400070B5054600F08CF9A86B08B9012400E0DA
:10185000002400F097F9204670BD70B5054600F0F1
:101860007FF9A86BE96B884201D1012400E00024D4
:1018700000F088F9204670BD09480068006808B982
:10188000012000E0002020B14FF0FF300549086042
:1018900005E003480068C0680068024908607047B6
:1018A000380100206401002000BFBF2080F31188B0
:1018B000BFF34F8FBFF36F8F00BF00BFFEE770B560
:1018C000044600F04DF994F9455010E0606A08B9FB
:1018D000012000E0002038B904F1240000F070FF7E
:1018E00018B100F02BFA00E003E0681E45B2002DAD
:1018F000ECDC00BFFF2084F8450000F043F900F065
:101900002FF994F9445010E0206908B9012000E053
:10191000002048B904F1100000F052FF08B100F0B7
:101920000DFA681E45B200E001E0002DECDC00BFBE
:10193000FF2084F8440000F025F970BD2DE9F04146
:1019400004464FF0000800F00FFB3548006808B966
:10195000FFF760FE33480068204000285BD1B4B137
:1019600004F10800A04212D9083404F0070078B14D
:1019700004F00700C0F108002044A04205D904F09B
:101980000700C0F10800044402E0002400E0002445
:10199000002C40D02448006884423CD8234E304676
:1019A000056801E02E462D686868A04202D22868CA
:1019B0000028F7D11A48006885422CD0306800F121
:1019C0000808286830606868001B102807D92F199C
:1019D0006868001B78606C603846FFF7FDFE1249AE
:1019E00068680968081A10490860084600681049C4
:1019F0000968884203D20C4800680D49086009490B
:101A00006868096808436860002028600948006821
:101A1000401C0849086000F013FF4046BDE8F08113
:101A20001C010020300100202001002014010020B2
:101A300024010020280100200648006830B1054933
:101A4000096801F14800896C491C0160014800687F
:101A50007047000034010020001F4FF080730360C6
:101A6000001F21F001030360001F034B03601438C3
:101A70000260203870470000A918000800B503462E
:101A800004E04FF47A7000F004F85B1E002BF8D1EC
:101A900000BD06E0482101E04A1E91B20029FBD1B9
:101AA000401E0028F6D1704701460A69D1E901308D
:101AB0009860D1E9010358605068884201D1886874
:101AC0005060002008611068401E10601068704768
:101AD00070B5044600F044F814B90548006800E009
:101AE00020460646F56A00F04DF8284670BD000015
:101AF0003401002000F1080141604FF0FF318160A6
:101B000000F10801C16001610021016070470021FE
:101B10000161704710B502460B685C1C0CB9106976
:101B200007E002F1080000E04068446824689C4235
:101B3000FAD944684C604C68A160886041600A61D1
:101B40001468641C146010BD42684A6093688B601E
:101B5000936859609160086103685B1C036070477B
:101B600000BFBF2080F31188BFF34F8FBFF36F8F8B
:101B700000BF03480068401C01490860704700002E
:101B80001001002006480068401E0549086008460C
:101B9000006820B9002080F3118800BF00BF7047A3
:101BA0001001002070B506463546FEB1083D2C46B2
:101BB0000F49606809680840C0B12068B0B90C4995
:101BC000606809688843606000F0CEF90949606880
:101BD00009680844074908602046FFF7FDFD0648EC
:101BE0000068401C0449086000F02AFE70BD000037
:101BF00030010020200100202C01002000204FF0A7
:101C0000E0210861886106480068C821B0FBF1F056
:101C1000401E4FF0E0214861072008617047000036
:101C20000000002070B50446002544B100F09CF986
:101C300000212046FFF7BCFB00F002FE05463DB93F
:101C40004FF0805003490860BFF34F8FBFF36F8F91
:101C500070BD000004ED00E070B50546FFF780FFA1
:101C600015B92748006800E028460446201DFFF704
:101C70001BFF78B9E06A00EB8000224951F8200090
:101C800040B994F82C10012088401F49096881430D
:101C90001D480160A06A18B104F11800FFF704FFA5
:101CA0001A480068401C19490860154800688442B9
:101CB00009D1211D1648FFF747FF16480068401C50
:101CC0001449086009E014480068401E1249086081
:101CD0002046FFF78BFCFFF7CFFDFFF753FF0F48C0
:101CE000006858B106480068844207D14FF0805020
:101CF0000B490860BFF34F8FBFF36F8F70BD0000BB
:101D000034010020F84200204C0100206001002036
:101D100074440020400100204401002050010020B4
:101D200004ED00E003490968016003490968416066
:101D3000704700005C01002048010020012001499B
:101D4000086070475801002070B505460C460548EC
:101D5000016818312846FFF7DDFE01212046FFF714
:101D600027FB70BD340100202DE9F04706460F46E1
:101D700034464FF00109002E40D0606CB84201D2C9
:101D80003D4600E0656CE06AA84237D0A06C0128AF
:101D900034D1D4F82C80E562A06900F0004010B97D
:101DA000C5F11000A06108EB8801154A02EB810122
:101DB0006069884201D1012000E00020F0B1201DBF
:101DC000FFF772FE40B994F82C10012088400D49AD
:101DD000096881430B48016094F82C100120884069
:101DE00008490968084307490860E16A01EB810175
:101DF000034A02EB8100211DFFF7A6FEBDE8F08734
:101E0000F84200204C0100202DE9F04780460D46A5
:101E10004FF00009102D00D30F25FFF7A1FEB8F1F8
:101E2000000F02D13148006800E040460446666C6D
:101E3000AE4256D0B5420BD92C48006884420DD032
:101E40002A480068C06AA84208D84FF0010905E096
:101E500026480068844201D14FF00109E76AE16A2F
:101E6000606C884200D1E5626564A06900F00040C2
:101E700010B9C5F11000A06107EB87011C4A02EB05
:101E800081016069884201D1012000E00020E0B1B9
:101E9000201DFFF709FE30B90120B8401549096837
:101EA00081431448016094F82C10012088401149A6
:101EB000096808430F490860E16A01EB81010C4A97
:101EC00002EB8100211DFFF73FFEB9F1000F07D0A3
:101ED0004FF0805008490860BFF34F8FBFF36F8FFA
:101EE00000BFFFF74FFEBDE8F0870000340100207F
:101EF000F84200204C01002004ED00E01CB512481F
:101F000000210B468022CDE9001010A1114800F0FD
:101F100003FB0446012C14D100BFBF2080F31188BD
:101F2000BFF34F8FBFF36F8F00BF4FF0FF300A49F1
:101F3000086001200949086000200949086000F094
:101F40004BF8084800681CBD6801002049444C4516
:101F500000000000911600086401002050010020DC
:101F6000480100206C01002002480068401C014923
:101F700008607047700100201248006818B1012005
:101F8000114908601DE000200F4908600F480068F3
:101F9000B0FA80F0C0F11F0101EB81020C4B03EBA2
:101FA000820042685268426000F10802436893422E
:101FB00002D14268526842604268D268054B1A609A
:101FC00000BF704770010020580100204C01002024
:101FD000F84200203401002010B50A48006840F49F
:101FE0007F00084908600846006840F07F400860AC
:101FF000FFF704FE002004490860FEF7B5F8002052
:1020000010BD000020ED00E01001002010B500BF61
:10201000BF2080F31188BFF34F8FBFF36F8F00BFD6
:1020200000F0AAFA18B14FF080500449086000BFD0
:10203000002080F3118800BF10BD000004ED00E017
:102040002DE9F84305460E46174605FB06F909F14A
:102050004800FFF773FC04464CB1A04608F148085D
:102060003B464246314628460094FFF725FB204672
:10207000BDE8F88370B505460E462C46FFF770FDA7
:10208000D4E90F12206801FB0200A0600020A063C9
:1020900020686060E06B401E226C216800FB02112A
:1020A000E160FF2084F8440084F845009EB920696F
:1020B00008B9012000E00020A8B904F1100000F0E8
:1020C0007FFB80B14FF0805009490860BFF34F8F0C
:1020D000BFF36F8F07E004F11000FFF70BFD04F171
:1020E0002400FFF707FDFFF74DFD012070BD000044
:1020F00004ED00E02DE9FF4383B0074688461D4606
:102100004FF000093C4600BFFFF72AFDA06BE16BD2
:10211000884201D3022D28D12A4641462046FFF7A6
:1021200026FA0646606A08B9012000E0002068B976
:1021300004F1240000F044FB88B14FF08050324994
:102140000860BFF34F8FBFF36F8F08E03EB14FF0D1
:1021500080502D490860BFF34F8FBFF36F8FFFF79B
:1021600011FD012007B0BDE8F083059818B9FFF70D
:1021700009FD0020F6E7B9F1000F04D101A8FFF72F
:10218000D1FD4FF00109FFF7FDFCFFF7EDFEFFF772
:10219000E7FC94F94400401C10B9002084F8440086
:1021A00094F94500401C10B9002084F84500FFF761
:1021B000E9FC05A901A800F07FF9F0B92046FFF776
:1021C0004CFBA0B104F110000599FFF7BDFD2046BE
:1021D000FFF775FB00F034FB002895D14FF08050DD
:1021E00009490860BFF34F8FBFF36F8F8CE720461C
:1021F000FFF765FB00F024FB86E72046FFF75FFB57
:1022000000F01EFB0020ADE704ED00E02DE9F047F3
:1022100005460E462C4600BFBF21EFF3118081F327
:102220001188BFF34F8FBFF36F8F00BF8046D4F884
:102230003890E06B48451DD994F945A009F101009B
:10224000A0630AF1010070B9606A08B9012000E0DA
:10225000002068B904F1240000F0B2FA40B13EB1A8
:102260000120306004E00AF1010040B284F845002A
:10227000012700E0002700BF88F3118800BF38461F
:10228000BDE8F0872DE9F74183B005460F464FF0D2
:1022900000082C4600BFFFF763FCA66BF6B1394679
:1022A0002046FFF74FF9701EA063206908B901208E
:1022B00000E0002060B904F1100000F081FA38B1AC
:1022C0004FF080502F490860BFF34F8FBFF36F8FDF
:1022D000FFF758FC012006B0BDE8F081059818B959
:1022E000FFF750FC0020F6E7B8F1000F04D101A879
:1022F000FFF718FD4FF00108FFF744FCFFF734FE2D
:10230000FFF72EFC94F94400401C10B9002084F81B
:10231000440094F94500401C10B9002084F84500A1
:10232000FFF730FC05A901A800F0C6F8F0B9204677
:10233000FFF786FAA0B104F124000599FFF704FD28
:102340002046FFF7BCFA00F07BFA0028A3D14FF03B
:1023500080500C490860BFF34F8FBFF36F8F9AE72F
:102360002046FFF7ACFA00F06BFA94E72046FFF73F
:10237000A6FA00F065FA2046FFF762FA00288AD034
:102380000020A8E704ED00E02DE9F34182B0054606
:1023900000272C46B84600BFFFF7E2FBA66BFEB154
:1023A000701EA063206810B9FFF746FBA06020698B
:1023B00008B9012000E0002060B904F1100000F02D
:1023C000FFF938B14FF080503A490860BFF34F8FA2
:1023D000BFF36F8FFFF7D6FB012004B0BDE8F0819B
:1023E000039818B9FFF7CEFB0020F6E71FB968463F
:1023F000FFF798FC0127FFF7C5FBFFF7B5FDFFF7D7
:10240000AFFB94F94400401C10B9002084F844004C
:1024100094F94500401C10B9002084F84500FFF7EE
:10242000B1FB03A9684600F047F840BB2046FFF720
:1024300007FAF0B1206838B9FFF792FBA06800F006
:1024400063F98046FFF79EFB04F124000399FFF730
:102450007BFC2046FFF733FA00F0F2F900289BD10D
:102460004FF0805013490860BFF34F8FBFF36F8F59
:1024700092E72046FFF723FA00F0E2F98CE72046C6
:10248000FFF71DFA00F0DCF92046FFF7D9F9002824
:1024900082D0B8F1000F0BD0FFF762FB2046FFF7A8
:1024A000AEF806463146A068FFF75EFCFFF76AFB10
:1024B000002092E704ED00E070B506460C46FFF7F9
:1024C0004FFB134802687068131A2068401C08B953
:1024D000002519E00F4930680968884206D0706805
:1024E000904203D80125002020600DE0206898422A
:1024F00007D92068C01A20603046FFF713FC00257A
:1025000002E0002020600125FFF73CFB284670BD5B
:10251000480100205C0100202DE9FF4F85B0804676
:1025200089461746DDE912ABB800FFF707FA064601
:1025300056B15420FFF702FA04460CB1266304E0BA
:102540003046FFF72FFB00E000247CB10020CDE9EE
:1025500000ABCDE902403A4649464046089BFFF7AA
:10256000BEF82046FEF770FF012501E04FF0FF3571
:10257000284609B0BDE8F08F2DE9F04100273A4820
:102580000068002867D139480068451C3748056055
:102590008DB93748D0F80080364800683449086063
:1025A0003448C0F8008034480068401C3249086054
:1025B000FFF762F900BF3148006885423BD300BF96
:1025C0002B480068006808B9012000E0002020B115
:1025D0004FF0FF30294908602CE025480068C068AA
:1025E000C4686668B54202D22448066022E0201D15
:1025F000FFF75AFAA06A18B104F11800FFF754FA6D
:1026000094F82C10012088401D49096808431C4992
:102610000860E16A01EB81011A4A02EB8100211D89
:10262000FFF792FA1849E06A0968C96A8842C7D375
:102630000127C5E700BF14480068C06A00EB8000AE
:10264000104951F82000012800D901270F480068DF
:1026500000B1012704E00E480068401C0C490860E6
:102660003846BDE8F08100007001002048010020DC
:10267000380100203C0100205C01002064010020A2
:102680004C010020F84200203401002058010020B5
:102690005401002070B505462C46002675B3A06C89
:1026A000401EA064616CE06A884227D0A06C28BB01
:1026B000201DFFF7F9F940B994F82C10012088404B
:1026C0000F49096881430E480160606CE062E06A6E
:1026D000C0F11000A06194F82C1001208840084936
:1026E0000968084306490860E16A01EB8101054A6F
:1026F00002EB8100211DFFF727FA0126304670BD4D
:102700004C010020F842002070B505462C460026FA
:10271000002D4DD02749E06A0968C96A884240D235
:10272000A06900F0004028B922480068C06AC0F1E2
:102730001000A061E16A01EB81011F4A02EB8101F7
:102740006069884201D1012000E0002018B3201DFB
:10275000FFF7AAF940B994F82C10012088401749D6
:10276000096881431548016012480068C06AE06248
:1027700094F82C10012088401049096808430F493B
:102780000860E16A01EB81010B4A02EB8100211D27
:10279000FFF7DAF903E007480068C06AE062012643
:1027A00006E00449606C0968C96A884200D20126C3
:1027B000304670BD34010020F84200204C0100205A
:1027C00070B50646F068C46804F11800FFF76CF9AC
:1027D00015480068A8B9201DFFF766F994F82C1079
:1027E0000120884011490968084310490860E16ADE
:1027F00001EB81010E4A02EB8100211DFFF7A4F9D4
:1028000004E004F118010B48FFF79EF90A49E06A59
:102810000968C96A884204D901250120074908606E
:1028200000E00025284670BD700100204C0100200A
:10283000F8420020604400203401002058010020AC
:1028400070B500240026FFF78BF92E480068401E63
:102850002C4908600846006800284FD12A480068C3
:1028600000284BD024E02948C068C46804F118004F
:10287000FFF71AF9201DFFF717F994F82C10012023
:10288000884023490968084321490860E16A01EB4F
:102890008101204A02EB8100211DFFF755F91E49F5
:1028A000E06A0968C96A884202D301201B490860AE
:1028B0001648006808B9012000E000200028D2D0A6
:1028C0000CB1FEF7D9FF1648056865B100BFFFF7E8
:1028D00053FE10B10120114908606D1E002DF6D184
:1028E00000200F4908600D48006838B10126300704
:1028F0000C490860BFF34F8FBFF36F8FFFF742F9AA
:10290000304670BD7001002044010020604400206A
:102910004C010020F8420020340100205801002022
:102920005401002004ED00E04829000800000020C8
:102930007801000074020008BC290008780100201A
:1029400028470000841100081184A24A0468090184
:10295000020304060708090C69101502040608148E
:102960003801401244124012481340441C02408077
:10297000041A1C041132201A141C4A800842082C24
:102980002001401729082917290812AE100B104002
:1029900081CFA1C8A6A83FD3001014D580D9F1DA01
:1029A00012DB4020028D14A4A6AF12060B172C01D7
:0C29B0007409598C1AAA010158B20F00DA
:0400000508000131BD
:00000001FF
