:020000040800F2
:10000000A84C0020DD0100082F0500082705000886
:100010002B050008B9020008C71000080000000006
:100020000000000000000000000000004501000882
:100030000704000800000000890100088519000875
:10004000F7010008F7010008F7010008F7010008B0
:10005000F7010008F7010008F7010008F7010008A0
:10006000F7010008F7010008F7010008F701000890
:10007000BD020008F7010008ED020008F7010008C2
:10008000F701000821030008F7010008F701000844
:10009000F7010008F7010008F7010008F701000860
:1000A000F7010008F7010008F7010008F701000850
:1000B000F7010008F7010008F7010008F701000840
:1000C000F7010008F7010008F7010008F701000830
:1000D000F7010008E10B0008510C0008850C00082E
:1000E000F7010008F7010008F7010008F701000810
:1000F000F7010008F7010008F7010008F701000800
:10010000F7010008F7010008F7010008F7010008EF
:10011000F7010008F7010008F7010008F7010008DF
:10012000F7010008F7010008F7010008F7010008CF
:10013000DFF80CD000F064F8004800478111000897
:10014000A84C0020224B19680868B0E8F00F80F333
:100150000988BFF36F8F4FF0000080F311884EF0D5
:100160000D0E70470000000006480068006880F32C
:10017000088862B661B6BFF34F8FBFF36F8F00DFA1
:1001800000BF00BF08ED00E0EFF30980BFF36F8F01
:100190000F4B1A6820E9F00F106008B54FF0BF0050
:1001A00080F31188BFF34F8FBFF36F8F01F0A0FB77
:1001B0004FF0000080F31188BDE808401968086816
:1001C000B0E8F00F80F30988BFF36F8F704700BF6E
:1001D0003C010020EFF3058070470000064880478F
:1001E00006480047FEE7FEE7FEE7FEE7FEE7FEE71C
:1001F000FEE7FEE7FEE7FEE7610A000831010008BE
:10020000064C074D06E0E06840F0010394E8070063
:1002100098471034AC42F6D3FFF78EFFC81D000894
:10022000E81D000870B58C1810F8015B15F0070385
:1002300001D110F8013B2A1106D110F8012B03E07F
:1002400010F8016B01F8016B5B1EF9D12B0705D487
:100250000023521E0DD401F8013BFAE710F8013BD0
:10026000CB1A921C03E013F8015B01F8015B521EEC
:10027000F9D5A142D8D3002070BD10B500F0CAF95D
:1002800000F0F4F910BD000010B500F0CFFD00F053
:100290002DFD00F0CBFE00F05FFD002407E00549D6
:1002A00051F82400012100F014FD601CC4B2032C9D
:1002B000F5DB10BDBC00002000BFFEE710B520201C
:1002C00000F064F801280ED1032000F07FFC0648FE
:1002D000806800684FF6FE7108400349896808602D
:1002E000202000F045F810BDB000002010B54FF4FC
:1002F000005000F04BF801280ED100F067FC0748D1
:10030000006800684FF6FE710840044909680860FB
:100310004FF4005000F02CF810BD0000B000002099
:1003200010B54FF0007000F031F801280FD1022015
:1003300000F04CFC0648406800684FF6FE7108402B
:100340000349496808604FF0007000F011F810BDD3
:10035000B000002000F0805111B10349086001E0B5
:100360000249486070470000040402400000024057
:1003700000F0805111B10349086001E00249486072
:1003800070470000040402400000024001460020C3
:10039000002201F0805313B1054B1A6801E0054BB0
:1003A0001A6802EA01030BB1012000E00020704747
:1003B00000040240000002401AB103680B430360CE
:1003C00002E003688B430360704710B500220268A7
:1003D00047F6F0739A430C6A8B6823430C692343F6
:1003E0004C6923438C692343CC6923434C6A2343E0
:1003F0008C6A23431A430260CB6843600B688360B6
:100400004B68C36010BD70472DE9F04102460025DE
:100410000026002000230024002791F803C00CF0E0
:100420000F0591F803C00CF0100CBCF1000F03D0C5
:1004300091F802C04CEA050591F800C0BCF1000F2C
:1004400031D0146800202BE04FF0010C0CFA00F3BF
:10045000B1F800C00CEA03069E4220D183004FF0A1
:100460000F0C0CFA03F7BC4305FA03FC4CEA040436
:1004700091F803C0BCF1280F06D14FF0010C0CFA23
:1004800000FCC2F814C00AE091F803C0BCF1480FA8
:1004900005D14FF0010C0CFA00FCC2F810C0401C52
:1004A0000828D1D31460B1F800C0BCF1FF0F34DDCF
:1004B000546800202EE000F1080C4FF0010808FA03
:1004C0000CF3B1F800C00CEA03069E4221D1830070
:1004D0004FF00F0C0CFA03F7BC4305FA03FC4CEA8F
:1004E000040491F803C0BCF1280F05D100F1080CF9
:1004F00008FA0CF8C2F8148091F803C0BCF1480F58
:1005000007D100F1080C4FF0010808FA0CF8C2F806
:100510001080401C0828CED35460BDE8F0814161B2
:1005200070470161704700BFFEE700BFFEE77047FC
:1005300070B5002100230F22C47804B3154C246841
:1005400004F4E064C4F5E064210AC1F10403CA4084
:10055000447804FA03F184781440214309010E4CD5
:100560000678A155047804F01F050124AC400578F5
:100570006D11AD0005F1E025C5F8004109E00478F2
:1005800004F01F050124AC40044D0678761145F8AF
:10059000264070BD0CED00E000E400E080E100E0EA
:1005A00002490143024A1160704700000000FA0549
:1005B0000CED00E070B500240CE0002506E0FF2003
:1005C000074901EBC4114855681CC5B2802DF6DB04
:1005D000601CC4B2082CF0DB00F05EF870BD0000B7
:1005E00000030020F0B58B18DCB27F2C01DC07285B
:1005F00000DDF0BD002307E00025054E06EBC01628
:100600005F18F5555D1CEBB29342F5DB00BFF0E7D8
:100610000003002038B50121202000F00DF9012150
:10062000080200F009F910208DF8030003208DF86E
:100630000200002415E00C4830F83400ADF800004A
:10064000094901EBC40148686946FFF7DDFE064A27
:1006500032F8341002EBC4025068FFF762FF601CEE
:10066000C4B2052CE7DB38BDD400002010B5022051
:1006700000F028F84FF4967000F0EEFF022000F032
:1006800099F800221C21034800F078F8FFF792FF48
:1006900010BD0000FC00002010B500240CE000217B
:1006A000204600F095F8064901EBC4100122802194
:1006B00000F064F8601CC4B2082CF0DB10BD000030
:1006C0000003002010B50446044A32F8341002EB4F
:1006D000C4025068FFF723FF10BD0000D4000020C3
:1006E00070B504460320FFF7EDFF0420FFF7EAFF93
:1006F000002513E00020FFF7E5FF04F0800018B1AB
:10070000012000F057F802E00120FFF7DBFF600650
:10071000040E002000F04EF8681CC5B2082DE9DB7D
:10072000032000F047F8042000F044F870BD70B5D5
:100730000446032000F03EF80420FFF7C3FF002525
:1007400012E00020FFF7BEFF04F0010018B1012005
:1007500000F030F802E00120FFF7B4FF6410002041
:1007600000F028F8681CC5B2082DEADB032000F071
:1007700021F8042000F01EF870BD00002DE9F041C2
:1007800004460E4617460FB1084D00E0084D4FF0E5
:10079000000806E02078A847641C08F1010000F07A
:1007A000FF08B045F6DBBDE8F08100002F07000828
:1007B000E106000810B50446044A32F8341002EB92
:1007C000C4025068FFF7ADFE10BD0000D400002049
:1007D00070B505460C4605F1B001C8B2FFF780FFC1
:1007E00004F0F001102242EA2110FFF779FF04F033
:1007F0000F00FFF775FF70BD29B1064A5269024329
:10080000044B5A6104E0034A52698243014B5A6126
:10081000704700000010024029B1064AD269024325
:10082000044BDA6104E0034AD2698243014BDA6186
:10083000704700000010024029B1064A9269024345
:10084000044B9A6104E0034A92698243014B9A6126
:10085000704700000010024030B500210022002443
:1008600000232D4D6D6805F00C0121B1042905D040
:10087000082923D105E0294D056022E0274D0560B8
:100880001FE0254D6D6805F47012234D6D6805F469
:100890008034022505EB92421CB9214D5543056079
:1008A0000BE01D4D6D6805F400351DB11C4D554321
:1008B000056002E0194D5543056002E0174D0560E3
:1008C00000BF00BF144D6D6805F0F0010909154D1A
:1008D0006B5C0568DD4045600F4D6D6805F4E061B7
:1008E000090A104D6B5C4568DD4085600A4D6D68F6
:1008F00005F46051C90A0B4D6B5C4568DD40C5606D
:10090000054D6D6805F44041890B074D6B5CC5686A
:10091000B5FBF3F5056130BD0010024000127A000E
:1009200000093D00140000202400002010B5421EE4
:10093000104B03EB821212783F2A14DA421E03EBAB
:1009400082130C4C04EB82121278521C9954421EF2
:10095000234603EB82121278521CD3B2421E04EBE0
:100960008212137005E04023421E024C04EB8212F7
:10097000137010BD8001002010B500F001F810BD0B
:100980000CB50020019000903348006840F480309E
:100990003149086000BF3048006800F40030009022
:1009A0000198401C0190009818B90198B0F5A06F0B
:1009B000F1D12948006800F4003010B10120009006
:1009C00001E0002000900098012843D123480068EE
:1009D00040F01000214908600846006820F003003C
:1009E00008600846006840F0020008601A48406845
:1009F000194948600846406848600846406840F425
:100A0000806048600846406820F47C1048600846D2
:100A1000406840F4E81048600846006840F0807084
:100A2000086000BF0C48006800F000700028F9D092
:100A30000948406820F003000749486008464068BC
:100A400040F00200486000BF0348406800F00C001E
:100A50000828F9D10CBD000000100240002002401F
:100A600010B51348006840F00100114908600846BD
:100A70004068104908400E494860084600680E4921
:100A800008400B4908600846006820F48020086090
:100A90000846406820F4FE0048604FF41F0088605C
:100AA000FFF76AFF4FF000600449086010BD0000C6
:100AB000001002400000FFF8FFFFF6FE08ED00E026
:100AC0001CB504464FF44070FFF76AFDFFF7DCFBEE
:100AD000FFF7D3FB082211460120FFF783FDFFF744
:100AE000DBFD00220421084600F066FF1E49086075
:100AF00003220021012000F05FFF1C490860002252
:100B000008210C2000F058FF1949086019480421F9
:100B100019A34022CDE900101BA11E4800F0E2FFFE
:100B20001D480A2100234022CDE900101BA11D48C9
:100B300000F0D8FF0D48006878B10B48006860B13C
:100B40000C48006848B11448006830B116A000F0A5
:100B5000D7FA002000F028FE04E017A000F0D0FA39
:100B600000BFFEE71CBD00009C0000209800002094
:100B7000A00000208800002055736172745F5365E7
:100B80006E645F5461736B00557361727453656E6C
:100B900064000000FD1000088C0000205573617295
:100BA00074527800F910000853797374656D5F49C9
:100BB0006E69740D0A00000053797374656D496E97
:100BC00069745F466C6173650D0A00000022411E66
:100BD000024B03EB81110A707047000040020020B5
:100BE00038B50020009040F22551164800F063F916
:100BF000012826D1134800F05DFAC4B22146012035
:100C0000FFF794FE012000F06FFA0446012000F087
:100C10006BFA0078205C0A280ED169460A48006801
:100C200000F024FF684638B14FF080500749086053
:100C3000BFF34F8FBFF36F8F40F22551014800F093
:100C400039F838BD003801409800002004ED00E07C
:100C500010B540F22551094800F02DF901280CD1BA
:100C6000074800F027FAC4B221460220FFF75EFED3
:100C700040F22551024800F01DF810BD0038014037
:100C80000044004010B540F22551094800F013F926
:100C900001280CD1064800F00DFAC4B22146032009
:100CA000FFF744FE40F22551014800F003F810BD63
:100CB0000048004010B50022002340F66A14A1420B
:100CC00000D100BF0A1201249440A3B2DC43048087
:100CD00010BD21B1828942F40052828104E08289F0
:100CE0004DF6FF731A408281704700001FB5012145
:100CF0008803FFF7A1FD01214804FFF78DFD0121C5
:100D00008804FFF789FD4FF4E13000900020ADF832
:100D10000C000C20ADF80A000020ADF80800ADF87A
:100D20000600ADF80400002407E0054951F824004E
:100D3000694600F00FF9601CC4B2032CF5DB1FBD3F
:100D4000BC0000201AB1838A0B43838202E0838AAD
:100D50008B4383827047000010B58CB00121084698
:100D6000FFF74AFD01210220FFF746FD0020049015
:100D70001020039000200B90089080200690002007
:100D80000990079005904FF480500A9000241BE0D2
:100D9000234850F82400001D0190224800EB8410E5
:100DA000401C0290204951F8240001A9FFF70DFBD7
:100DB0001B4951F8240001228021FFF7C3FF0220C4
:100DC000FFF7C8FA601CC4B2032CE1DB01208DF8E8
:100DD000030008208DF8010000208DF802000E208D
:100DE0008DF800006846FFF7A3FB11208DF8000086
:100DF0006846FFF79DFB0C208DF800006846FFF762
:100E000097FB002408E0084951F824000122022140
:100E1000FFF7D2FA601CC4B2032CF4DB0CB010BD97
:100E2000BC00002040020020C800002008B50121BD
:100E30000420FFF701FD01210820FFF7FDFC182029
:100E40008DF8030003208DF802004FF40170ADF817
:100E5000000069460F48FFF7D7FA4FF48060ADF8FD
:100E6000000069460C48FFF7CFFA04208DF8030014
:100E70004FF48160ADF8000069460648FFF7C4FAF8
:100E80004FF40060ADF8000069460348FFF7BCFA74
:100E900008BD000000080140000C0140024600208F
:100EA000B1F5007F00D100BF13880B400BB10120CA
:100EB00000E00020704770B50246002400230025A2
:100EC000002040F66A16B14200D100BFC1F34215BE
:100ED00001F01F03012606FA03F3012D02D19689C2
:100EE000334006E0022D02D1168A334001E0968A93
:100EF00033400C12012606FA04F41688344013B16C
:100F00000CB1012000E0002070BDF0B503460024C4
:100F100000260025002040F66A17B94200D100BF24
:100F20001846C1F3421401F01F06012707FA06F51F
:100F3000012C01D10C3004E0022C01D1103000E072
:100F400014301AB107682F43076002E00768AF4307
:100F50000760F0BD2DE9F04786B005460E46002437
:100F6000A24600BFA1460027B08900B100BF2F46AE
:100F70002C8A4CF6FF700440F08804432C82AC8924
:100F80004EF6F3100440B088318908437189084354
:100F90000443AC81AC8A4FF6FF400440B08904435F
:100FA000AC8201A8FFF758FC1F48874202D1DDF848
:100FB00010A001E0DDF80CA0A88900F4004040B1C9
:100FC0000AEBCA0000EB0A1031684900B0FBF1F8E7
:100FD00007E00AEBCA0000EB0A1031688900B0FB99
:100FE000F1F86420B8FBF0F004012009642101FB52
:100FF0001089A88900F4004040B1322000EBC900FC
:10100000B0FBF1F000F00700044308E0322000EBF1
:1010100009106421B0FBF1F000F00F0004432C81B3
:1010200006B0BDE8F08700000038014008B5012097
:101030008DF803008DF8010000208DF802002520B6
:101040008DF800006846FFF773FA26208DF800003F
:101050006846FFF76DFA27208DF800006846FFF715
:1010600067FA012240F225510F48FFF74EFF012297
:1010700040F225510D48FFF748FF012240F225516B
:101080000B48FFF742FF40F225510748FFF712FED9
:1010900040F225510548FFF70DFE40F22551044866
:1010A000FFF708FE08BD0000003801400044004082
:1010B0000048004001468888C0F308007047C1F32B
:1010C00008028280704700BFFEE700000146481E0C
:1010D000044A02EB8010007808B10120704700201C
:1010E000FCE70000400200200146481E014A02EBD6
:1010F000801070478001002000BFFEE700BFFEE7C0
:10110000014A024900F013B8511100087C01002087
:1011100002E008C8121F08C1002AFAD170477047C0
:10112000002001E001C1121F002AFBD170472DE908
:10113000F04116460F460446002503E03946B04705
:10114000641C6D1C20780028F8D12846BDE8F08189
:1011500070B504460D4600BF0120FFF7B7FF002819
:10116000FAD1A1B20548FFF7AAFF00BF80210348CA
:10117000FFF794FE0028F9D0204670BD00380140EA
:101180001CB507480F2100234022CDE9001005A11E
:10119000074800F0A7FC00F06DFB00BFFEE7000071
:1011A0008400002053797374656D496E6974000082
:1011B000C10A000810B5044600F094FA23480068FC
:1011C000401C224908602248006840B92048046059
:1011D0000846006801280DD100F022F90AE01D48F8
:1011E000006838B91A480068C06AE16A884201D8C4
:1011F0001748046018480068401C1749086094F8B4
:101200002C100120884015490968084313490860DB
:10121000E16A01EB8101124A02EB8100211D00F01D
:1012200055FA00F071FA0B48006868B10848006888
:10123000C06AE16A884207D24FF0805009490860CD
:10124000BFF34F8FBFF36F8F10BD00004C01002024
:101250003C010020580100206801002054010020BA
:101260000047002004ED00E010B516E000F03AFA67
:101270000C48C068C468201D00F004FA0A480068E1
:10128000401E0949086009480068401E0749086077
:1012900000F03AFA204600F00BF8044800680028F5
:1012A000E4D110BD7C4800204C0100204801002002
:1012B00010B50446206B00F037FA204600F034FAEF
:1012C00010BD000030B54FF48043174800F007040C
:1012D0002CB1C01D20F00700134C041B1B1B024641
:1012E000124C22600024114D6C60D018083820F098
:1012F00007000F4C206000240D4D2D686C600C4DD4
:101300002D682C601146441A4C60094C24680C600E
:10131000084D4C682C60084D4C682C604FF0004420
:10132000064D2C6030BD0000000700201C0100208D
:10133000240100202C010020280100203801002079
:1013400000BFFFF791FF064800680128F9D94FF068
:10135000805004490860BFF34F8FBFF36F8FF0E7F1
:101360000047002004ED00E02DE9F04106460D465F
:1013700017469846069C0DB9246000E02760E66396
:1013800025640121204600F031FBBDE8F0812DE904
:10139000FF5F80460E469146DDE90E7A109CA9F16A
:1013A0000100216B01EB800B2BF0070B86B10025B0
:1013B00007E0715D04F134004155705D00B902E051
:1013C0006D1C102DF5D300BF00214320015502E014
:1013D000002084F83400102F00D30F27E7626764E1
:1013E0000020A064201D00F06EF904F1180000F048
:1013F0006AF92461C7F11000A06164620020E06412
:1014000084F8500041465846039A00F013F92060D2
:10141000BAF1000F01D0CAF80040BDE8FF9F0000FC
:1014200010B5002407E004EB84010F4A02EB8100B1
:1014300000F03CF9641C102CF5D30C4800F036F990
:101440000B4800F033F90B4800F030F90A4800F07F
:101450002DF90A4800F02AF90448094908600448AF
:101460000849086010BD00000047002040480020E7
:1014700054480020684800207C4800209048002004
:10148000400100204401002010B50146164800E04C
:10149000006803688B42FBD30246436813448B42C7
:1014A00004D143684C682344436001460A464B68B4
:1014B00013440468A34211D10C4C03682468A3426E
:1014C00008D04B680468646823444B6003681B6859
:1014D0000B6005E0054B1B680B6001E003680B60C7
:1014E000884200D0016010BD1C01002024010020B2
:1014F00009480068006808B9012000E0002020B118
:101500004FF0FF300549086005E003480068C068F7
:101510000068024908607047400100206C0100200B
:1015200000BFBF2080F31188BFF34F8FBFF36F8FD1
:1015300000BF00BFFEE700002DE9F04104464FF078
:10154000000800F0CDF93548006808B9FFF7BAFE89
:1015500033480068204000285BD1B4B104F1080092
:10156000A04212D9083404F0070078B104F0070053
:10157000C0F108002044A04205D904F00700C0F1E2
:101580000800044402E0002400E00024002C40D0C5
:101590002448006884423CD8234E3046056801E068
:1015A0002E462D686868A04202D228680028F7D12C
:1015B0001A48006885422CD0306800F10808286875
:1015C00030606868001B102807D92F196868001B55
:1015D00078606C603846FFF757FF12496868096801
:1015E000081A1049086008460068104909688842CE
:1015F00003D20C4800680D49086009496868096809
:10160000084368600020286009480068401C0849B9
:10161000086000F065FB4046BDE8F0812401002031
:1016200038010020280100201C0100202C0100208E
:1016300030010020001F4FF080730360001F21F075
:1016400001030360001F034B03601438026020385D
:10165000704700002115000800B5034604E04FF470
:101660007A7000F004F85B1E002BF8D100BD06E094
:10167000482101E04A1E91B20029FBD1401E0028FA
:10168000F6D1704701460A69D1E901309860D1E985
:10169000010358605068884201D18868506000207A
:1016A00008611068401E10601068704700F1080162
:1016B00041604FF0FF31816000F10801C1600161BC
:1016C00000210160704700210161704742684A6053
:1016D00093688B60936859609160086103685B1C34
:1016E0000360704700BFBF2080F31188BFF34F8FA6
:1016F000BFF36F8F00BF03480068401C01490860BA
:10170000704700001801002006480068401E054987
:1017100008600846006820B9002080F3118800BFE7
:1017200000BF70471801002070B506463546FEB16F
:10173000083D2C460F49606809680840C0B1206820
:10174000B0B90C49606809688843606000F0C8F867
:101750000949606809680844074908602046FFF79E
:1017600093FE06480068401C0449086000F0B8FA7F
:1017700070BD000038010020280100203401002045
:1017800000204FF0E0210861886106480068C82108
:10179000B0FBF1F0401E4FF0E021486107200861E6
:1017A000704700000000002070B50546FFF79AFF63
:1017B00015B92748006800E028460446201DFFF7B9
:1017C00061FF78B9E06A00EB8000224951F82000FF
:1017D00040B994F82C10012088401F4909688143C2
:1017E0001D480160A06A18B104F11800FFF74AFF14
:1017F0001A480068401C194908601548006884426E
:1018000009D1211D1648FFF761FF16480068401CEA
:101810001449086009E014480068401E1249086035
:101820002046FFF745FDFFF763FEFFF76DFF0F480A
:10183000006858B106480068844207D14FF08050D4
:101840000B490860BFF34F8FBFF36F8F70BD00006F
:101850003C010020004700205401002068010020C6
:101860007C480020480100204C0100205801002045
:1018700004ED00E01CB5124800210B468022CDE9A2
:10188000001010A1114800F02DF90446012C14D1CC
:1018900000BFBF2080F31188BFF34F8FBFF36F8F5E
:1018A00000BF4FF0FF300A49086001200949086075
:1018B00000200949086000F04BF8084800681CBD8A
:1018C0007001002049444C4500000000411300080D
:1018D0006C010020580100205001002074010020FC
:1018E00002480068401C01490860704778010020E8
:1018F0001248006818B10120114908601DE000205D
:101900000F4908600F480068B0FA80F0C0F11F016D
:1019100001EB81020C4B03EB82004268526842608B
:1019200000F108024368934202D142685268426063
:101930004268D268054B1A6000BF704778010020EA
:101940006001002054010020004700203C010020DD
:1019500010B50A48006840F47F000849086008464E
:10196000006840F07F400860FFF70AFF002004494C
:101970000860FEF7F9FB002010BD000020ED00E03C
:101980001801002010B500BFBF2080F31188BFF3FD
:101990004F8FBFF36F8F00BF00F0D4F818B14FF036
:1019A00080500449086000BF002080F3118800BF08
:1019B00010BD000004ED00E02DE9F84305460E4699
:1019C000174605FB06F909F14800FFF7B5FD044687
:1019D0004CB1A04608F148083B46424631462846ED
:1019E0000094FFF7C1FC2046BDE8F88370B50546BA
:1019F0000E462C46FFF776FED4E90F12206801FB55
:101A00000200A0600020A06320686060E06B401EC0
:101A1000226C216800FB0211E160FF2084F8440081
:101A200084F845009EB9206908B9012000E0002033
:101A3000A8B904F1100000F013F980B14FF0805004
:101A400009490860BFF34F8FBFF36F8F07E004F1C0
:101A50001000FFF72BFE04F12400FFF727FEFFF72D
:101A600053FE012070BD000004ED00E02DE9F047B9
:101A700005460E462C4600BFBF21EFF3118081F3CF
:101A80001188BFF34F8FBFF36F8F00BF8046D4F82C
:101A90003890E06B48451DD994F945A009F1010043
:101AA000A0630AF1010070B9606A08B9012000E082
:101AB000002068B904F1240000F0D2F840B13EB132
:101AC0000120306004E00AF1010040B284F84500D2
:101AD000012700E0002700BF88F3118800BF3846C7
:101AE000BDE8F0872DE9FF4F85B08046894617464F
:101AF000DDE912ABB800FFF71FFD064656B15420D2
:101B0000FFF71AFD04460CB1266304E03046FFF7E8
:101B10000BFE00E000247CB10020CDE900ABCDE954
:101B200002403A4649464046089BFFF730FC2046B3
:101B3000FFF740FB012501E04FF0FF35284609B0D3
:101B4000BDE8F08F2DE9F04100273A4800680028F1
:101B500067D139480068451C374805608DB937485A
:101B6000D0F8008036480068344908603448C0F82E
:101B7000008034480068401C32490860FFF7B8FC18
:101B800000BF3148006885423BD300BF2B48006846
:101B9000006808B9012000E0002020B14FF0FF30BC
:101BA000294908602CE025480068C068C468666858
:101BB000B54202D22448066022E0201DFFF762FDF4
:101BC000A06A18B104F11800FFF75CFD94F82C101E
:101BD000012088401D49096808431C490860E16AE2
:101BE00001EB81011A4A02EB8100211DFFF76EFD16
:101BF0001849E06A0968C96A8842C7D30127C5E75E
:101C000000BF14480068C06A00EB8000104951F81A
:101C10002000012800D901270F48006800B10127E2
:101C200004E00E480068401C0C4908603846BDE8D6
:101C3000F0810000780100205001002040010020C8
:101C400044010020640100206C01002054010020A8
:101C5000004700203C010020600100205C010020C2
:101C600070B50646F068C46804F11800FFF70AFD75
:101C700015480068A8B9201DFFF704FD94F82C1042
:101C80000120884011490968084310490860E16A49
:101C900001EB81010E4A02EB8100211DFFF716FDC9
:101CA00004E004F118010B48FFF710FD0A49E06A4F
:101CB0000968C96A884204D90125012007490860DA
:101CC00000E00025284670BD780100205401002066
:101CD00000470020684800203C01002060010020EF
:101CE00070B500240026FFF7FDFC2E480068401E5A
:101CF0002C4908600846006800284FD12A4800682F
:101D000000284BD024E02948C068C46804F11800BA
:101D1000FFF7B8FC201DFFF7B5FC94F82C1001204C
:101D2000884023490968084321490860E16A01EBBA
:101D30008101204A02EB8100211DFFF7C7FC1E49EB
:101D4000E06A0968C96A884202D301201B49086019
:101D50001648006808B9012000E000200028D2D011
:101D60000CB1FFF7C5FB1648056865B100BFFFF76A
:101D7000E9FE10B10120114908606D1E002DF6D159
:101D800000200F4908600D48006838B1012630076F
:101D90000C490860BFF34F8FBFF36F8FFFF7B4FCA0
:101DA000304670BD780100204C01002068480020BA
:101DB00054010020004700203C0100206001002069
:101DC0005C01002004ED00E0E81D00080000002098
:101DD0008001000024020008581E00088001002035
:101DE000284B0000201100081184A24A0468090150
:101DF000020304060708090C6910150204060814FA
:101E00003801401244124012481340441C024080E2
:101E1000041A1C041132021A141C5A08085A200809
:101E20004A800829171115200140AE100B1040817F
:101E3000CFA1C8A6A83FD3001021D580D9F1DA12CE
:101E4000DB4020028D14A4A6AF09167C0959941A10
:081E5000AA010158B20F0000C5
:0400000508000131BD
:00000001FF
