:020000040800F2
:1000000010540020DD010008510500082F050008EC
:100010004D050008C102000867120008000000003A
:100020000000000000000000000000004501000882
:100030000F0400080000000089010008C11B00082F
:10004000F7010008F7010008F7010008F7010008B0
:10005000F7010008F7010008F7010008F7010008A0
:10006000F7010008F7010008F7010008F701000890
:10007000C5020008F7010008F5020008F7010008B2
:10008000F701000829030008F7010008F70100083C
:10009000F7010008F7010008F7010008F701000860
:1000A000F7010008F7010008F7010008F701000850
:1000B000F7010008F7010008F7010008F701000840
:1000C000F7010008F7010008F7010008F701000830
:1000D000F70100088D0D0008F10D0008250E00083D
:1000E000F7010008F7010008F7010008F701000810
:1000F000F7010008F7010008F7010008F701000800
:10010000F7010008F7010008F7010008F7010008EF
:10011000F7010008F7010008F7010008F7010008DF
:10012000F7010008F7010008F7010008F7010008CF
:10013000DFF80CD000F064F80048004719130008FD
:1001400010540020224B19680868B0E8F00F80F3C3
:100150000988BFF36F8F4FF0000080F311884EF0D5
:100160000D0E70470000000006480068006880F32C
:10017000088862B661B6BFF34F8FBFF36F8F00DFA1
:1001800000BF00BF08ED00E0EFF30980BFF36F8F01
:100190000F4B1A6820E9F00F106008B54FF0BF0050
:1001A00080F31188BFF34F8FBFF36F8F01F0BEFC58
:1001B0004FF0000080F31188BDE808401968086816
:1001C000B0E8F00F80F30988BFF36F8F704700BF6E
:1001D000A4080020EFF30580704700000648804720
:1001E00006480047FEE7FEE7FEE7FEE7FEE7FEE71C
:1001F000FEE7FEE7FEE7FEE7150C00083101000808
:10020000064C074D06E0E06840F0010394E8070063
:1002100098471034AC42F6D3FFF78EFF2021000838
:100220004021000870B58D1810F8014B14F003023E
:1002300001D110F8012B231106D110F8013B03E086
:1002400010F8016B01F8016B521EF9D1ABB110F837
:10025000012B04F00C048A1A0C2C03D0A2EB84129C
:100260009B1C08E010F8014BA2EB0422F8E712F8FF
:10027000014B01F8014B5B1EF9D5A942D4D30020F4
:1002800070BD10B500F056FA00F080FA10BD000005
:1002900010B500F09BFE00F0F9FD00F097FF00F0B4
:1002A0002BFE002407E0054951F82400012100F04D
:1002B000E0FD601CC4B2032CF5DB10BD2408002057
:1002C00000BFFEE710B5202000F064F801280ED131
:1002D000032000F051FD0648806800684FF6FE716B
:1002E0000840034989680860202000F045F810BDE7
:1002F0001808002010B54FF4005000F04BF801280A
:100300000ED100F039FD0748006800684FF6FE7115
:1003100008400449096808604FF4005000F02CF8C8
:1003200010BD00001808002010B54FF0007000F05C
:1003300031F801280FD1022000F01EFD0648406868
:1003400000684FF6FE7108400349496808604FF0A5
:10035000007000F011F810BD1808002000F0805166
:1003600011B10349086001E002494860704700008C
:10037000040402400000024000F0805111B1034922
:10038000086001E002494860704700000404024030
:100390000000024001460020002201F0805313B10A
:1003A000054B1A6801E0054B1A6802EA01030BB11C
:1003B000012000E0002070470004024000000240DD
:1003C0001AB103680B43036002E003688B430360C8
:1003D000704710B50022026847F6F0739A430C6A22
:1003E0008B6823430C6923434C6923438C69234363
:1003F000CC6923434C6A23438C6A23431A4302602B
:10040000CB6843600B6883604B68C36010BD704766
:100410002DE9F0410246002500260020002300249B
:10042000002791F803C00CF00F0591F803C00CF001
:10043000100CBCF1000F03D091F802C04CEA050586
:1004400091F800C0BCF1000F31D0146800202BE0FF
:100450004FF0010C0CFA00F3B1F800C00CEA0306EF
:100460009E4220D183004FF00F0C0CFA03F7BC43DF
:1004700005FA03FC4CEA040491F803C0BCF1280F10
:1004800006D14FF0010C0CFA00FCC2F814C00AE0CF
:1004900091F803C0BCF1480F05D14FF0010C0CFAE4
:1004A00000FCC2F810C0401C0828D1D31460B1F879
:1004B00000C0BCF1FF0F34DD546800202EE000F1D5
:1004C000080C4FF0010808FA0CF3B1F800C00CEA70
:1004D00003069E4221D183004FF00F0C0CFA03F764
:1004E000BC4305FA03FC4CEA040491F803C0BCF1D8
:1004F000280F05D100F1080C08FA0CF8C2F8148096
:1005000091F803C0BCF1480F07D100F1080C4FF07F
:10051000010808FA0CF8C2F81080401C0828CED355
:100520005460BDE8F081416170470161704700BFD0
:10053000FEE7000001F0C8FB0349086003E0C821A2
:10054000014801F087FBFAE70808002000BFFEE73A
:100550007047000070B5002100230F22C47804B357
:10056000154C246804F4E064C4F5E064210AC1F188
:100570000403CA40447804FA03F184781440214308
:1005800009010E4C0678A155047804F01F050124DA
:10059000AC4005786D11AD0005F1E025C5F80041CE
:1005A00009E0047804F01F050124AC40044D0678EE
:1005B000761145F8264070BD0CED00E000E400E047
:1005C00080E100E002490143024A116070470000E7
:1005D0000000FA050CED00E010B500F023F800F083
:1005E000EBF810BD10B504467F220021204600F034
:1005F00001F810BDF0B58B18DCB27F2C01DC0728A8
:1006000000DDF0BD002307E00025054E06EBC01617
:100610005F18F5555D1CEBB29342F5DB00BFF0E7C8
:10062000680A002000200CE0002106E00022064BB2
:1006300003EBC0135A544A1CD1B28029F6DB421C8A
:10064000D0B20828F0DB7047680A002070B5154664
:100650003F2901DC7F2800DD70BD0C46CE1701EB81
:100660005676C6F3C702CE1701EB5676F610A1EB0D
:10067000C606F3B25DB10C4C04EBC214245C012637
:100680009E403443084E06EBC21634540AE0064C32
:1006900004EBC214245C01269E40B443024E06EBD8
:1006A000C216345400BFD7E7680A00202DE9FC4F7A
:1006B000074688461546E978A87801EB002000F047
:1006C000FF096979287901EB0020C0B2019000246C
:1006D0002BE02046E11704EB5171C1F3C70BE11782
:1006E00004EB5171C910A4EBC101C9B200910026FD
:1006F00017E00BFB0960801D1FFA80FA15F80A301D
:100700004FF0800EDDF800C04EFA0CFE03EA0E0238
:1007100004EB0803D9B2F319D8B2FFF797FF701CA6
:10072000C6B24E45E5DB601CC4B201988442D0DB02
:10073000BDE8FC8F38B50121202000F057F90121D8
:10074000080200F053F910208DF8030003208DF803
:100750000200002415E00C4830F83400ADF8000029
:10076000094901EBC40148686946FFF751FE064A92
:1007700032F8341002EBC4025068FFF7D6FE601C5A
:10078000C4B2052CE7DB38BD3C08002010B50220C0
:1007900000F028F84FF4FA7001F062F8022000F03F
:1007A0006FF800221C21034800F057F8FFF714FFF0
:1007B00010BD00006408002010B500240CE00021EA
:1007C000204600F06BF8064901EBC410012280219D
:1007D00000F043F8601CC4B2082CF0DB10BD000030
:1007E000680A002010B50446044A32F8341002EBBF
:1007F000C4025068FFF797FE10BD00003C080020BF
:1008000070B504460D461DB1032000F039F802E032
:100810000320FFF7E7FF0420FFF7E4FF002613E0C3
:100820000020FFF7DFFF04F0800018B1012000F086
:1008300027F802E00120FFF7D5FF6006040E002034
:1008400000F01EF8701CC6B2082EE9DB032000F091
:1008500017F8042000F014F870BD2DE9F0410446AB
:100860000D461646002706E020783146FFF7C8FF00
:10087000641C781CC7B2AF42F6DBBDE8F081000013
:1008800010B50446044A32F8341002EBC402506832
:10089000FFF74BFE10BD00003C08002070B5054678
:1008A0000C4605F1B001C8B20021FFF7A9FF04F022
:1008B000F001102242EA21100021FFF7A1FF04F00D
:1008C0000F000021FFF79CFF70BD0000F0B504464B
:1008D0000D46012B02D0022B2DD113E000200EE09B
:1008E000A2F1200101EB4101144E06EB4101095C2C
:1008F000134E06EBC4162F18F155411CC8B206283A
:10090000EEDB19E0002013E000210DE0A2F120064B
:100910000C4F07EB061601EBC007F65D084F07EB1F
:10092000C0177E544E1CF1B20829EFDB411CC8B23F
:100930000228E9DB00E000BF00BFF0BDD81E0008C0
:10094000680A0020002100082DE9F04180460E468B
:1009500014461F46002515E022787019C1B23B46A7
:100960004046FFF7B3FF012F02D0022F07D102E06C
:10097000A81DC5B204E005F10800C5B200E000BF43
:1009800000BF641C20780028E6D1BDE8F08100009B
:1009900001F09AF90449086005E0FFF70DFF042112
:1009A000014801F057F9F8E70408002029B1064A88
:1009B00052690243044B5A6104E0034A526982437C
:1009C000014B5A61704700000010024029B1064AED
:1009D000D2690243044BDA6104E0034AD2698243DC
:1009E000014BDA61704700000010024029B1064A4D
:1009F00092690243044B9A6104E0034A926982437C
:100A0000014B9A61704700000010024030B5002190
:100A10000022002400232D4D6D6805F00C0121B14A
:100A2000042905D0082923D105E0294D056022E0DD
:100A3000274D05601FE0254D6D6805F47012234DAC
:100A40006D6805F48034022505EB92421CB9214DF6
:100A5000554305600BE01D4D6D6805F400351DB173
:100A60001C4D5543056002E0194D5543056002E0F9
:100A7000174D056000BF00BF144D6D6805F0F00113
:100A80000909154D6B5C0568DD4045600F4D6D68CB
:100A900005F4E061090A104D6B5C4568DD40856036
:100AA0000A4D6D6805F46051C90A0B4D6B5C4568D1
:100AB000DD40C560054D6D6805F44041890B074D6B
:100AC0006B5CC568B5FBF3F5056130BD00100240F5
:100AD00000127A0000093D001400002024000020CC
:100AE00010B5421E104B03EB821212783F2A14DA23
:100AF000421E03EB82130C4C04EB82121278521C40
:100B00009954421E234603EB82121278521CD3B230
:100B1000421E04EB8212137005E04023421E024C79
:100B200004EB8212137010BDE808002010B500F02D
:100B300001F810BD0CB5002001900090334800680A
:100B400040F480303149086000BF3048006800F44C
:100B5000003000900198401C0190009818B901984D
:100B6000B0F5A06FF1D12948006800F4003010B151
:100B70000120009001E0002000900098012843D15E
:100B80002348006840F010002149086008460068CA
:100B900020F0030008600846006840F0020008608A
:100BA0001A48406819494860084640684860084645
:100BB000406840F4806048600846406820F47C103B
:100BC00048600846406840F4E810486008460068FD
:100BD00040F08070086000BF0C48006800F00070B2
:100BE0000028F9D00948406820F003000749486010
:100BF0000846406840F00200486000BF0348406873
:100C000000F00C000828F9D10CBD000000100240D3
:100C10000020024010B51348006840F0010011495F
:100C2000086008464068104908400E494860084678
:100C300000680E4908400B4908600846006820F427
:100C4000802008600846406820F4FE0048604FF4A9
:100C50001F008860FFF76AFF4FF0006004490860DA
:100C600010BD0000001002400000FFF8FFFFF6FE7C
:100C700008ED00E01CB504464FF44070FFF7A2FCFD
:100C8000FFF706FBFFF7FDFA012325A20021084626
:100C9000FFF75AFE012326A240210720FFF754FE4A
:100CA000FFF78AFD4FF42F7000F0DAFD2348022190
:100CB00000234022CDE9001021A1234800F09AFF33
:100CC00022480A2100238022CDE9001020A12248D9
:100CD00000F090FF1948006810B11C48006820B966
:100CE0001EA000F0D9FA00BFFEE70020FFF77AFC53
:100CF00001231CA200210846FFF726FEFFF75CFD3A
:100D00004FF4967000F0ACFD1A4A00210846FFF738
:100D1000CDFCFFF751FD002000F064FE1CBD00007B
:100D200053797374656D496E69742E2E2E00000020
:100D3000617574686F723A50425A0000FC070020D7
:100D40004F4C4544000000009109000800080020B5
:100D50004D6F766500000000350500084572726F22
:100D60000D0A000053797374656D496E69742D50D6
:100D7000415353008A0200200022411E024B03EB24
:100D800081110A7070470000A809002038B50020C2
:100D9000009040F22551144800F05DF9012821D15E
:100DA000114800F057FAC4B221460120FFF798FE1F
:100DB000012000F069FA0446012000F065FA00788D
:100DC000205C0A2809D1684638B14FF080500749A5
:100DD0000860BFF34F8FBFF36F8F40F22551024879
:100DE00000F038F838BD00000038014004ED00E0A4
:100DF00010B540F22551094800F02DF901280CD119
:100E0000074800F027FAC4B221460220FFF768FE27
:100E100040F22551024800F01DF810BD0038014095
:100E20000044004010B540F22551094800F013F984
:100E300001280CD1064800F00DFAC4B22146032067
:100E4000FFF74EFE40F22551014800F003F810BDB7
:100E50000048004010B50022002340F66A14A14269
:100E600000D100BF0A1201249440A3B2DC430480E5
:100E700010BD21B1828942F40052828104E082894E
:100E80004DF6FF731A408281704700001FB50121A3
:100E90008803FFF7ABFD01214804FFF797FD01210F
:100EA0008804FFF793FD4FF4E13000900020ADF887
:100EB0000C000C20ADF80A000020ADF80800ADF8D9
:100EC0000600ADF80400002407E0054951F82400AD
:100ED000694600F00FF9601CC4B2032CF5DB1FBD9E
:100EE000240800201AB1838A0B43838202E0838A9C
:100EF0008B4383827047000010B58CB001210846F7
:100F0000FFF754FD01210220FFF750FD002004905F
:100F10001020039000200B90089080200690002065
:100F20000990079005904FF480500A9000241BE030
:100F3000234850F82400001D0190224800EB841043
:100F4000401C0290204951F8240001A9FFF741FA02
:100F50001B4951F8240001228021FFF7C3FF022022
:100F6000FFF7FCF9601CC4B2032CE1DB01208DF813
:100F7000030008208DF8010000208DF802000E20EB
:100F80008DF800006846FFF7E5FA11208DF80000A3
:100F90006846FFF7DFFA0C208DF800006846FFF77F
:100FA000D9FA002408E0084951F82400012202215E
:100FB000FFF706FA601CC4B2032CF4DB0CB010BDC2
:100FC00024080020A80900203008002008B50121CD
:100FD0000420FFF70BFD01210820FFF707FD182073
:100FE0008DF8030003208DF802004FF40170ADF876
:100FF000000069460F48FFF70BFA4FF48060ADF828
:10100000000069460C48FFF703FA04208DF803003E
:101010004FF48160ADF8000069460648FFF7F8F923
:101020004FF40060ADF8000069460348FFF7F0F99F
:1010300008BD000000080140000C014002460020ED
:10104000B1F5007F00D100BF13880B400BB1012028
:1010500000E00020704770B5024600240023002500
:10106000002040F66A16B14200D100BFC1F342151C
:1010700001F01F03012606FA03F3012D02D1968920
:10108000334006E0022D02D1168A334001E0968AF1
:1010900033400C12012606FA04F41688344013B1CA
:1010A0000CB1012000E0002070BDF0B50346002423
:1010B00000260025002040F66A17B94200D100BF83
:1010C0001846C1F3421401F01F06012707FA06F57E
:1010D000012C01D10C3004E0022C01D1103000E0D1
:1010E00014301AB107682F43076002E00768AF4366
:1010F0000760F0BD2DE9F04786B005460E46002496
:10110000A24600BFA1460027B08900B100BF2F460C
:101110002C8A4CF6FF700440F08804432C82AC8982
:101120004EF6F3100440B0883189084371890843B2
:101130000443AC81AC8A4FF6FF400440B0890443BD
:10114000AC8201A8FFF762FC1F48874202D1DDF89C
:1011500010A001E0DDF80CA0A88900F4004040B127
:101160000AEBCA0000EB0A1031684900B0FBF1F845
:1011700007E00AEBCA0000EB0A1031688900B0FBF7
:10118000F1F86420B8FBF0F004012009642101FBB0
:101190001089A88900F4004040B1322000EBC9005A
:1011A000B0FBF1F000F00700044308E0322000EB50
:1011B00009106421B0FBF1F000F00F0004432C8112
:1011C00006B0BDE8F08700000038014008B50120F6
:1011D0008DF803008DF8010000208DF80200252015
:1011E0008DF800006846FFF7B5F926208DF800005D
:1011F0006846FFF7AFF927208DF800006846FFF733
:10120000A9F9012240F225510F48FFF74EFF0122B4
:1012100040F225510D48FFF748FF012240F22551C9
:101220000B48FFF742FF40F225510748FFF712FE37
:1012300040F225510548FFF70DFE40F225510448C4
:10124000FFF708FE08BD00000038014000440040E0
:101250000048004001468888C0F308007047C1F389
:1012600008028280704700BFFEE700000146481E6A
:10127000044A02EB8010007808B10120704700207A
:10128000FCE70000A80900200146481E014A02EBC5
:1012900080107047E8080020014A024900F013B8A6
:1012A000E9120008E408002002E008C8121F08C183
:1012B000002AFAD170477047002001E001C1121FD7
:1012C000002AFBD170472DE9F04116460F4604462F
:1012D000002503E03946B047641C6D1C20780028C7
:1012E000F8D12846BDE8F08170B504460D4600BF30
:1012F0000120FFF7BBFF0028FAD1A1B20548FFF794
:10130000AEFF00BF80210348FFF798FE0028F9D008
:10131000204670BD003801401CB507480F2100234E
:101320004022CDE9001005A1074800F063FC00F061
:10133000BFFB00BFFEE70000F8070020537973747D
:10134000656D496E69740000750C00082DE9F04167
:1013500005460E461C4807681C480068001D00F042
:1013600095FA50B91948006890F82C10012088406F
:1013700017490968814316480160681C38B936B1BD
:1013800012480168091D134800F0BEFA1AE07C19E2
:101390000E4800684460BC4207D20C480168091D31
:1013A0000D48006800F096FA0CE008480168091D35
:1013B0000A48006800F08EFA09480068844201D2A9
:1013C00007480460BDE8F081B8080020A4080020A8
:1013D000BC080020F84F0020AC080020A80800201E
:1013E000D408002010B5044600F09AFA234800689B
:1013F000401C224908602248006840B92048046027
:101400000846006801280DD100F00EF90AE01D48D9
:10141000006838B91A480068C06AE16A884201D891
:101420001748046018480068401C1749086094F881
:101430002C100120884015490968084313490860A9
:10144000E16A01EB8101124A02EB8100211D00F0EB
:101450005BFA00F077FA0B48006868B1084800684A
:10146000C06AE16A884207D24FF08050094908609B
:10147000BFF34F8FBFF36F8F10BD0000B408002083
:10148000A4080020C0080020D0080020BC080020CC
:10149000684E002004ED00E010B516E000F040FAC0
:1014A0000C48C068C468201D00F0F0F90A480068C4
:1014B000401E0949086009480068401E0749086045
:1014C00000F040FA204600F00BF8044800680028BD
:1014D000E4D110BDE44F0020B4080020B008002083
:1014E00010B50446206B00F03DFA204600F03AFAB1
:1014F00010BD000030B54FF48043174800F00704DA
:101500002CB1C01D20F00700134C041B1B1B02460E
:10151000124C22600024114D6C60D018083820F065
:1015200007000F4C206000240D4D2D686C600C4DA1
:101530002D682C601146441A4C60094C24680C60DC
:10154000084D4C682C60084D4C682C604FF00044EE
:10155000064D2C6030BD0000680E0020840800207D
:101560008C0800209408002090080020A00800208B
:1015700000BFFFF791FF064800680128F9D94FF036
:10158000805004490860BFF34F8FBFF36F8FF0E7BF
:10159000684E002004ED00E02DE9FF5F80460E4616
:1015A0009146DDE90E7A109CA9F10100216B01EB57
:1015B000800B2BF0070B86B1002507E0715D04F16D
:1015C00034004155705D00B902E06D1C102DF5D35B
:1015D00000BF00214320015502E0002084F83400C0
:1015E000102F00D30F27E76267640020A064201D3E
:1015F00000F06DF904F1180000F069F92461C7F1F9
:101600001000A06164620020E06484F8500041464C
:101610005846039A00F012F92060BAF1000F01D089
:10162000CAF80040BDE8FF9F10B5002407E004EBB6
:1016300084010F4A02EB810000F03CF9641C102C7D
:10164000F5D30C4800F036F90B4800F033F90B489D
:1016500000F030F90A4800F02DF90A4800F02AF9A4
:1016600004480949086004480849086010BD0000A2
:10167000684E0020A84F0020BC4F0020D04F002013
:10168000E44F0020F84F0020A8080020AC080020FC
:1016900010B50146164800E0006803688B42FBD392
:1016A0000246436813448B4204D143684C68234488
:1016B000436001460A464B6813440468A34211D1B3
:1016C0000C4C03682468A34208D04B680468646823
:1016D00023444B6003681B680B6005E0054B1B68E7
:1016E0000B6001E003680B60884200D0016010BD10
:1016F000840800208C08002009480068006808B9A8
:10170000012000E0002020B14FF0FF3005490860C3
:1017100005E003480068C068006802490860704737
:10172000A8080020D408002000BFBF2080F3118843
:10173000BFF34F8FBFF36F8F00BF00BFFEE7000006
:101740002DE9F04104464FF0000800F0E7F9354874
:10175000006808B9FFF7CEFE334800682040002833
:101760005BD1B4B104F10800A04212D9083404F0EE
:10177000070078B104F00700C0F108002044A0423F
:1017800005D904F00700C0F10800044402E0002479
:1017900000E00024002C40D02448006884423CD85B
:1017A000234E3046056801E02E462D686868A04249
:1017B00002D228680028F7D11A48006885422CD048
:1017C000306800F10808286830606868001B10283D
:1017D00007D92F196868001B78606C603846FFF7DE
:1017E00057FF124968680968081A104908600846D6
:1017F000006810490968884203D20C4800680D4906
:101800000860094968680968084368600020286022
:1018100009480068401C0849086000F0E9FA4046A1
:10182000BDE8F0818C080020A0080020900800206E
:10183000840800209408002098080020001F4FF022
:1018400080730360001F21F001030360001F034B3E
:101850000360143802602038704700002917000820
:1018600000B5034604E04FF47A7000F004F85B1E04
:10187000002BF8D100BD06E0482101E04A1E91B2DC
:101880000029FBD1401E0028F6D1704701460A69A5
:10189000D1E901309860D1E901035860506888426D
:1018A00001D188685060002008611068401E1060F7
:1018B0001068704700F1080141604FF0FF3181600E
:1018C00000F10801C1600161002101607047002141
:1018D0000161704710B502460B685C1C0CB91069B9
:1018E00007E002F1080000E04068446824689C4278
:1018F000FAD944684C604C68A160886041600A6114
:101900001468641C146010BD42684A6093688B6060
:10191000936859609160086103685B1C03607047BD
:1019200000BFBF2080F31188BFF34F8FBFF36F8FCD
:1019300000BF03480068401C014908607047000070
:101940008008002006480068401E054908600846D7
:10195000006820B9002080F3118800BF00BF7047E5
:101960008008002070B506463546FEB1083D2C467D
:101970000F49606809680840C0B12068B0B90C49D7
:10198000606809688843606000F0C8F809496068C9
:1019900009680844074908602046FFF779FE0648B1
:1019A0000068401C0449086000F022FA70BD000085
:1019B000A0080020900800209C08002000204FF084
:1019C000E0210861886106480068C821B0FBF1F099
:1019D000401E4FF0E0214861072008617047000079
:1019E0000000002070B50546FFF79AFF15B927489B
:1019F000006800E028460446201DFFF747FF78B93D
:101A0000E06A00EB8000224951F8200040B994F8C8
:101A10002C10012088401F49096881431D4801603E
:101A2000A06A18B104F11800FFF730FF1A480068E7
:101A3000401C1949086015480068844209D1211DDD
:101A40001648FFF761FF16480068401C14490860FB
:101A500009E014480068401E124908602046FFF75C
:101A60003FFDFFF749FEFFF76DFF0F48006858B1D3
:101A700006480068844207D14FF080500B49086047
:101A8000BFF34F8FBFF36F8F70BD0000A40800201D
:101A9000684E0020BC080020D0080020E44F002041
:101AA000B0080020B4080020C008002004ED00E0C9
:101AB0001CB5124800210B468022CDE9001010A170
:101AC000114800F097F80446012C14D100BFBF2044
:101AD00080F31188BFF34F8FBFF36F8F00BF4FF0BC
:101AE000FF300A49086001200949086000200949BF
:101AF000086000F04BF8084800681CBDD8080020BA
:101B000049444C450000000071150008D40800202D
:101B1000C0080020B8080020DC0800200248006847
:101B2000401C014908607047E00800201248006826
:101B300018B10120114908601DE000200F4908601C
:101B40000F480068B0FA80F0C0F11F0101EB81027C
:101B50000C4B03EB820042685268426000F10802BD
:101B60004368934202D14268526842604268D26838
:101B7000054B1A6000BF7047E0080020C80800202D
:101B8000BC080020684E0020A408002010B50A48B8
:101B9000006840F47F00084908600846006840F08B
:101BA0007F400860FFF70AFF002004490860FEF745
:101BB000DBFA002010BD000020ED00E080080020CE
:101BC00010B500BFBF2080F31188BFF34F8FBFF364
:101BD0006F8F00BF00F07EF818B14FF080500449BD
:101BE000086000BF002080F3118800BF10BD000016
:101BF00004ED00E02DE9FF4F85B080468946174689
:101C0000DDE912ABB800FFF79BFD064656B1542044
:101C1000FFF796FD04460CB1266304E03046FFF75B
:101C2000A1FE00E000247CB10020CDE900ABCDE9AD
:101C300002403A4649464046089BFFF7ADFC204625
:101C4000FFF7D0FB012501E04FF0FF35284609B032
:101C5000BDE8F08F2DE9F047044688464FF00009B3
:101C6000FFF75CFF16480668206800EB080520684F
:101C7000B04207D92068A8420BD9B54209D94FF024
:101C8000010906E02068A84201D8B54201D94FF009
:101C900001092560B9F1000F03D0A81B0021FFF74F
:101CA00055FB00F0A5F807463FB94FF080500549B5
:101CB0000860BFF34F8FBFF36F8F4846BDE8F087D2
:101CC000B808002004ED00E00149086870470000F2
:101CD000B80800202DE9F04100273A4800680028A4
:101CE00067D139480068451C374805608DB93748C9
:101CF000D0F8008036480068344908603448C0F89D
:101D0000008034480068401C32490860FFF7F4FC4A
:101D100000BF3148006885423BD300BF2B480068B4
:101D2000006808B9012000E0002020B14FF0FF302A
:101D3000294908602CE025480068C068C4686668C6
:101D4000B54202D22448066022E0201DFFF79EFD26
:101D5000A06A18B104F11800FFF798FD94F82C1050
:101D6000012088401D49096808431C490860E16A50
:101D700001EB81011A4A02EB8100211DFFF7C4FD2E
:101D80001849E06A0968C96A8842C7D30127C5E7CC
:101D900000BF14480068C06A00EB8000104951F889
:101DA0002000012800D901270F48006800B1012751
:101DB00004E00E480068401C0C4908603846BDE845
:101DC000F0810000E0080020B8080020A8080020EA
:101DD000AC080020CC080020D4080020BC0800205B
:101DE000684E0020A4080020C8080020C408002075
:101DF00070B500240026FFF793FD2E480068401EB2
:101E00002C4908600846006800284FD12A4800681D
:101E100000284BD024E02948C068C46804F11800A9
:101E2000FFF734FD201DFFF731FD94F82C10012041
:101E3000884023490968084321490860E16A01EBA9
:101E40008101204A02EB8100211DFFF75DFD1E4943
:101E5000E06A0968C96A884202D301201B49086008
:101E60001648006808B9012000E000200028D2D000
:101E70000CB1FFF741FC1648056865B100BFFFF7DC
:101E800029FF10B10120114908606D1E002DF6D107
:101E900000200F4908600D48006838B1012630075E
:101EA0000C490860BFF34F8FBFF36F8FFFF74AFDF8
:101EB000304670BDE0080020B4080020D04F00205C
:101EC000BC080020684E0020A4080020C80800209C
:101ED000C408002004ED00E0000000000000000045
:101EE000002F000000000700070000147F147F147B
:101EF00000242A7F2A120062640813230036495501
:101F0000225000000503000000001C2241000000D8
:101F100041221C000014083E08140008083E08086E
:101F2000000000A0600000080808080800006060C9
:101F30000000002010080402003E5149453E000008
:101F4000427F4000004261514946002141454B31EA
:101F5000001814127F10002745454539003C4A49B6
:101F60004930000171090503003649494936000628
:101F70004949291E00003636000000005636000090
:101F8000000814224100001414141414000041220B
:101F9000140800020151090600324959513E007CE3
:101FA0001211127C007F49494936003E41414122CD
:101FB000007F4141221C007F49494941007F0909B6
:101FC0000901003E4149497A007F0808087F000066
:101FD000417F4100002040413F01007F0814224121
:101FE000007F40404040007F020C027F007F0408D9
:101FF000107F003E4141413E007F09090906003E35
:102000004151215E007F091929460046494949315D
:102010000001017F0101003F4040403F001F204080
:10202000201F003F4038403F00631408146300073E
:102030000870080700615149454300007F41410095
:1020400000552A552A55000041417F000004020135
:102050000204004040404040000001020400002013
:1020600054545478007F4844443800384444442051
:1020700000384444487F00385454541800087E09FE
:1020800001020018A4A4A47C007F080404780000C6
:10209000447D4000004080847D00007F1028440083
:1020A0000000417F4000007C04180478007C080494
:1020B000047800384444443800FC242424180018D0
:1020C000242418FC007C08040408004854545420BC
:1020D00000043F444020003C4040207C001C204045
:1020E000201C003C4030403C004428102844001C88
:1020F000A0A0A07C004464544C4414141414141480
:10210000001C2040201C003C4030403C0044281073
:102110002844001CA0A0A07C0000000000000000DB
:102120004021000800000020E80800002402000808
:10213000D4240008E8080020284B0000B81200084A
:10214000500600A24A0400016009010203040607C8
:1021500008090C611010160204060800380140003E
:1021600044004000480040440002408004121C0427
:102170001300023912141C52080852200842800829
:102180002117102300200140AE00104081CFA1C8CC
:10219000A6A83FD300D580D9F1DA12DB4020028D0A
:1021A00014A4A6AF120158834000011009010707CB
:1021B0000F07010301870214000112010100051439
:1021C000000103032010050317EFFF01600BFDFE64
:1021D000DDFDBBF6ECB8F02001100E3010103848D1
:1021E0005E7F77FEF7FF7FF721000411EFF8803F55
:1021F000000D1462BFF6FCF858B0E060C080807F2C
:10220000100880C0C0C0E04F7F6403101F039C8291
:102210003E55600B030E3C7C7878787C3E0F5D3336
:102220000F3E11F00B7E1F00C0E0E0F0E0FCE75D28
:1022300073F0078A500407070401B38404015004B3
:1022400005078E220210F89E73E01C95000610E030
:102250009C8380400133C18737000515010E70C093
:10226000E1140660100804026470090000C06020D8
:1022700010180801040D1518103061C183020408FC
:102280001020C01E9528117D457711012630820748
:10229000164040551906040415800031EE38040339
:1022A00003020CB20101890C910F013901021302E2
:1022B0007D280C03F3F332F8B331E0C0071F56203A
:1022C00008FFE1C1C1C1C3E70B37FE7C64110131D6
:1022D0000F2005FFFFF8F001400AE003070F1F3F42
:1022E0007F7FFC0F240BF0F0F8FFFF7F7F3F1F0F75
:1022F00097111A111B70047F7D780199B8FAFE4C72
:10230000300C0FE7F13171F13060C0030F622AF039
:102310007A416D897A2B073FEF5BFCE041418C6E7F
:10232000FF1C03400401030712312123C0E0911078
:1023300006F8F8FCFC7E87123F96897A96FF8F207C
:1023400008083C7C0F1F3E8E012007C4C000060613
:10235000C60123C70701300403C3E301520301216F
:102360000D8404E1E1C19C400481C1E16521E511D6
:102370006C15134AE02D5006F8FC7C7C3C011404DB
:102380007CFCFC228AE0822B0FFCF4530402010542
:1023900012ECF960E101D2C00162E001426001A2E9
:1023A00070010006143030303838FF011E6BBD5507
:1023B00003B22001B21001C20801BDC70361EA00E7
:1023C0000A800206060C0818F0C000011D8C05BE2C
:1023D0003C8C05BD0A031D9805230F1F01420F0801
:1023E0001A0F0D0D1C77030009160107003977EF4E
:1023F0007FFF013D17030513DE3E046E034405FC19
:10240000F2E0FED7011642FF3F07C1052E3F2C0325
:102410003C06FBF01E1E0E4605F00C063DF9EBF7E0
:10242000DFFFFEF8E8DF3EE13BAC083EFFFFE0C027
:1024300021114F056010D0D8E0F2EC33EFBFFEFD64
:10244000F7FFFEFAF13B0F10FEE079053FEE18EFC3
:10245000062F0880CF061D2B03600E04044801419F
:102460002143870FBEFCF9BF39040413FCF2D05D91
:102470006E03B6052C0C083E0AE0C001E3FDFDFF2B
:10248000E32D052C0A0C70E0E1814FF8B0E039052E
:102490001103BE10A7042E016B04354A100B1F7FD9
:1024A0003FFF4F414002032FEB1FE0C1AC07AC08D8
:1024B0008000090E3042041A070E1A11AF050D16DE
:1024C000E4070D59FC0712AA010956CC9DDA040253
:0424D0000000000008
:0400000508000131BD
:00000001FF
