:020000040800F2
:10000000A04E0020DD01000849090008CF080008C3
:10001000450900086106000883160008000000007A
:100020000000000000000000000000004501000882
:10003000AF0700080000000089010008DD1F00086C
:10004000F7010008F7010008F7010008F7010008B0
:10005000F7010008F7010008F7010008F7010008A0
:10006000F7010008F7010008F7010008F701000890
:1000700065060008F701000895060008F70100086A
:10008000F7010008C9060008F7010008F701000899
:10009000F7010008F7010008F7010008F701000860
:1000A000F7010008F7010008F7010008F701000850
:1000B000F7010008F7010008F7010008F701000840
:1000C000F7010008F7010008F7010008F701000830
:1000D000F7010008A91100080D12000841120008DC
:1000E000F7010008F7010008F7010008F701000810
:1000F000F7010008F7010008F7010008F701000800
:10010000F7010008F7010008F7010008F7010008EF
:10011000F7010008F7010008F7010008F7010008DF
:10012000F7010008F7010008F7010008F7010008CF
:10013000DFF80CD000F034FA00480047351700080B
:10014000A04E0020224B19680868B0E8F00F80F339
:100150000988BFF36F8F4FF0000080F311884EF0D5
:100160000D0E70470000000006480068006880F32C
:10017000088862B661B6BFF34F8FBFF36F8F00DFA1
:1001800000BF00BF08ED00E0EFF30980BFF36F8F01
:100190000F4B1A6820E9F00F106008B54FF0BF0050
:1001A00080F31188BFF34F8FBFF36F8F01F0CCFE48
:1001B0004FF0000080F31188BDE808401968086816
:1001C000B0E8F00F80F30988BFF36F8F704700BF6E
:1001D00034030020EFF30580704700000648804795
:1001E00006480047FEE7FEE7FEE7FEE7FEE7FEE71C
:1001F000FEE7FEE7FEE7FEE7851000083101000894
:100200002DE9FE4F804681EA0300C00F0C460090A6
:1002100021F0004123F00045B8EB0200A94105D2CE
:100220004046214690461C460B46024623F00040BD
:10023000104347D0270DC7F30A00C3F30A510290B9
:10024000401A019040286BDAC3F3130040F4801B7E
:100250000098924620B10023D2EB030A63EB0B0B0C
:1002600001985946C0F14002504600F00BF906468D
:100270000D4650465946019A00F023F910EB08004C
:100280006141002487EA115284EAE7731A4340D09F
:10029000009A62B3019A012A4FEA075215DC001B4B
:1002A00061EB02014FF0004202EA0752CDE9004241
:1002B000001C41F5801132462B4600F023F903B0B3
:1002C000BDE8F08F40462146F9E7001B61EB0201D3
:1002D000001C41F5801300185B412018A2F500179F
:1002E00047EB030140EAD570B6196D4111E06D0886
:1002F0004FEA360645EAC0754FEA0752001B61EB2C
:100300000201001C41F5801149084FEA3000001934
:10031000514132462B4603B0BDE8F04F00F0E3B840
:100320000098012240000023D0EB020263EBE0734F
:10033000009821464FEAE074B8EB000061EB04013D
:10034000E9E783F000435BE781F0004158E72DE9DE
:10035000F04D81EA030404F0004B21F000451446FF
:100360004FF0000A23F0004150EA050220D054EA81
:1003700001021DD0C5F30A570246C5F31303C1F3AA
:100380001300C1F30A5640F4801543F48013A7EB21
:100390000608101BD64608F2FD3873EB050002D3A1
:1003A00008F1010801E092185B41B8F1000F03DA8F
:1003B00000200146BDE8F08D00204FF48011064674
:1003C00084460EE0171B73EB050705D3121B63EB86
:1003D000050306434CEA010C49084FEA3000921825
:1003E0005B4150EA0107EDD152EA030012D082EAE4
:1003F000040083EA0501084305D0101BAB4106D277
:100400000122002306E000224FF0004302E06FF0DB
:10041000010253101AEB06004CEB085110EB0A00D6
:1004200041EB0B01BDE8F04D00F05DB80EB540F2B8
:10043000334102910021CDE900110A460B4600F03C
:1004400061F803B000BD70B5C1F30A5201F0004578
:100450000024C1F3130140F2FF3341F480119A42AA
:1004600001DA002070BD40F233439A42A2F23342D7
:1004700003DC524200F015F800E090402C43F1D02C
:10048000404270BD202A04DB203A00FA02F100202D
:1004900070479140C2F1200320FA03F319439040C2
:1004A0007047202A04DB203A21FA02F0002170472D
:1004B00021FA02F3D040C2F12002914008431946CC
:1004C0007047202A06DBCB17203A41FA02F043EAB4
:1004D000E07306E041FA02F3D040C2F120029140FD
:1004E00008431946704710B5141E73F1000408DA6A
:1004F000401C41F1000192185B411A4301D120F0E8
:10050000010010BD2DE9F04D92469B4611B1B1FAA4
:1005100081F202E0B0FA80F220329046FFF7B2FF9B
:1005200004460F4640EA0A0041EA0B0153465A4688
:10053000084313D0114653EA010019D0C8F1400214
:100540005046FFF7AEFF05460E4650465946424616
:10055000FFF798FF084305D0012004E02046394604
:10056000BDE8F08D0020054346EAE0762C43374392
:100570000A986305E40AA0EB08000022FD0A44EA99
:1005800047540A3002D500200146E9E70105101959
:100590006941DDE9084500196941BDE8F04DA2E770
:1005A000064C074D06E0E06840F0010394E80700C0
:1005B00098471034AC42F6D3FFF7BEFDF422000892
:1005C0001423000870B58D1810F8014B14F00302C5
:1005D00001D110F8012B231106D110F8013B03E0E3
:1005E00010F8016B01F8016B521EF9D1ABB110F894
:1005F000012B04F00C048A1A0C2C03D0A2EB8412F9
:100600009B1C08E010F8014BA2EB0422F8E712F85B
:10061000014B01F8014B5B1EF9D5A942D4D3002050
:1006200070BD10B500F0FAFA00F024FB10BD000018
:1006300010B500F0D9FE00F037FE00F0D5FF00F055
:1006400069FE002407E0054951F82400012100F06B
:100650001EFE601CC4B2032CF5DB10BDB4020020EA
:1006600000BFFEE710B5202000F064F801280ED18D
:10067000032000F08FFD0648806800684FF6FE7189
:100680000840034989680860202000F045F810BD43
:10069000A802002010B54FF4005000F04BF80128DC
:1006A0000ED100F077FD0748006800684FF6FE7134
:1006B00008400449096808604FF4005000F02CF825
:1006C00010BD0000A802002010B54FF0007000F02F
:1006D00031F801280FD1022000F05CFD0648406887
:1006E00000684FF6FE7108400349496808604FF002
:1006F000007000F011F810BDA802002000F0805139
:1007000011B10349086001E00249486070470000E8
:10071000040402400000024000F0805111B103497E
:10072000086001E00249486070470000040402408C
:100730000000024001460020002201F0805313B166
:10074000054B1A6801E0054B1A6802EA01030BB178
:10075000012000E000207047000402400000024039
:100760001AB103680B43036002E003688B43036024
:10077000704710B50022026847F6F0739A430C6A7E
:100780008B6823430C6923434C6923438C692343BF
:10079000CC6923434C6A23438C6A23431A43026087
:1007A000CB6843600B6883604B68C36010BD7047C3
:1007B0002DE9F041024600250026002000230024F8
:1007C000002791F803C00CF00F0591F803C00CF05E
:1007D000100CBCF1000F03D091F802C04CEA0505E3
:1007E00091F800C0BCF1000F31D0146800202BE05C
:1007F0004FF0010C0CFA00F3B1F800C00CEA03064C
:100800009E4220D183004FF00F0C0CFA03F7BC433B
:1008100005FA03FC4CEA040491F803C0BCF1280F6C
:1008200006D14FF0010C0CFA00FCC2F814C00AE02B
:1008300091F803C0BCF1480F05D14FF0010C0CFA40
:1008400000FCC2F810C0401C0828D1D31460B1F8D5
:1008500000C0BCF1FF0F34DD546800202EE000F131
:10086000080C4FF0010808FA0CF3B1F800C00CEACC
:1008700003069E4221D183004FF00F0C0CFA03F7C0
:10088000BC4305FA03FC4CEA040491F803C0BCF134
:10089000280F05D100F1080C08FA0CF8C2F81480F2
:1008A00091F803C0BCF1480F07D100F1080C4FF0DC
:1008B000010808FA0CF8C2F81080401C0828CED3B2
:1008C0005460BDE8F081416170470161704700BF2D
:1008D000FEE7000001F006FC174908602BE000F07D
:1008E0007DF83F23154802780021007800F0C0F819
:1008F000134803787F220178002000F0B9F80F48F0
:100900000078801C0D4908700D480078401C0C4987
:1009100008700A4800787F2802DB00200749087029
:10092000074800783F2802DB0020054908700A21AB
:10093000014801F09DFBD2E79402002098020020BC
:100940009902002000BFFEE77047000070B500214B
:1009500000230F22C47804B3154C246804F4E06427
:10096000C4F5E064210AC1F10403CA40447804FAE2
:1009700003F184781440214309010E4C0678A155F7
:10098000047804F01F050124AC4005786D11AD001A
:1009900005F1E025C5F8004109E0047804F01F05E1
:1009A0000124AC40044D0678761145F8264070BD10
:1009B0000CED00E000E400E080E100E002490143CA
:1009C000024A1160704700000000FA050CED00E0DB
:1009D00010B500F003F800F063F910BD00200CE042
:1009E000002106E00022064B03EBC0135A544A1CB8
:1009F000D1B28029F6DB421CD0B20828F0DB704768
:100A0000F80400202DE9FF4F0746884616460024CB
:100A100029E02046E11704EB5171C1F3C70AE11741
:100A200004EB5171C910A4EBC10101F0FF0B0025CB
:100A300015E00AFB06501FFA80F90D9B13F80930E8
:100A40004FF0800C4CFA0BFC03EA0C0204EB080399
:100A5000D9B2EB19D8B200F081F8681CC5B2B54222
:100A6000E7DB601CC4B203988442D2DBBDE8FF8F91
:100A70002DE9F04F8DB081460C4692469B46484684
:100A8000FFF7D4FCCDE902015046FFF7CFFCCDE9DA
:100A90000001DDE90223FFF754FCCDE90601204601
:100AA000FFF7C4FCCDE902015846FFF7BFFCCDE9D2
:100AB0000001DDE90223FFF744FCCDE90401DDE993
:100AC0000623FFF744FCCDE90A0100202249DDE9B5
:100AD0000A23FFF73CFCCDE908014846FFF7A6FCD6
:100AE00005460E462046FFF7A1FC0746884616E05D
:100AF00038464146DDE90A23FFF782FB0746884670
:100B000038464146FFF79FFCC0B2012201460790DC
:100B1000484600F023F809F1010000F0FF09D14533
:100B2000E6DD13E028463146DDE90823FFF768FBE0
:100B300005460E4628463146FFF785FCC0B2012225
:100B40002146079000F00AF8601CC4B25C45E9DD5C
:100B50000DB0BDE8F08F00000000F03F70B5154605
:100B60003F2901DC7F2800DD70BD0C46CE1701EB6C
:100B70005676C6F3C702CE1701EB5676F610A1EBF8
:100B8000C606F3B25DB10C4C04EBC214245C8026A3
:100B90001E413443084E06EBC21634540AE0064C9C
:100BA00004EBC214245C80261E41B443024E06EBC3
:100BB000C216345400BFD7E7F80400202DE9F041F5
:100BC00004460D461746984600260FE0A119C8B204
:100BD00001222946FFF7C2FF05EB0802D1B2A21994
:100BE000D0B20122FFF7BAFF701CC6B2BE42EDDBE5
:100BF00000260EE0A819C1B201222046FFF7AEFF81
:100C0000AA19D1B2E219D0B20122FFF7A7FF701CD6
:100C1000C6B24645EEDBBDE8F081000038B50121E3
:100C2000202000F01BF90121080200F017F9102024
:100C30008DF8030003208DF80200002415E00C4815
:100C400030F83400ADF80000094901EBC4014868F0
:100C50006946FFF7ADFD064A32F8341002EBC402D4
:100C60005068FFF732FE601CC4B2052CE7DB38BDCC
:100C7000CC02002010B5022000F028F84FF4FA70E2
:100C800000F0FCFF022000F099F800221C2103482C
:100C900000F078F8FFF79CFE10BD0000F402002081
:100CA00010B500240CE00021204600F095F806491C
:100CB00001EBC4100122802100F064F8601CC4B272
:100CC000082CF0DB10BD0000F804002010B504462D
:100CD000044A32F8341002EBC4025068FFF7F3FD07
:100CE00010BD0000CC02002070B504460320FFF7C1
:100CF000EDFF0420FFF7EAFF002513E00020FFF7D7
:100D0000E5FF04F0800018B1012000F057F802E080
:100D10000120FFF7DBFF6006040E002000F04EF814
:100D2000681CC5B2082DE9DB032000F047F8042059
:100D300000F044F870BD70B50446032000F03EF8A2
:100D40000420FFF7C3FF002512E00020FFF7BEFFDD
:100D500004F0010018B1012000F030F802E0012099
:100D6000FFF7B4FF6410002000F028F8681CC5B23B
:100D7000082DEADB032000F021F8042000F01EF823
:100D800070BD00002DE9F04104460E4617460FB134
:100D9000084D00E0084D4FF0000806E02078A84715
:100DA000641C08F1010000F0FF08B045F6DBBDE867
:100DB000F0810000370D0008E90C000810B504466A
:100DC000044A32F8341002EBC4025068FFF77DFD8C
:100DD00010BD0000CC02002070B505460C4605F1A0
:100DE000B001C8B2FFF780FF04F0F001102242EA20
:100DF0002110FFF779FF04F00F00FFF775FF70BDBA
:100E000001F070F90449086005E0FFF749FF04218B
:100E1000014801F02DF9F8E79002002029B1064AB7
:100E200052690243044B5A6104E0034A5269824307
:100E3000014B5A61704700000010024029B1064A78
:100E4000D2690243044BDA6104E0034AD269824367
:100E5000014BDA61704700000010024029B1064AD8
:100E600092690243044B9A6104E0034A9269824307
:100E7000014B9A61704700000010024030B500211C
:100E80000022002400232D4D6D6805F00C0121B1D6
:100E9000042905D0082923D105E0294D056022E069
:100EA000274D05601FE0254D6D6805F47012234D38
:100EB0006D6805F48034022505EB92421CB9214D82
:100EC000554305600BE01D4D6D6805F400351DB1FF
:100ED0001C4D5543056002E0194D5543056002E085
:100EE000174D056000BF00BF144D6D6805F0F0019F
:100EF0000909154D6B5C0568DD4045600F4D6D6857
:100F000005F4E061090A104D6B5C4568DD408560C1
:100F10000A4D6D6805F46051C90A0B4D6B5C45685C
:100F2000DD40C560054D6D6805F44041890B074DF6
:100F30006B5CC568B5FBF3F5056130BD0010024080
:100F400000127A0000093D00140000202400002057
:100F500010B5421E104B03EB821212783F2A14DAAE
:100F6000421E03EB82130C4C04EB82121278521CCB
:100F70009954421E234603EB82121278521CD3B2BC
:100F8000421E04EB8212137005E04023421E024C05
:100F900004EB8212137010BD7803002010B500F02E
:100FA00001F810BD0CB50020019000903348006896
:100FB00040F480303149086000BF3048006800F4D8
:100FC000003000900198401C0190009818B90198D9
:100FD000B0F5A06FF1D12948006800F4003010B1DD
:100FE0000120009001E0002000900098012843D1EA
:100FF0002348006840F01000214908600846006856
:1010000020F0030008600846006840F00200086015
:101010001A484068194948600846406848600846D0
:10102000406840F4806048600846406820F47C10C6
:1010300048600846406840F4E81048600846006888
:1010400040F08070086000BF0C48006800F000703D
:101050000028F9D00948406820F00300074948609B
:101060000846406840F00200486000BF03484068FE
:1010700000F00C000828F9D10CBD0000001002405F
:101080000020024010B51348006840F001001149EB
:10109000086008464068104908400E494860084604
:1010A00000680E4908400B4908600846006820F4B3
:1010B000802008600846406820F4FE0048604FF435
:1010C0001F008860FFF76AFF4FF000600449086066
:1010D00010BD0000001002400000FFF8FFFFF6FE08
:1010E00008ED00E01CB504464FF44070FFF766FCC5
:1010F000FFF79EFAFFF795FA1B4840231A46002196
:1011000000900846FFF77EFC3F237F22002108461F
:10111000FFF754FDFFF7C4FD4FF47A7000F0AEFD09
:1011200012480F2100232022CDE9001010A11248FF
:1011300000F06EFF11480A2100232022CDE90010A3
:101140000FA1114800F064FF0848006810B10B4877
:10115000006820B90DA000F0ADFA00BFFEE7002046
:1011600000F04EFE1CBD000084000020880200201C
:101170004F4C454400000000010E00088C02002086
:101180004D6F766500000000D50800084572726F4B
:101190000D0A00000022411E024B03EB81110A7070
:1011A000704700003804002038B50020009040F25D
:1011B0002551144800F05DF9012821D1114800F0B3
:1011C00057FAC4B221460120FFF7C2FE012000F009
:1011D00069FA0446012000F065FA0078205C0A28CC
:1011E00009D1684638B14FF0805007490860BFF315
:1011F0004F8FBFF36F8F40F22551024800F038F84F
:1012000038BD00000038014004ED00E010B540F2A8
:101210002551094800F02DF901280CD1074800F0AC
:1012200027FAC4B221460220FFF792FE40F2255170
:10123000024800F01DF810BD003801400044004095
:1012400010B540F22551094800F013F901280CD1DE
:10125000064800F00DFAC4B221460320FFF778FEDD
:1012600040F22551014800F003F810BD004800404D
:1012700010B50022002340F66A14A14200D100BF3D
:101280000A1201249440A3B2DC43048010BD21B1B2
:10129000828942F40052828104E082894DF6FF7314
:1012A0001A408281704700001FB501218803FFF7B3
:1012B000D5FD01214804FFF7C1FD01218804FFF796
:1012C000BDFD4FF4E13000900020ADF80C000C2083
:1012D000ADF80A000020ADF80800ADF80600ADF842
:1012E0000400002407E0054951F82400694600F095
:1012F0000FF9601CC4B2032CF5DB1FBDB402002043
:101300001AB1838A0B43838202E0838A8B438382F0
:101310007047000010B58CB001210846FFF77EFD34
:1013200001210220FFF77AFD002004901020039095
:1013300000200B90089080200690002009900790D4
:1013400005904FF480500A9000241BE0234850F889
:101350002400001D0190224800EB8410401C0290E4
:10136000204951F8240001A9FFF703FA1B4951F85D
:10137000240001228021FFF7C3FF0220FFF7BEF9FE
:10138000601CC4B2032CE1DB01208DF803000820AF
:101390008DF8010000208DF802000E208DF800006D
:1013A0006846FFF7D3FA11208DF800006846FFF772
:1013B000CDFA0C208DF800006846FFF7C7FA00242C
:1013C00008E0084951F8240001220221FFF7C8F97A
:1013D000601CC4B2032CF4DB0CB010BDB4020020BE
:1013E00038040020C002002008B501210420FFF7C6
:1013F00035FD01210820FFF731FD18208DF803008D
:1014000003208DF802004FF40170ADF8000069462A
:101410000F48FFF7CDF94FF48060ADF80000694642
:101420000C48FFF7C5F904208DF803004FF48160E4
:10143000ADF8000069460648FFF7BAF94FF40060BE
:10144000ADF8000069460348FFF7B2F908BD000097
:1014500000080140000C014002460020B1F5007F69
:1014600000D100BF13880B400BB1012000E0002029
:10147000704770B50246002400230025002040F686
:101480006A16B14200D100BFC1F3421501F01F033B
:10149000012606FA03F3012D02D19689334006E0B6
:1014A000022D02D1168A334001E0968A33400C1295
:1014B000012606FA04F41688344013B10CB1012059
:1014C00000E0002070BDF0B5034600240026002592
:1014D000002040F66A17B94200D100BF1846C1F398
:1014E000421401F01F06012707FA06F5012C01D16D
:1014F0000C3004E0022C01D1103000E014301AB19D
:1015000007682F43076002E00768AF430760F0BD3C
:101510002DE9F04786B005460E460024A24600BFDE
:10152000A1460027B08900B100BF2F462C8A4CF697
:10153000FF700440F08804432C82AC894EF6F3100F
:101540000440B08831890843718908430443AC8161
:10155000AC8A4FF6FF400440B0890443AC8201A836
:10156000FFF78CFC1F48874202D1DDF810A001E094
:10157000DDF80CA0A88900F4004040B10AEBCA00D5
:1015800000EB0A1031684900B0FBF1F807E00AEB04
:10159000CA0000EB0A1031688900B0FBF1F8642042
:1015A000B8FBF0F004012009642101FB1089A8892F
:1015B00000F4004040B1322000EBC900B0FBF1F074
:1015C00000F00700044308E0322000EB091064211A
:1015D000B0FBF1F000F00F0004432C8106B0BDE831
:1015E000F08700000038014008B501208DF80300A5
:1015F0008DF8010000208DF8020025208DF80000F4
:101600006846FFF7A3F926208DF800006846FFF72B
:101610009DF927208DF800006846FFF797F9012211
:1016200040F225510F48FFF74EFF012240F22551AD
:101630000D48FFF748FF012240F225510B48FFF704
:1016400042FF40F225510748FFF712FE40F22551B4
:101650000548FFF70DFE40F225510448FFF708FE4C
:1016600008BD000000380140004400400048004030
:1016700001468888C0F308007047C1F308028280E1
:10168000704700BFFEE700000146481E044A02EB17
:101690008010007808B1012070470020FCE70000AE
:1016A000380400200146481E014A02EB80107047B2
:1016B00078030020014A024900F013B8051700081A
:1016C0007403002002E008C8121F08C1002AFAD1E2
:1016D00070477047002001E001C1121F002AFBD1B2
:1016E00070472DE9F04116460F460446002503E0F9
:1016F0003946B047641C6D1C20780028F8D1284674
:10170000BDE8F08170B504460D4600BF0120FFF72B
:10171000BBFF0028FAD1A1B20548FFF7AEFF00BF1A
:1017200080210348FFF798FE0028F9D0204670BDBD
:10173000003801401CB507480F2100234022CDE9A5
:10174000001005A1074800F063FC00F0BFFB00BFDC
:10175000FEE700008402002053797374656D496EC2
:1017600069740000E51000082DE9F04105460E46B9
:101770001C4807681C480068001D00F095FA50B925
:101780001948006890F82C10012088401749096812
:10179000814316480160681C38B936B112480168A7
:1017A000091D134800F0BEFA1AE07C190E480068C3
:1017B0004460BC4207D20C480168091D0D4800680E
:1017C00000F096FA0CE008480168091D0A48006814
:1017D00000F08EFA09480068844201D2074804608C
:1017E000BDE8F08148030020340300204C030020B2
:1017F000884A00203C0300203803002064030020B6
:1018000010B5044600F09AFA23480068401C2249AB
:1018100008602248006840B9204804600846006813
:1018200001280DD100F00EF90AE01D48006838B912
:101830001A480068C06AE16A884201D81748046003
:1018400018480068401C1749086094F82C100120C3
:10185000884015490968084313490860E16A01EBAB
:101860008101124A02EB8100211D00F05BFA00F0B9
:1018700077FA0B48006868B108480068C06AE16AF6
:10188000884207D24FF0805009490860BFF34F8F5C
:10189000BFF36F8F10BD000044030020340300200D
:1018A00050030020600300204C030020F848002073
:1018B00004ED00E010B516E000F040FA0C48C068F6
:1018C000C468201D00F0F0F90A480068401E09496C
:1018D000086009480068401E0749086000F040FAA7
:1018E000204600F00BF8044800680028E4D110BD41
:1018F000744A0020440300204003002010B5044631
:10190000206B00F03DFA204600F03AFA10BD0000CE
:1019100030B54FF48043174800F007042CB1C01DC8
:1019200020F00700134C041B1B1B0246124C2260C4
:101930000024114D6C60D018083820F007000F4CBF
:10194000206000240D4D2D686C600C4D2D682C60BE
:101950001146441A4C60094C24680C60084D4C68D0
:101960002C60084D4C682C604FF00044064D2C60F4
:1019700030BD0000F8080020140300201C030020E4
:1019800024030020200300203003002000BFFFF7C5
:1019900091FF064800680128F9D94FF080500449AA
:1019A0000860BFF34F8FBFF36F8FF0E7F848002058
:1019B00004ED00E02DE9FF5F80460E469146DDE92B
:1019C0000E7A109CA9F10100216B01EB800B2BF02A
:1019D000070B86B1002507E0715D04F13400415525
:1019E000705D00B902E06D1C102DF5D300BF002121
:1019F0004320015502E0002084F83400102F00D36A
:101A00000F27E76267640020A064201D00F06DF9D5
:101A100004F1180000F069F92461C7F11000A06119
:101A200064620020E06484F8500041465846039AFE
:101A300000F012F92060BAF1000F01D0CAF800409E
:101A4000BDE8FF9F10B5002407E004EB84010F4AB6
:101A500002EB810000F03CF9641C102CF5D30C481B
:101A600000F036F90B4800F033F90B4800F030F97C
:101A70000A4800F02DF90A4800F02AF904480949FB
:101A8000086004480849086010BD0000F8480020BC
:101A9000384A00204C4A0020604A0020744A002046
:101AA000884A0020380300203C03002010B501467E
:101AB000164800E0006803688B42FBD30246436887
:101AC00013448B4204D143684C682344436001466D
:101AD0000A464B6813440468A34211D10C4C0368B6
:101AE0002468A34208D04B680468646823444B60B0
:101AF00003681B680B6005E0054B1B680B6001E089
:101B000003680B60884200D0016010BD1403002000
:101B10001C03002009480068006808B9012000E0A3
:101B2000002020B14FF0FF300549086005E0034870
:101B30000068C068006802490860704738030020E8
:101B40006403002000BFBF2080F31188BFF34F8FD4
:101B5000BFF36F8F00BF00BFFEE700002DE9F0412B
:101B600004464FF0000800F0E7F93548006808B96E
:101B7000FFF7CEFE33480068204000285BD1B4B1A7
:101B800004F10800A04212D9083404F0070078B12B
:101B900004F00700C0F108002044A04205D904F079
:101BA0000700C0F10800044402E0002400E0002423
:101BB000002C40D02448006884423CD8234E304654
:101BC000056801E02E462D686868A04202D22868A8
:101BD0000028F7D11A48006885422CD0306800F1FF
:101BE0000808286830606868001B102807D92F197A
:101BF0006868001B78606C603846FFF757FF124931
:101C000068680968081A10490860084600681049A1
:101C10000968884203D20C4800680D4908600949E8
:101C200068680968084368600020286009480068FF
:101C3000401C0849086000F0E9FA4046BDE8F08120
:101C40001C03002030030020200300201403002088
:101C50002403002028030020001F4FF0807303603E
:101C6000001F21F001030360001F034B03601438C1
:101C70000260203870470000451B000800B503468D
:101C800004E04FF47A7000F004F85B1E002BF8D1EA
:101C900000BD06E0482101E04A1E91B20029FBD1B7
:101CA000401E0028F6D1704701460A69D1E901308B
:101CB0009860D1E9010358605068884201D1886872
:101CC0005060002008611068401E10601068704766
:101CD00000F1080141604FF0FF31816000F108011F
:101CE000C1600161002101607047002101617047FE
:101CF00010B502460B685C1C0CB9106907E002F1D4
:101D0000080000E04068446824689C42FAD94468AE
:101D10004C604C68A160886041600A611468641C72
:101D2000146010BD42684A6093688B609368596084
:101D30009160086103685B1C0360704700BFBF20AF
:101D400080F31188BFF34F8FBFF36F8F00BF03483D
:101D50000068401C01490860704700001003002023
:101D600006480068401E054908600846006820B91A
:101D7000002080F3118800BF00BF704710030020CF
:101D800070B506463546FEB1083D2C460F496068E1
:101D900009680840C0B12068B0B90C49606809689A
:101DA0008843606000F0C8F8094960680968084421
:101DB000074908602046FFF779FE06480068401C86
:101DC0000449086000F022FA70BD000030030020D2
:101DD000200300202C03002000204FF0E0210861A8
:101DE000886106480068C821B0FBF1F0401E4FF042
:101DF000E0214861072008617047000000000020D2
:101E000070B50546FFF79AFF15B92748006800E04E
:101E100028460446201DFFF747FF78B9E06A00EB2B
:101E20008000224951F8200040B994F82C1001207C
:101E300088401F49096881431D480160A06A18B1A4
:101E400004F11800FFF730FF1A480068401C1949D8
:101E5000086015480068844209D1211D1648FFF723
:101E600061FF16480068401C1449086009E01448E6
:101E70000068401E124908602046FFF73FFDFFF74B
:101E800049FEFFF76DFF0F48006858B1064800682B
:101E9000844207D14FF080500B490860BFF34F8F49
:101EA000BFF36F8F70BD000034030020F84800209E
:101EB0004C03002060030020744A002040030020EF
:101EC000440300205003002004ED00E01CB512483C
:101ED00000210B468022CDE9001010A1114800F02E
:101EE00097F80446012C14D100BFBF2080F311885D
:101EF000BFF34F8FBFF36F8F00BF4FF0FF300A4922
:101F0000086001200949086000200949086000F0C4
:101F10004BF8084800681CBD6803002049444C4544
:101F2000000000008D190008640300205003002009
:101F3000480300206C03002002480068401C01494F
:101F400008607047700300201248006818B1012033
:101F5000114908601DE000200F4908600F48006823
:101F6000B0FA80F0C0F11F0101EB81020C4B03EBD2
:101F7000820042685268426000F10802436893425E
:101F800002D14268526842604268D268054B1A60CA
:101F900000BF704770030020580300204C0300204E
:101FA000F84800203403002010B50A48006840F4C7
:101FB0007F00084908600846006840F07F400860DC
:101FC000FFF70AFF002004490860FEF7CDF8002063
:101FD00010BD000020ED00E01003002010B500BF90
:101FE000BF2080F31188BFF34F8FBFF36F8F00BF07
:101FF00000F07EF818B14FF080500449086000BF2F
:10200000002080F3118800BF10BD000004ED00E047
:102010002DE9FF4F85B0804689461746DDE912ABB2
:10202000B800FFF79BFD064656B15420FFF796FD1A
:1020300004460CB1266304E03046FFF7A1FE00E041
:1020400000247CB10020CDE900ABCDE902403A4646
:1020500049464046089BFFF7ADFC2046FFF7D0FB02
:10206000012501E04FF0FF35284609B0BDE8F08FAB
:102070002DE9F047044688464FF00009FFF75CFF62
:1020800016480668206800EB08052068B04207D9AA
:102090002068A8420BD9B54209D94FF0010906E0E2
:1020A0002068A84201D8B54201D94FF00109256046
:1020B000B9F1000F03D0A81B0021FFF755FB00F07A
:1020C000A5F807463FB94FF0805005490860BFF3B7
:1020D0004F8FBFF36F8F4846BDE8F087480300205D
:1020E00004ED00E001490868704700004803002043
:1020F0002DE9F04100273A480068002867D13948A7
:102100000068451C374805608DB93748D0F8008015
:1021100036480068344908603448C0F800803448C4
:102120000068401C32490860FFF7F4FC00BF3148EA
:10213000006885423BD300BF2B480068006808B99F
:10214000012000E0002020B14FF0FF302949086055
:102150002CE025480068C068C4686668B54202D2B1
:102160002448066022E0201DFFF79EFDA06A18B1FA
:1021700004F11800FFF798FD94F82C100120884016
:102180001D49096808431C490860E16A01EB8101A7
:102190001A4A02EB8100211DFFF7C4FD1849E06ACD
:1021A0000968C96A8842C7D30127C5E700BF144838
:1021B0000068C06A00EB8000104951F82000012837
:1021C00000D901270F48006800B1012704E00E483C
:1021D0000068401C0C4908603846BDE8F0810000EA
:1021E0007003002048030020380300203C03002037
:1021F0005C030020640300204C030020F84800200A
:1022000034030020580300205403002070B500243C
:102210000026FFF793FD2E480068401E2C490860F9
:102220000846006800284FD12A48006800284BD093
:1022300024E02948C068C46804F11800FFF734FDA1
:10224000201DFFF731FD94F82C1001208840234910
:102250000968084321490860E16A01EB8101204ACD
:1022600002EB8100211DFFF75DFD1E49E06A096850
:10227000C96A884202D301201B49086016480068D9
:1022800008B9012000E000200028D2D00CB1FFF7EF
:1022900041FC1648056865B100BFFFF729FF10B182
:1022A0000120114908606D1E002DF6D100200F4954
:1022B00008600D48006838B1012630070C490860F5
:1022C000BFF34F8FBFF36F8FFFF74AFD304670BDEE
:1022D0007003002044030020604A00204C030020CB
:1022E000F848002034030020580300205403002045
:1022F00004ED00E014230008000000207803000033
:10230000C40500087824000878030020284B00004A
:10231000D4160008500600A24A0400016009010218
:102320000304060708090C611010160204060800D1
:102330003801400044004000480040440002408012
:1023400004121C041300023912141C5208085220F3
:10235000084280082117802200200140AE00104072
:1023600081CFA1C8A6A83FD300D580D9F1DA12DB6E
:102370004020028D14A4A6AF000110090107070F29
:10238000070103018102140001120101000514007C
:102390000103032010050317EFFF01600BFDFEDDB5
:1023A000FDBBF6ECB8F02001100E30101038485E7E
:1023B0007F77FEF7FF7FF721000411EFF8803F00E1
:1023C0000D1462BFF6FCF858B0E060C080807F104A
:1023D0000880C0C0C0E04F7F6403101F039C823E92
:1023E00055600B030E3C7C7878787C3E0F5D330F94
:1023F0003E11F00B7E1F00C0E0E0F0E0FCE75D73F3
:10240000F0078A500407070401B38404015004054F
:10241000078E220210F89E73E01C95000610E09CC7
:102420008380400133C18737000515010E70C0E17C
:10243000140660100804026470090000C0602010D7
:10244000180801040D1518103061C183020408102A
:1024500020C01E9528117D4577110126308207176F
:1024600040405501164509167409598C12AA0102FB
:08247000550001920F59000014
:0400000508000131BD
:00000001FF
